{
	"data": {
		"bytecode": {
			"linkReferences": {},
			"object": "60a060405234801561000f575f5ffd5b5060405161662e38038061662e833981810160405281019061003191906104de565b83338181335f73ffffffffffffffffffffffffffffffffffffffff168173ffffffffffffffffffffffffffffffffffffffff16036100a6575f6040517f1e4fbdf700000000000000000000000000000000000000000000000000000000815260040161009d9190610551565b60405180910390fd5b6100b58161038c60201b60201c565b508173ffffffffffffffffffffffffffffffffffffffff1660808173ffffffffffffffffffffffffffffffffffffffff16815250505f73ffffffffffffffffffffffffffffffffffffffff168173ffffffffffffffffffffffffffffffffffffffff160361014f576040517fb586360400000000000000000000000000000000000000000000000000000000815260040160405180910390fd5b60805173ffffffffffffffffffffffffffffffffffffffff1663ca5eb5e1826040518263ffffffff1660e01b815260040161018a9190610551565b5f604051808303815f87803b1580156101a1575f5ffd5b505af11580156101b3573d5f5f3e3d5ffd5b50505050505050505f60025f6101000a81548160ff02191690831515021790555060016003819055505f73ffffffffffffffffffffffffffffffffffffffff168373ffffffffffffffffffffffffffffffffffffffff160361024a576040517f08c379a0000000000000000000000000000000000000000000000000000000008152600401610241906105c4565b60405180910390fd5b5f73ffffffffffffffffffffffffffffffffffffffff168273ffffffffffffffffffffffffffffffffffffffff16036102b8576040517f08c379a00000000000000000000000000000000000000000000000000000000081526004016102af9061062c565b60405180910390fd5b6103e881106102fc576040517f08c379a00000000000000000000000000000000000000000000000000000000081526004016102f390610694565b60405180910390fd5b82600c5f6101000a81548173ffffffffffffffffffffffffffffffffffffffff021916908373ffffffffffffffffffffffffffffffffffffffff16021790555081600d5f6101000a81548173ffffffffffffffffffffffffffffffffffffffff021916908373ffffffffffffffffffffffffffffffffffffffff16021790555080600e81905550505050506106b2565b5f5f5f9054906101000a900473ffffffffffffffffffffffffffffffffffffffff169050815f5f6101000a81548173ffffffffffffffffffffffffffffffffffffffff021916908373ffffffffffffffffffffffffffffffffffffffff1602179055508173ffffffffffffffffffffffffffffffffffffffff168173ffffffffffffffffffffffffffffffffffffffff167f8be0079c531659141344cd1fd0a4f28419497f9722a3daafe3b4186f6b6457e060405160405180910390a35050565b5f5ffd5b5f73ffffffffffffffffffffffffffffffffffffffff82169050919050565b5f61047a82610451565b9050919050565b61048a81610470565b8114610494575f5ffd5b50565b5f815190506104a581610481565b92915050565b5f819050919050565b6104bd816104ab565b81146104c7575f5ffd5b50565b5f815190506104d8816104b4565b92915050565b5f5f5f5f608085870312156104f6576104f561044d565b5b5f61050387828801610497565b945050602061051487828801610497565b935050604061052587828801610497565b9250506060610536878288016104ca565b91505092959194509250565b61054b81610470565b82525050565b5f6020820190506105645f830184610542565b92915050565b5f82825260208201905092915050565b7f496e76616c6964206665652077616c6c657400000000000000000000000000005f82015250565b5f6105ae60128361056a565b91506105b98261057a565b602082019050919050565b5f6020820190508181035f8301526105db816105a2565b9050919050565b7f496e76616c6964207661756c742077616c6c65740000000000000000000000005f82015250565b5f61061660148361056a565b9150610621826105e2565b602082019050919050565b5f6020820190508181035f8301526106438161060a565b9050919050565b7f46656520746f6f206869676800000000000000000000000000000000000000005f82015250565b5f61067e600c8361056a565b91506106898261064a565b602082019050919050565b5f6020820190508181035f8301526106ab81610672565b9050919050565b608051615f566106d85f395f8181610fa501528181611de10152612a700152615f565ff3fe608060405260043610610302575f3560e01c806376e112861161018f578063bb0b6a53116100db578063e9f2838e11610094578063efd71eb01161006e578063efd71eb014610b6c578063f25f4b5614610b94578063f2fde38b14610bbe578063ff7bd03d14610be657610309565b8063e9f2838e14610ade578063ed59313a14610b08578063ee91877c14610b3057610309565b8063bb0b6a53146109ec578063ca5eb5e114610a28578063cb30b05414610a50578063dd0408ae14610a78578063e06d97ba14610aa0578063e4c4be5814610ac857610309565b806382c947b7116101485780638da5cb5b116101225780638da5cb5b1461092f578063937b258114610959578063b72952ee1461099a578063b8606eef146109c257610309565b806382c947b7146108b55780638456cb59146108f157806387e0081f1461090757610309565b806376e11286146107615780637d25a05e146107895780638078f22c146107c557806380f568ad14610801578063821a3e671461083d57806382413eac1461087957610309565b80633f1b54611161024e5780635e280f111161020757806361f1c5ba116101e157806361f1c5ba146106cf57806366718524146106f9578063715018a6146107215780637274e30d1461073757610309565b80635e280f11146106415780635e96da621461066b5780636060f33b146106a757610309565b80633f1b54611461055f5780633f4ba83a1461058757806356bb54a71461059d57806357802c7d146105b35780635c975abb146105db5780635ced058e1461060557610309565b8063177ffe9a116102bb57806325fb26801161029557806325fb2680146104b55780632752d6b0146104d15780632f6ee6951461050d5780633400288b1461053757610309565b8063177ffe9a1461042757806319e44e321461044f5780631b6c1cc21461047957610309565b8063090515661461030d578063126082cf1461034957806313137d6514610373578063141961bc1461038f578063165dd5d4146103d257806317442b70146103fc57610309565b3661030957005b5f5ffd5b348015610318575f5ffd5b50610333600480360381019061032e9190613d12565b610c22565b6040516103409190613f9e565b60405180910390f35b348015610354575f5ffd5b5061035d610f86565b60405161036a9190613fcd565b60405180910390f35b61038d600480360381019061038891906140c6565b610f8c565b005b34801561039a575f5ffd5b506103b560048036038101906103b0919061417d565b6110ac565b6040516103c998979695949392919061420e565b60405180910390f35b3480156103dd575f5ffd5b506103e66112ae565b6040516103f39190613fcd565b60405180910390f35b348015610407575f5ffd5b506104106112b4565b60405161041e9291906142c1565b60405180910390f35b348015610432575f5ffd5b5061044d60048036038101906104489190614321565b6112c2565b005b34801561045a575f5ffd5b50610463611346565b6040516104709190613fcd565b60405180910390f35b348015610484575f5ffd5b5061049f600480360381019061049a919061435f565b61134c565b6040516104ac9190613fcd565b60405180910390f35b6104cf60048036038101906104ca919061438a565b611361565b005b3480156104dc575f5ffd5b506104f760048036038101906104f2919061435f565b611a68565b6040516105049190613fcd565b60405180910390f35b348015610518575f5ffd5b50610521611a7d565b60405161052e91906143f5565b60405180910390f35b348015610542575f5ffd5b5061055d6004803603810190610558919061440e565b611a82565b005b34801561056a575f5ffd5b50610585600480360381019061058091906144a1565b611a98565b005b348015610592575f5ffd5b5061059b611cfc565b005b3480156105a8575f5ffd5b506105b1611d0e565b005b3480156105be575f5ffd5b506105d960048036038101906105d4919061417d565b611d32565b005b3480156105e6575f5ffd5b506105ef611dbf565b6040516105fc9190614578565b60405180910390f35b348015610610575f5ffd5b5061062b60048036038101906106269190614591565b611dd4565b60405161063891906145bc565b60405180910390f35b34801561064c575f5ffd5b50610655611ddf565b6040516106629190614630565b60405180910390f35b348015610676575f5ffd5b50610691600480360381019061068c9190614649565b611e03565b60405161069e9190613fcd565b60405180910390f35b3480156106b2575f5ffd5b506106cd60048036038101906106c8919061417d565b61202b565b005b3480156106da575f5ffd5b506106e361210b565b6040516106f091906145bc565b60405180910390f35b348015610704575f5ffd5b5061071f600480360381019061071a919061435f565b612130565b005b34801561072c575f5ffd5b5061073561222c565b005b348015610742575f5ffd5b5061074b61223f565b6040516107589190613fcd565b60405180910390f35b34801561076c575f5ffd5b5061078760048036038101906107829190614687565b612245565b005b348015610794575f5ffd5b506107af60048036038101906107aa919061440e565b612452565b6040516107bc91906146c5565b60405180910390f35b3480156107d0575f5ffd5b506107eb60048036038101906107e6919061435f565b61245c565b6040516107f891906145bc565b60405180910390f35b34801561080c575f5ffd5b506108276004803603810190610822919061417d565b61248c565b6040516108349190613fcd565b60405180910390f35b348015610848575f5ffd5b50610863600480360381019061085e919061435f565b61263e565b6040516108709190613fcd565b60405180910390f35b348015610884575f5ffd5b5061089f600480360381019061089a91906146de565b612653565b6040516108ac9190614578565b60405180910390f35b3480156108c0575f5ffd5b506108db60048036038101906108d6919061435f565b61268d565b6040516108e8919061475e565b60405180910390f35b3480156108fc575f5ffd5b506109056126ae565b005b348015610912575f5ffd5b5061092d60048036038101906109289190614777565b6126c0565b005b34801561093a575f5ffd5b5061094361287b565b60405161095091906145bc565b60405180910390f35b348015610964575f5ffd5b5061097f600480360381019061097a919061417d565b6128a2565b60405161099196959493929190614860565b60405180910390f35b3480156109a5575f5ffd5b506109c060048036038101906109bb9190614649565b612924565b005b3480156109cd575f5ffd5b506109d6612a4b565b6040516109e39190613fcd565b60405180910390f35b3480156109f7575f5ffd5b50610a126004803603810190610a0d91906148bf565b612a51565b604051610a1f919061475e565b60405180910390f35b348015610a33575f5ffd5b50610a4e6004803603810190610a49919061435f565b612a66565b005b348015610a5b575f5ffd5b50610a766004803603810190610a71919061438a565b612af7565b005b348015610a83575f5ffd5b50610a9e6004803603810190610a99919061417d565b612ec5565b005b348015610aab575f5ffd5b50610ac66004803603810190610ac1919061417d565b61309b565b005b348015610ad3575f5ffd5b50610adc6131da565b005b348015610ae9575f5ffd5b50610af26131fd565b604051610aff9190614578565b60405180910390f35b348015610b13575f5ffd5b50610b2e6004803603810190610b2991906148ea565b61320f565b005b348015610b3b575f5ffd5b50610b566004803603810190610b51919061435f565b613268565b604051610b639190614935565b60405180910390f35b348015610b77575f5ffd5b50610b926004803603810190610b8d919061435f565b613303565b005b348015610b9f575f5ffd5b50610ba86133ff565b604051610bb591906145bc565b60405180910390f35b348015610bc9575f5ffd5b50610be46004803603810190610bdf919061435f565b613424565b005b348015610bf1575f5ffd5b50610c0c6004803603810190610c079190614955565b6134a8565b604051610c199190614578565b60405180910390f35b60606001831015610c3257600192505b5f60018385610c4191906149ad565b610c4b91906149e0565b9050600454811115610c5d5760045490505b5f60018583610c6c91906149e0565b610c7691906149ad565b90505f8167ffffffffffffffff811115610c9357610c92614a13565b5b604051908082528060200260200182016040528015610ccc57816020015b610cb9613c7f565b815260200190600190039081610cb15790505b5090505f5f90505f8790505b848111610f785760055f8281526020019081526020015f20604051806101000160405290815f82018054610d0b90614a6d565b80601f0160208091040260200160405190810160405280929190818152602001828054610d3790614a6d565b8015610d825780601f10610d5957610100808354040283529160200191610d82565b820191905f5260205f20905b815481529060010190602001808311610d6557829003601f168201915b5050505050815260200160018201548152602001600282018054610da590614a6d565b80601f0160208091040260200160405190810160405280929190818152602001828054610dd190614a6d565b8015610e1c5780601f10610df357610100808354040283529160200191610e1c565b820191905f5260205f20905b815481529060010190602001808311610dff57829003601f168201915b50505050508152602001600382018054610e3590614a6d565b80601f0160208091040260200160405190810160405280929190818152602001828054610e6190614a6d565b8015610eac5780601f10610e8357610100808354040283529160200191610eac565b820191905f5260205f20905b815481529060010190602001808311610e8f57829003601f168201915b5050505050815260200160048201548152602001600582015f9054906101000a900473ffffffffffffffffffffffffffffffffffffffff1673ffffffffffffffffffffffffffffffffffffffff1673ffffffffffffffffffffffffffffffffffffffff1681526020016005820160149054906101000a900460ff16151515158152602001600682015481525050838381518110610f4c57610f4b614a9d565b5b60200260200101819052508180610f6290614aca565b9250508080610f7090614aca565b915050610cd8565b508194505050505092915050565b6103e881565b3373ffffffffffffffffffffffffffffffffffffffff167f000000000000000000000000000000000000000000000000000000000000000073ffffffffffffffffffffffffffffffffffffffff161461101c57336040517f91ac5e4f00000000000000000000000000000000000000000000000000000000815260040161101391906145bc565b60405180910390fd5b866020013561103b885f01602081019061103691906148bf565b6134e5565b1461109457865f01602081019061105291906148bf565b87602001356040517fc26bebcc00000000000000000000000000000000000000000000000000000000815260040161108b929190614b20565b60405180910390fd5b6110a387878787878787613556565b50505050505050565b6005602052805f5260405f205f91509050805f0180546110cb90614a6d565b80601f01602080910402602001604051908101604052809291908181526020018280546110f790614a6d565b80156111425780601f1061111957610100808354040283529160200191611142565b820191905f5260205f20905b81548152906001019060200180831161112557829003601f168201915b50505050509080600101549080600201805461115d90614a6d565b80601f016020809104026020016040519081016040528092919081815260200182805461118990614a6d565b80156111d45780601f106111ab576101008083540402835291602001916111d4565b820191905f5260205f20905b8154815290600101906020018083116111b757829003601f168201915b5050505050908060030180546111e990614a6d565b80601f016020809104026020016040519081016040528092919081815260200182805461121590614a6d565b80156112605780601f1061123757610100808354040283529160200191611260565b820191905f5260205f20905b81548152906001019060200180831161124357829003601f168201915b505050505090806004015490806005015f9054906101000a900473ffffffffffffffffffffffffffffffffffffffff16908060050160149054906101000a900460ff16908060060154905088565b600f5481565b5f5f60016002915091509091565b6112ca613786565b5f8173ffffffffffffffffffffffffffffffffffffffff165f1b90508060015f8563ffffffff1663ffffffff1681526020019081526020015f20819055507f238399d427b947898edb290f5ff0f9109849b1c3ba196a42e35f00c50a54b98b8382604051611339929190614b20565b60405180910390a1505050565b60065481565b600a602052805f5260405f205f915090505481565b61136961380d565b61137161385c565b5f60055f8581526020019081526020015f2090508060050160149054906101000a900460ff16156113d7576040517f08c379a00000000000000000000000000000000000000000000000000000000081526004016113ce90614b91565b60405180910390fd5b5f5f73ffffffffffffffffffffffffffffffffffffffff168473ffffffffffffffffffffffffffffffffffffffff160361173e575f341161144d576040517f08c379a000000000000000000000000000000000000000000000000000000000815260040161144490614bf9565b60405180910390fd5b6114563461248c565b90505f6103e8600e548361146a9190614c17565b6114749190614c85565b90505f818361148391906149e0565b90505f600c5f9054906101000a900473ffffffffffffffffffffffffffffffffffffffff1673ffffffffffffffffffffffffffffffffffffffff166103e8600e54346114cf9190614c17565b6114d99190614c85565b6040516114e590614ce2565b5f6040518083038185875af1925050503d805f811461151f576040519150601f19603f3d011682016040523d82523d5f602084013e611524565b606091505b5050905080611568576040517f08c379a000000000000000000000000000000000000000000000000000000000815260040161155f90614d40565b60405180910390fd5b5f600d5f9054906101000a900473ffffffffffffffffffffffffffffffffffffffff1673ffffffffffffffffffffffffffffffffffffffff166103e8600e54346115b29190614c17565b6115bc9190614c85565b346115c791906149e0565b6040516115d390614ce2565b5f6040518083038185875af1925050503d805f811461160d576040519150601f19603f3d011682016040523d82523d5f602084013e611612565b606091505b5050905080611656576040517f08c379a000000000000000000000000000000000000000000000000000000000815260040161164d90614da8565b60405180910390fd5b82866006015f82825461166991906149ad565b925050819055508260085f886005015f9054906101000a900473ffffffffffffffffffffffffffffffffffffffff1673ffffffffffffffffffffffffffffffffffffffff1673ffffffffffffffffffffffffffffffffffffffff1681526020019081526020015f205f8282546116df91906149ad565b925050819055503373ffffffffffffffffffffffffffffffffffffffff16897fe555da28bdb778f65d22794d88927ebaeca03f7de9d1b7d39245bc8fb5ca078a8560405161172d9190613fcd565b60405180910390a350505050611a59565b5f73ffffffffffffffffffffffffffffffffffffffff16600b5f8673ffffffffffffffffffffffffffffffffffffffff1673ffffffffffffffffffffffffffffffffffffffff1681526020019081526020015f205f9054906101000a900473ffffffffffffffffffffffffffffffffffffffff1673ffffffffffffffffffffffffffffffffffffffff1603611808576040517f08c379a00000000000000000000000000000000000000000000000000000000081526004016117ff90614e10565b60405180910390fd5b5f831161184a576040517f08c379a000000000000000000000000000000000000000000000000000000000815260040161184190614e78565b60405180910390fd5b6118773330858773ffffffffffffffffffffffffffffffffffffffff166138a6909392919063ffffffff16565b6118818484611e03565b90505f6103e8600e54856118959190614c17565b61189f9190614c85565b90505f81856118ae91906149e0565b90506118fc600c5f9054906101000a900473ffffffffffffffffffffffffffffffffffffffff16838873ffffffffffffffffffffffffffffffffffffffff166139289092919063ffffffff16565b611948600d5f9054906101000a900473ffffffffffffffffffffffffffffffffffffffff16828873ffffffffffffffffffffffffffffffffffffffff166139289092919063ffffffff16565b5f6103e8600e548561195a9190614c17565b6119649190614c85565b90505f818561197391906149e0565b905080866006015f82825461198891906149ad565b925050819055508060085f886005015f9054906101000a900473ffffffffffffffffffffffffffffffffffffffff1673ffffffffffffffffffffffffffffffffffffffff1673ffffffffffffffffffffffffffffffffffffffff1681526020019081526020015f205f8282546119fe91906149ad565b925050819055503373ffffffffffffffffffffffffffffffffffffffff16897fe555da28bdb778f65d22794d88927ebaeca03f7de9d1b7d39245bc8fb5ca078a83604051611a4c9190613fcd565b60405180910390a3505050505b5050611a636139a7565b505050565b6009602052805f5260405f205f915090505481565b600881565b611a8a613786565b611a9482826139b1565b5050565b611aa061385c565b60045f815480929190611ab290614aca565b919050555060405180610100016040528089898080601f0160208091040260200160405190810160405280939291908181526020018383808284375f81840152601f19601f82011690508083019250505050505050815260200187815260200186868080601f0160208091040260200160405190810160405280939291908181526020018383808284375f81840152601f19601f82011690508083019250505050505050815260200184848080601f0160208091040260200160405190810160405280939291908181526020018383808284375f81840152601f19601f8201169050808301925050505050505081526020018281526020013373ffffffffffffffffffffffffffffffffffffffff1681526020015f151581526020015f81525060055f60045481526020019081526020015f205f820151815f019081611bf8919061502d565b50602082015181600101556040820151816002019081611c18919061502d565b506060820151816003019081611c2e919061502d565b506080820151816004015560a0820151816005015f6101000a81548173ffffffffffffffffffffffffffffffffffffffff021916908373ffffffffffffffffffffffffffffffffffffffff16021790555060c08201518160050160146101000a81548160ff02191690831515021790555060e082015181600601559050503373ffffffffffffffffffffffffffffffffffffffff166004547f633109eec20320eded000fc1e2634211aa7e92ba3f5b15faf6dcdafca05094e460405160405180910390a35050505050505050565b611d04613786565b611d0c613a10565b565b611d16613786565b600160115f6101000a81548160ff021916908315150217905550565b611d3a613786565b6103e88110611d7e576040517f08c379a0000000000000000000000000000000000000000000000000000000008152600401611d7590615146565b60405180910390fd5b80600e819055507f3a81812ce3d900b6196b2d0a225da9df123054670067cf761d52294251a9674081604051611db49190613fcd565b60405180910390a150565b5f60025f9054906101000a900460ff16905090565b5f815f1c9050919050565b7f000000000000000000000000000000000000000000000000000000000000000081565b5f5f600b5f8573ffffffffffffffffffffffffffffffffffffffff1673ffffffffffffffffffffffffffffffffffffffff1681526020019081526020015f205f9054906101000a900473ffffffffffffffffffffffffffffffffffffffff1690505f73ffffffffffffffffffffffffffffffffffffffff168173ffffffffffffffffffffffffffffffffffffffff1603611ed2576040517f08c379a0000000000000000000000000000000000000000000000000000000008152600401611ec9906151ae565b60405180910390fd5b5f8190505f8173ffffffffffffffffffffffffffffffffffffffff1663feaf968c6040518163ffffffff1660e01b815260040160a060405180830381865afa158015611f20573d5f5f3e3d5ffd5b505050506040513d601f19601f82011682018060405250810190611f449190615252565b5050509150505f8113611f8c576040517f08c379a0000000000000000000000000000000000000000000000000000000008152600401611f8390615313565b60405180910390fd5b5f8673ffffffffffffffffffffffffffffffffffffffff1663313ce5676040518163ffffffff1660e01b8152600401602060405180830381865afa158015611fd6573d5f5f3e3d5ffd5b505050506040513d601f19601f82011682018060405250810190611ffa919061535b565b905080600a61200991906154b5565b82876120159190614c17565b61201f9190614c85565b94505050505092915050565b612033613786565b5f73ffffffffffffffffffffffffffffffffffffffff1660055f8381526020019081526020015f206005015f9054906101000a900473ffffffffffffffffffffffffffffffffffffffff1673ffffffffffffffffffffffffffffffffffffffff16036120d4576040517f08c379a00000000000000000000000000000000000000000000000000000000081526004016120cb90615549565b60405180910390fd5b80600f81905550807fe7350460fa1fc82bc1e8e56881adb66be0351c4490e9f5c40aab0353f62be93c60405160405180910390a250565b600d5f9054906101000a900473ffffffffffffffffffffffffffffffffffffffff1681565b612138613786565b5f73ffffffffffffffffffffffffffffffffffffffff168173ffffffffffffffffffffffffffffffffffffffff16036121a6576040517f08c379a000000000000000000000000000000000000000000000000000000000815260040161219d906155b1565b60405180910390fd5b80600c5f6101000a81548173ffffffffffffffffffffffffffffffffffffffff021916908373ffffffffffffffffffffffffffffffffffffffff1602179055508073ffffffffffffffffffffffffffffffffffffffff167f29acee77dafcfa0143d74a7ea236018f3a6e1fa71e27fc59bbfbc6b8ca8edccd60405160405180910390a250565b612234613786565b61223d5f613a71565b565b60045481565b61224d613786565b5f73ffffffffffffffffffffffffffffffffffffffff168173ffffffffffffffffffffffffffffffffffffffff16036122bb576040517f08c379a00000000000000000000000000000000000000000000000000000000081526004016122b290615619565b60405180910390fd5b5f73ffffffffffffffffffffffffffffffffffffffff16600b5f8473ffffffffffffffffffffffffffffffffffffffff1673ffffffffffffffffffffffffffffffffffffffff1681526020019081526020015f205f9054906101000a900473ffffffffffffffffffffffffffffffffffffffff1673ffffffffffffffffffffffffffffffffffffffff1614612385576040517f08c379a000000000000000000000000000000000000000000000000000000000815260040161237c906156a7565b60405180910390fd5b80600b5f8473ffffffffffffffffffffffffffffffffffffffff1673ffffffffffffffffffffffffffffffffffffffff1681526020019081526020015f205f6101000a81548173ffffffffffffffffffffffffffffffffffffffff021916908373ffffffffffffffffffffffffffffffffffffffff1602179055508173ffffffffffffffffffffffffffffffffffffffff167fd2d8394cf7549a5ddbc2ba3dd7b2de8d53c891472d1f2907008ed6a10045fdae8260405161244691906145bc565b60405180910390a25050565b5f5f905092915050565b600b602052805f5260405f205f915054906101000a900473ffffffffffffffffffffffffffffffffffffffff1681565b5f5f600b5f5f73ffffffffffffffffffffffffffffffffffffffff1673ffffffffffffffffffffffffffffffffffffffff1681526020019081526020015f205f9054906101000a900473ffffffffffffffffffffffffffffffffffffffff1690505f73ffffffffffffffffffffffffffffffffffffffff168173ffffffffffffffffffffffffffffffffffffffff160361255b576040517f08c379a00000000000000000000000000000000000000000000000000000000081526004016125529061570f565b60405180910390fd5b5f8190505f8173ffffffffffffffffffffffffffffffffffffffff1663feaf968c6040518163ffffffff1660e01b815260040160a060405180830381865afa1580156125a9573d5f5f3e3d5ffd5b505050506040513d601f19601f820116820180604052508101906125cd9190615252565b5050509150505f8113612615576040517f08c379a000000000000000000000000000000000000000000000000000000000815260040161260c90615313565b60405180910390fd5b670de0b6b3a7640000818661262a9190614c17565b6126349190614c85565b9350505050919050565b6008602052805f5260405f205f915090505481565b5f3073ffffffffffffffffffffffffffffffffffffffff168273ffffffffffffffffffffffffffffffffffffffff16149050949350505050565b5f8173ffffffffffffffffffffffffffffffffffffffff165f1b9050919050565b6126b6613786565b6126be613b32565b565b6126c861385c565b5f60055f8b81526020019081526020015f209050806005015f9054906101000a900473ffffffffffffffffffffffffffffffffffffffff1673ffffffffffffffffffffffffffffffffffffffff163373ffffffffffffffffffffffffffffffffffffffff161461276d576040517f08c379a000000000000000000000000000000000000000000000000000000000815260040161276490615777565b60405180910390fd5b8060050160149054906101000a900460ff16156127bf576040517f08c379a00000000000000000000000000000000000000000000000000000000081526004016127b6906157df565b60405180910390fd5b5f8989905011156127de578888825f0191826127dc929190615807565b505b5f8711156127f0578681600101819055505b5f86869050111561281057858582600201918261280e929190615807565b505b5f84849050111561283057838382600301918261282e929190615807565b505b5f821115612842578181600401819055505b897f614c76b810cd8cbdb81d8eb0dd2cc16108a6fbdb71cdbee83f087626d02ccf6060405160405180910390a250505050505050505050565b5f5f5f9054906101000a900473ffffffffffffffffffffffffffffffffffffffff16905090565b6007602052805f5260405f205f91509050805f015490806001015f9054906101000a900473ffffffffffffffffffffffffffffffffffffffff1690806002015490806003015f9054906101000a900473ffffffffffffffffffffffffffffffffffffffff1690806004015490806005015f9054906101000a900460ff16905086565b61292c613786565b5f73ffffffffffffffffffffffffffffffffffffffff168273ffffffffffffffffffffffffffffffffffffffff1603612a14575f61296861287b565b73ffffffffffffffffffffffffffffffffffffffff168260405161298b90614ce2565b5f6040518083038185875af1925050503d805f81146129c5576040519150601f19603f3d011682016040523d82523d5f602084013e6129ca565b606091505b5050905080612a0e576040517f08c379a0000000000000000000000000000000000000000000000000000000008152600401612a059061591e565b60405180910390fd5b50612a47565b612a46612a1f61287b565b828473ffffffffffffffffffffffffffffffffffffffff166139289092919063ffffffff16565b5b5050565b600e5481565b6001602052805f5260405f205f915090505481565b612a6e613786565b7f000000000000000000000000000000000000000000000000000000000000000073ffffffffffffffffffffffffffffffffffffffff1663ca5eb5e1826040518263ffffffff1660e01b8152600401612ac791906145bc565b5f604051808303815f87803b158015612ade575f5ffd5b505af1158015612af0573d5f5f3e3d5ffd5b5050505050565b612aff61385c565b5f73ffffffffffffffffffffffffffffffffffffffff168273ffffffffffffffffffffffffffffffffffffffff1603612b6d576040517f08c379a0000000000000000000000000000000000000000000000000000000008152600401612b64906159ac565b60405180910390fd5b60115f9054906101000a900460ff1615612bbc576040517f08c379a0000000000000000000000000000000000000000000000000000000008152600401612bb390615a14565b60405180910390fd5b5f600a5f3373ffffffffffffffffffffffffffffffffffffffff1673ffffffffffffffffffffffffffffffffffffffff1681526020019081526020015f205460095f3373ffffffffffffffffffffffffffffffffffffffff1673ffffffffffffffffffffffffffffffffffffffff1681526020019081526020015f2054612c4391906149e0565b90505f612c508486611e03565b905081811115612c95576040517f08c379a0000000000000000000000000000000000000000000000000000000008152600401612c8c90615aa2565b60405180910390fd5b5f6103e8600e5483612ca79190614c17565b612cb19190614c85565b90505f8183612cc091906149e0565b905082600a5f3373ffffffffffffffffffffffffffffffffffffffff1673ffffffffffffffffffffffffffffffffffffffff1681526020019081526020015f205f828254612d0e91906149ad565b9250508190555060065f815480929190612d2790614aca565b91905055506040518060c0016040528060065481526020013373ffffffffffffffffffffffffffffffffffffffff1681526020018281526020018773ffffffffffffffffffffffffffffffffffffffff1681526020018681526020015f151581525060075f60065481526020019081526020015f205f820151815f01556020820151816001015f6101000a81548173ffffffffffffffffffffffffffffffffffffffff021916908373ffffffffffffffffffffffffffffffffffffffff160217905550604082015181600201556060820151816003015f6101000a81548173ffffffffffffffffffffffffffffffffffffffff021916908373ffffffffffffffffffffffffffffffffffffffff1602179055506080820151816004015560a0820151816005015f6101000a81548160ff0219169083151502179055509050503373ffffffffffffffffffffffffffffffffffffffff167f47ec139da49df2cb908b88ac42cefbd8e2b9f21c6e7500f9206ae4465c3e099c600654838989604051612eb49493929190615ac0565b60405180910390a250505050505050565b612ecd61385c565b5f60055f8381526020019081526020015f209050806005015f9054906101000a900473ffffffffffffffffffffffffffffffffffffffff1673ffffffffffffffffffffffffffffffffffffffff163373ffffffffffffffffffffffffffffffffffffffff1614612f72576040517f08c379a0000000000000000000000000000000000000000000000000000000008152600401612f6990615b4d565b60405180910390fd5b8060050160149054906101000a900460ff1615612fc4576040517f08c379a0000000000000000000000000000000000000000000000000000000008152600401612fbb90615bb5565b60405180910390fd5b60018160050160146101000a81548160ff021916908315150217905550806006015460095f836005015f9054906101000a900473ffffffffffffffffffffffffffffffffffffffff1673ffffffffffffffffffffffffffffffffffffffff1673ffffffffffffffffffffffffffffffffffffffff1681526020019081526020015f205f82825461305491906149ad565b92505081905550817f5a31f5edca5237d41a024875db1596a0ffd609862996afb3af78403ff8122b4f826006015460405161308f9190613fcd565b60405180910390a25050565b6130a3613786565b6130ab61380d565b5f60075f8381526020019081526020015f209050806005015f9054906101000a900460ff1615613110576040517f08c379a000000000000000000000000000000000000000000000000000000000815260040161310790615c1d565b60405180910390fd5b6001816005015f6101000a81548160ff021916908315150217905550806001015f9054906101000a900473ffffffffffffffffffffffffffffffffffffffff1673ffffffffffffffffffffffffffffffffffffffff167f2d08cac1a8295df97293bb69a1cb4dc4898b354663f76ad363e185529e60f542838360020154846003015f9054906101000a900473ffffffffffffffffffffffffffffffffffffffff1685600401546040516131c69493929190615ac0565b60405180910390a2506131d76139a7565b50565b6131e2613786565b5f60115f6101000a81548160ff021916908315150217905550565b60115f9054906101000a900460ff1681565b61321761385c565b818160105f3373ffffffffffffffffffffffffffffffffffffffff1673ffffffffffffffffffffffffffffffffffffffff1681526020019081526020015f209182613263929190615807565b505050565b6010602052805f5260405f205f91509050805461328490614a6d565b80601f01602080910402602001604051908101604052809291908181526020018280546132b090614a6d565b80156132fb5780601f106132d2576101008083540402835291602001916132fb565b820191905f5260205f20905b8154815290600101906020018083116132de57829003601f168201915b505050505081565b61330b613786565b5f73ffffffffffffffffffffffffffffffffffffffff168173ffffffffffffffffffffffffffffffffffffffff1603613379576040517f08c379a000000000000000000000000000000000000000000000000000000000815260040161337090615c85565b60405180910390fd5b80600d5f6101000a81548173ffffffffffffffffffffffffffffffffffffffff021916908373ffffffffffffffffffffffffffffffffffffffff1602179055508073ffffffffffffffffffffffffffffffffffffffff167f5e1c00e9ff18e7e450a492928f1eed7cde32fff1be56c68201eea3d503241a2660405160405180910390a250565b600c5f9054906101000a900473ffffffffffffffffffffffffffffffffffffffff1681565b61342c613786565b5f73ffffffffffffffffffffffffffffffffffffffff168173ffffffffffffffffffffffffffffffffffffffff160361349c575f6040517f1e4fbdf700000000000000000000000000000000000000000000000000000000815260040161349391906145bc565b60405180910390fd5b6134a581613a71565b50565b5f816020013560015f845f0160208101906134c391906148bf565b63ffffffff1663ffffffff1681526020019081526020015f2054149050919050565b5f5f60015f8463ffffffff1663ffffffff1681526020019081526020015f205490505f5f1b810361354d57826040517ff6ff4fb70000000000000000000000000000000000000000000000000000000081526004016135449190615ca3565b60405180910390fd5b80915050919050565b60015f885f01602081019061356b91906148bf565b63ffffffff1663ffffffff1681526020019081526020015f20548760200135146135ca576040517f08c379a00000000000000000000000000000000000000000000000000000000081526004016135c190615d06565b60405180910390fd5b5f5f86868101906135db9190613d12565b915091505f821180156135f057506004548211155b61362f576040517f08c379a000000000000000000000000000000000000000000000000000000000815260040161362690615d6e565b60405180910390fd5b5f60055f8481526020019081526020015f2090508060050160149054906101000a900460ff1615613695576040517f08c379a000000000000000000000000000000000000000000000000000000000815260040161368c90614b91565b60405180910390fd5b81816006015f8282546136a891906149ad565b925050819055508160085f836005015f9054906101000a900473ffffffffffffffffffffffffffffffffffffffff1673ffffffffffffffffffffffffffffffffffffffff1673ffffffffffffffffffffffffffffffffffffffff1681526020019081526020015f205f82825461371e91906149ad565b9250508190555089602001355f1c73ffffffffffffffffffffffffffffffffffffffff16837fe555da28bdb778f65d22794d88927ebaeca03f7de9d1b7d39245bc8fb5ca078a846040516137729190613fcd565b60405180910390a350505050505050505050565b61378e613b94565b73ffffffffffffffffffffffffffffffffffffffff166137ac61287b565b73ffffffffffffffffffffffffffffffffffffffff161461380b576137cf613b94565b6040517f118cdaa700000000000000000000000000000000000000000000000000000000815260040161380291906145bc565b60405180910390fd5b565b600260035403613852576040517f08c379a000000000000000000000000000000000000000000000000000000000815260040161384990615dd6565b60405180910390fd5b6002600381905550565b613864611dbf565b156138a4576040517f08c379a000000000000000000000000000000000000000000000000000000000815260040161389b90615e3e565b60405180910390fd5b565b613922848573ffffffffffffffffffffffffffffffffffffffff166323b872dd8686866040516024016138db93929190615e5c565b604051602081830303815290604052915060e01b6020820180517bffffffffffffffffffffffffffffffffffffffffffffffffffffffff8381831617835250505050613b9b565b50505050565b6139a2838473ffffffffffffffffffffffffffffffffffffffff1663a9059cbb858560405160240161395b929190615e91565b604051602081830303815290604052915060e01b6020820180517bffffffffffffffffffffffffffffffffffffffffffffffffffffffff8381831617835250505050613b9b565b505050565b6001600381905550565b8060015f8463ffffffff1663ffffffff1681526020019081526020015f20819055507f238399d427b947898edb290f5ff0f9109849b1c3ba196a42e35f00c50a54b98b8282604051613a04929190614b20565b60405180910390a15050565b613a18613c36565b5f60025f6101000a81548160ff0219169083151502179055507f5db9ee0a495bf2e6ff9c91a7834c1ba4fdd244a5e8aa4e537bd38aeae4b073aa613a5a613b94565b604051613a6791906145bc565b60405180910390a1565b5f5f5f9054906101000a900473ffffffffffffffffffffffffffffffffffffffff169050815f5f6101000a81548173ffffffffffffffffffffffffffffffffffffffff021916908373ffffffffffffffffffffffffffffffffffffffff1602179055508173ffffffffffffffffffffffffffffffffffffffff168173ffffffffffffffffffffffffffffffffffffffff167f8be0079c531659141344cd1fd0a4f28419497f9722a3daafe3b4186f6b6457e060405160405180910390a35050565b613b3a61385c565b600160025f6101000a81548160ff0219169083151502179055507f62e78cea01bee320cd4e420270b5ea74000d11b0c9f74754ebdbfc544b05a258613b7d613b94565b604051613b8a91906145bc565b60405180910390a1565b5f33905090565b5f5f60205f8451602086015f885af180613bba576040513d5f823e3d81fd5b3d92505f519150505f8214613bd3576001811415613bee565b5f8473ffffffffffffffffffffffffffffffffffffffff163b145b15613c3057836040517f5274afe7000000000000000000000000000000000000000000000000000000008152600401613c2791906145bc565b60405180910390fd5b50505050565b613c3e611dbf565b613c7d576040517f08c379a0000000000000000000000000000000000000000000000000000000008152600401613c7490615f02565b60405180910390fd5b565b604051806101000160405280606081526020015f815260200160608152602001606081526020015f81526020015f73ffffffffffffffffffffffffffffffffffffffff1681526020015f151581526020015f81525090565b5f5ffd5b5f5ffd5b5f819050919050565b613cf181613cdf565b8114613cfb575f5ffd5b50565b5f81359050613d0c81613ce8565b92915050565b5f5f60408385031215613d2857613d27613cd7565b5b5f613d3585828601613cfe565b9250506020613d4685828601613cfe565b9150509250929050565b5f81519050919050565b5f82825260208201905092915050565b5f819050602082019050919050565b5f81519050919050565b5f82825260208201905092915050565b8281835e5f83830152505050565b5f601f19601f8301169050919050565b5f613dbb82613d79565b613dc58185613d83565b9350613dd5818560208601613d93565b613dde81613da1565b840191505092915050565b613df281613cdf565b82525050565b5f73ffffffffffffffffffffffffffffffffffffffff82169050919050565b5f613e2182613df8565b9050919050565b613e3181613e17565b82525050565b5f8115159050919050565b613e4b81613e37565b82525050565b5f61010083015f8301518482035f860152613e6c8282613db1565b9150506020830151613e816020860182613de9565b5060408301518482036040860152613e998282613db1565b91505060608301518482036060860152613eb38282613db1565b9150506080830151613ec86080860182613de9565b5060a0830151613edb60a0860182613e28565b5060c0830151613eee60c0860182613e42565b5060e0830151613f0160e0860182613de9565b508091505092915050565b5f613f178383613e51565b905092915050565b5f602082019050919050565b5f613f3582613d50565b613f3f8185613d5a565b935083602082028501613f5185613d6a565b805f5b85811015613f8c5784840389528151613f6d8582613f0c565b9450613f7883613f1f565b925060208a01995050600181019050613f54565b50829750879550505050505092915050565b5f6020820190508181035f830152613fb68184613f2b565b905092915050565b613fc781613cdf565b82525050565b5f602082019050613fe05f830184613fbe565b92915050565b5f5ffd5b5f60608284031215613fff57613ffe613fe6565b5b81905092915050565b5f819050919050565b61401a81614008565b8114614024575f5ffd5b50565b5f8135905061403581614011565b92915050565b5f5ffd5b5f5ffd5b5f5ffd5b5f5f83601f84011261405c5761405b61403b565b5b8235905067ffffffffffffffff8111156140795761407861403f565b5b60208301915083600182028301111561409557614094614043565b5b9250929050565b6140a581613e17565b81146140af575f5ffd5b50565b5f813590506140c08161409c565b92915050565b5f5f5f5f5f5f5f60e0888a0312156140e1576140e0613cd7565b5b5f6140ee8a828b01613fea565b97505060606140ff8a828b01614027565b965050608088013567ffffffffffffffff8111156141205761411f613cdb565b5b61412c8a828b01614047565b955095505060a061413f8a828b016140b2565b93505060c088013567ffffffffffffffff8111156141605761415f613cdb565b5b61416c8a828b01614047565b925092505092959891949750929550565b5f6020828403121561419257614191613cd7565b5b5f61419f84828501613cfe565b91505092915050565b5f82825260208201905092915050565b5f6141c282613d79565b6141cc81856141a8565b93506141dc818560208601613d93565b6141e581613da1565b840191505092915050565b6141f981613e17565b82525050565b61420881613e37565b82525050565b5f610100820190508181035f830152614227818b6141b8565b9050614236602083018a613fbe565b818103604083015261424881896141b8565b9050818103606083015261425c81886141b8565b905061426b6080830187613fbe565b61427860a08301866141f0565b61428560c08301856141ff565b61429260e0830184613fbe565b9998505050505050505050565b5f67ffffffffffffffff82169050919050565b6142bb8161429f565b82525050565b5f6040820190506142d45f8301856142b2565b6142e160208301846142b2565b9392505050565b5f63ffffffff82169050919050565b614300816142e8565b811461430a575f5ffd5b50565b5f8135905061431b816142f7565b92915050565b5f5f6040838503121561433757614336613cd7565b5b5f6143448582860161430d565b9250506020614355858286016140b2565b9150509250929050565b5f6020828403121561437457614373613cd7565b5b5f614381848285016140b2565b91505092915050565b5f5f5f606084860312156143a1576143a0613cd7565b5b5f6143ae86828701613cfe565b93505060206143bf868287016140b2565b92505060406143d086828701613cfe565b9150509250925092565b5f60ff82169050919050565b6143ef816143da565b82525050565b5f6020820190506144085f8301846143e6565b92915050565b5f5f6040838503121561442457614423613cd7565b5b5f6144318582860161430d565b925050602061444285828601614027565b9150509250929050565b5f5f83601f8401126144615761446061403b565b5b8235905067ffffffffffffffff81111561447e5761447d61403f565b5b60208301915083600182028301111561449a57614499614043565b5b9250929050565b5f5f5f5f5f5f5f5f60a0898b0312156144bd576144bc613cd7565b5b5f89013567ffffffffffffffff8111156144da576144d9613cdb565b5b6144e68b828c0161444c565b985098505060206144f98b828c01613cfe565b965050604089013567ffffffffffffffff81111561451a57614519613cdb565b5b6145268b828c0161444c565b9550955050606089013567ffffffffffffffff81111561454957614548613cdb565b5b6145558b828c0161444c565b935093505060806145688b828c01613cfe565b9150509295985092959890939650565b5f60208201905061458b5f8301846141ff565b92915050565b5f602082840312156145a6576145a5613cd7565b5b5f6145b384828501614027565b91505092915050565b5f6020820190506145cf5f8301846141f0565b92915050565b5f819050919050565b5f6145f86145f36145ee84613df8565b6145d5565b613df8565b9050919050565b5f614609826145de565b9050919050565b5f61461a826145ff565b9050919050565b61462a81614610565b82525050565b5f6020820190506146435f830184614621565b92915050565b5f5f6040838503121561465f5761465e613cd7565b5b5f61466c858286016140b2565b925050602061467d85828601613cfe565b9150509250929050565b5f5f6040838503121561469d5761469c613cd7565b5b5f6146aa858286016140b2565b92505060206146bb858286016140b2565b9150509250929050565b5f6020820190506146d85f8301846142b2565b92915050565b5f5f5f5f60a085870312156146f6576146f5613cd7565b5b5f61470387828801613fea565b945050606085013567ffffffffffffffff81111561472457614723613cdb565b5b61473087828801614047565b93509350506080614743878288016140b2565b91505092959194509250565b61475881614008565b82525050565b5f6020820190506147715f83018461474f565b92915050565b5f5f5f5f5f5f5f5f5f60c08a8c03121561479457614793613cd7565b5b5f6147a18c828d01613cfe565b99505060208a013567ffffffffffffffff8111156147c2576147c1613cdb565b5b6147ce8c828d0161444c565b985098505060406147e18c828d01613cfe565b96505060608a013567ffffffffffffffff81111561480257614801613cdb565b5b61480e8c828d0161444c565b955095505060808a013567ffffffffffffffff81111561483157614830613cdb565b5b61483d8c828d0161444c565b935093505060a06148508c828d01613cfe565b9150509295985092959850929598565b5f60c0820190506148735f830189613fbe565b61488060208301886141f0565b61488d6040830187613fbe565b61489a60608301866141f0565b6148a76080830185613fbe565b6148b460a08301846141ff565b979650505050505050565b5f602082840312156148d4576148d3613cd7565b5b5f6148e18482850161430d565b91505092915050565b5f5f60208385031215614900576148ff613cd7565b5b5f83013567ffffffffffffffff81111561491d5761491c613cdb565b5b6149298582860161444c565b92509250509250929050565b5f6020820190508181035f83015261494d81846141b8565b905092915050565b5f6060828403121561496a57614969613cd7565b5b5f61497784828501613fea565b91505092915050565b7f4e487b71000000000000000000000000000000000000000000000000000000005f52601160045260245ffd5b5f6149b782613cdf565b91506149c283613cdf565b92508282019050808211156149da576149d9614980565b5b92915050565b5f6149ea82613cdf565b91506149f583613cdf565b9250828203905081811115614a0d57614a0c614980565b5b92915050565b7f4e487b71000000000000000000000000000000000000000000000000000000005f52604160045260245ffd5b7f4e487b71000000000000000000000000000000000000000000000000000000005f52602260045260245ffd5b5f6002820490506001821680614a8457607f821691505b602082108103614a9757614a96614a40565b5b50919050565b7f4e487b71000000000000000000000000000000000000000000000000000000005f52603260045260245ffd5b5f614ad482613cdf565b91507fffffffffffffffffffffffffffffffffffffffffffffffffffffffffffffffff8203614b0657614b05614980565b5b600182019050919050565b614b1a816142e8565b82525050565b5f604082019050614b335f830185614b11565b614b40602083018461474f565b9392505050565b7f43616d706169676e20656e6465640000000000000000000000000000000000005f82015250565b5f614b7b600e836141a8565b9150614b8682614b47565b602082019050919050565b5f6020820190508181035f830152614ba881614b6f565b9050919050565b7f4e6f206e617469766520636f696e2073656e74000000000000000000000000005f82015250565b5f614be36013836141a8565b9150614bee82614baf565b602082019050919050565b5f6020820190508181035f830152614c1081614bd7565b9050919050565b5f614c2182613cdf565b9150614c2c83613cdf565b9250828202614c3a81613cdf565b91508282048414831517614c5157614c50614980565b5b5092915050565b7f4e487b71000000000000000000000000000000000000000000000000000000005f52601260045260245ffd5b5f614c8f82613cdf565b9150614c9a83613cdf565b925082614caa57614ca9614c58565b5b828204905092915050565b5f81905092915050565b50565b5f614ccd5f83614cb5565b9150614cd882614cbf565b5f82019050919050565b5f614cec82614cc2565b9150819050919050565b7f466565207472616e73666572206661696c6564000000000000000000000000005f82015250565b5f614d2a6013836141a8565b9150614d3582614cf6565b602082019050919050565b5f6020820190508181035f830152614d5781614d1e565b9050919050565b7f5661756c74207472616e73666572206661696c656400000000000000000000005f82015250565b5f614d926015836141a8565b9150614d9d82614d5e565b602082019050919050565b5f6020820190508181035f830152614dbf81614d86565b9050919050565b7f546f6b656e206e6f7420737570706f72746564000000000000000000000000005f82015250565b5f614dfa6013836141a8565b9150614e0582614dc6565b602082019050919050565b5f6020820190508181035f830152614e2781614dee565b9050919050565b7f446f6e6174696f6e206d757374206265203e20300000000000000000000000005f82015250565b5f614e626014836141a8565b9150614e6d82614e2e565b602082019050919050565b5f6020820190508181035f830152614e8f81614e56565b9050919050565b5f819050815f5260205f209050919050565b5f6020601f8301049050919050565b5f82821b905092915050565b5f60088302614ef27fffffffffffffffffffffffffffffffffffffffffffffffffffffffffffffffff82614eb7565b614efc8683614eb7565b95508019841693508086168417925050509392505050565b5f614f2e614f29614f2484613cdf565b6145d5565b613cdf565b9050919050565b5f819050919050565b614f4783614f14565b614f5b614f5382614f35565b848454614ec3565b825550505050565b5f5f905090565b614f72614f63565b614f7d818484614f3e565b505050565b5b81811015614fa057614f955f82614f6a565b600181019050614f83565b5050565b601f821115614fe557614fb681614e96565b614fbf84614ea8565b81016020851015614fce578190505b614fe2614fda85614ea8565b830182614f82565b50505b505050565b5f82821c905092915050565b5f6150055f1984600802614fea565b1980831691505092915050565b5f61501d8383614ff6565b9150826002028217905092915050565b61503682613d79565b67ffffffffffffffff81111561504f5761504e614a13565b5b6150598254614a6d565b615064828285614fa4565b5f60209050601f831160018114615095575f8415615083578287015190505b61508d8582615012565b8655506150f4565b601f1984166150a386614e96565b5f5b828110156150ca578489015182556001820191506020850194506020810190506150a5565b868310156150e757848901516150e3601f891682614ff6565b8355505b6001600288020188555050505b505050505050565b7f46656520746f6f206869676800000000000000000000000000000000000000005f82015250565b5f615130600c836141a8565b915061513b826150fc565b602082019050919050565b5f6020820190508181035f83015261515d81615124565b9050919050565b7f50726963652066656564206e6f742073657420666f7220746f6b656e000000005f82015250565b5f615198601c836141a8565b91506151a382615164565b602082019050919050565b5f6020820190508181035f8301526151c58161518c565b9050919050565b5f69ffffffffffffffffffff82169050919050565b6151ea816151cc565b81146151f4575f5ffd5b50565b5f81519050615205816151e1565b92915050565b5f819050919050565b61521d8161520b565b8114615227575f5ffd5b50565b5f8151905061523881615214565b92915050565b5f8151905061524c81613ce8565b92915050565b5f5f5f5f5f60a0868803121561526b5761526a613cd7565b5b5f615278888289016151f7565b95505060206152898882890161522a565b945050604061529a8882890161523e565b93505060606152ab8882890161523e565b92505060806152bc888289016151f7565b9150509295509295909350565b7f496e76616c6964207072696365000000000000000000000000000000000000005f82015250565b5f6152fd600d836141a8565b9150615308826152c9565b602082019050919050565b5f6020820190508181035f83015261532a816152f1565b9050919050565b61533a816143da565b8114615344575f5ffd5b50565b5f8151905061535581615331565b92915050565b5f602082840312156153705761536f613cd7565b5b5f61537d84828501615347565b91505092915050565b5f8160011c9050919050565b5f5f8291508390505b60018511156153db578086048111156153b7576153b6614980565b5b60018516156153c65780820291505b80810290506153d485615386565b945061539b565b94509492505050565b5f826153f357600190506154ae565b81615400575f90506154ae565b816001811461541657600281146154205761544f565b60019150506154ae565b60ff84111561543257615431614980565b5b8360020a91508482111561544957615448614980565b5b506154ae565b5060208310610133831016604e8410600b84101617156154845782820a90508381111561547f5761547e614980565b5b6154ae565b6154918484846001615392565b925090508184048111156154a8576154a7614980565b5b81810290505b9392505050565b5f6154bf82613cdf565b91506154ca836143da565b92506154f77fffffffffffffffffffffffffffffffffffffffffffffffffffffffffffffffff84846153e4565b905092915050565b7f43616d706169676e20646f6573206e6f742065786973740000000000000000005f82015250565b5f6155336017836141a8565b915061553e826154ff565b602082019050919050565b5f6020820190508181035f83015261556081615527565b9050919050565b7f496e76616c6964206665652077616c6c657400000000000000000000000000005f82015250565b5f61559b6012836141a8565b91506155a682615567565b602082019050919050565b5f6020820190508181035f8301526155c88161558f565b9050919050565b7f496e76616c6964207072696365206665656420616464726573730000000000005f82015250565b5f615603601a836141a8565b915061560e826155cf565b602082019050919050565b5f6020820190508181035f830152615630816155f7565b9050919050565b7f5072696365206665656420616c72656164792073657420666f722074686973205f8201527f746f6b656e000000000000000000000000000000000000000000000000000000602082015250565b5f6156916025836141a8565b915061569c82615637565b604082019050919050565b5f6020820190508181035f8301526156be81615685565b9050919050565b7f4e617469766520636f696e2070726963652066656564206e6f742073657400005f82015250565b5f6156f9601e836141a8565b9150615704826156c5565b602082019050919050565b5f6020820190508181035f830152615726816156ed565b9050919050565b7f4f6e6c792063726561746f722063616e206564697400000000000000000000005f82015250565b5f6157616015836141a8565b915061576c8261572d565b602082019050919050565b5f6020820190508181035f83015261578e81615755565b9050919050565b7f43616e6e6f74206564697420656e6465642063616d706169676e0000000000005f82015250565b5f6157c9601a836141a8565b91506157d482615795565b602082019050919050565b5f6020820190508181035f8301526157f6816157bd565b9050919050565b5f82905092915050565b61581183836157fd565b67ffffffffffffffff81111561582a57615829614a13565b5b6158348254614a6d565b61583f828285614fa4565b5f601f83116001811461586c575f841561585a578287013590505b6158648582615012565b8655506158cb565b601f19841661587a86614e96565b5f5b828110156158a15784890135825560018201915060208501945060208101905061587c565b868310156158be57848901356158ba601f891682614ff6565b8355505b6001600288020188555050505b50505050505050565b7f4661696c656420746f2073656e64206e617469766520636f696e0000000000005f82015250565b5f615908601a836141a8565b9150615913826158d4565b602082019050919050565b5f6020820190508181035f830152615935816158fc565b9050919050565b7f546f6b656e206e6f7420737570706f7274656420666f722077697468647261775f8201527f616c000000000000000000000000000000000000000000000000000000000000602082015250565b5f6159966022836141a8565b91506159a18261593c565b604082019050919050565b5f6020820190508181035f8301526159c38161598a565b9050919050565b7f5769746864726177616c207265717565737473206172652070617573656400005f82015250565b5f6159fe601e836141a8565b9150615a09826159ca565b602082019050919050565b5f6020820190508181035f830152615a2b816159f2565b9050919050565b7f416d6f756e74206578636565647320776974686472617761626c652062616c615f8201527f6e63650000000000000000000000000000000000000000000000000000000000602082015250565b5f615a8c6023836141a8565b9150615a9782615a32565b604082019050919050565b5f6020820190508181035f830152615ab981615a80565b9050919050565b5f608082019050615ad35f830187613fbe565b615ae06020830186613fbe565b615aed60408301856141f0565b615afa6060830184613fbe565b95945050505050565b7f4f6e6c792063726561746f722063616e20656e642063616d706169676e0000005f82015250565b5f615b37601d836141a8565b9150615b4282615b03565b602082019050919050565b5f6020820190508181035f830152615b6481615b2b565b9050919050565b7f43616d706169676e20616c726561647920656e646564000000000000000000005f82015250565b5f615b9f6016836141a8565b9150615baa82615b6b565b602082019050919050565b5f6020820190508181035f830152615bcc81615b93565b9050919050565b7f416c72656164792070726f6365737365640000000000000000000000000000005f82015250565b5f615c076011836141a8565b9150615c1282615bd3565b602082019050919050565b5f6020820190508181035f830152615c3481615bfb565b9050919050565b7f496e76616c6964207661756c742077616c6c65740000000000000000000000005f82015250565b5f615c6f6014836141a8565b9150615c7a82615c3b565b602082019050919050565b5f6020820190508181035f830152615c9c81615c63565b9050919050565b5f602082019050615cb65f830184614b11565b92915050565b7f556e747275737465642073656e646572000000000000000000000000000000005f82015250565b5f615cf06010836141a8565b9150615cfb82615cbc565b602082019050919050565b5f6020820190508181035f830152615d1d81615ce4565b9050919050565b7f496e76616c69642063616d706169676e000000000000000000000000000000005f82015250565b5f615d586010836141a8565b9150615d6382615d24565b602082019050919050565b5f6020820190508181035f830152615d8581615d4c565b9050919050565b7f5265656e7472616e637947756172643a207265656e7472616e742063616c6c005f82015250565b5f615dc0601f836141a8565b9150615dcb82615d8c565b602082019050919050565b5f6020820190508181035f830152615ded81615db4565b9050919050565b7f5061757361626c653a20706175736564000000000000000000000000000000005f82015250565b5f615e286010836141a8565b9150615e3382615df4565b602082019050919050565b5f6020820190508181035f830152615e5581615e1c565b9050919050565b5f606082019050615e6f5f8301866141f0565b615e7c60208301856141f0565b615e896040830184613fbe565b949350505050565b5f604082019050615ea45f8301856141f0565b615eb16020830184613fbe565b9392505050565b7f5061757361626c653a206e6f74207061757365640000000000000000000000005f82015250565b5f615eec6014836141a8565b9150615ef782615eb8565b602082019050919050565b5f6020820190508181035f830152615f1981615ee0565b905091905056fea264697066735822122001d0a7ab59ba12cf9fea595698d28deadad55e5797b1779c7c2341cbf308242664736f6c634300081c0033",
			"opcodes": "PUSH1 0xA0 PUSH1 0x40 MSTORE CALLVALUE DUP1 ISZERO PUSH2 0xF JUMPI PUSH0 PUSH0 REVERT JUMPDEST POP PUSH1 0x40 MLOAD PUSH2 0x662E CODESIZE SUB DUP1 PUSH2 0x662E DUP4 CODECOPY DUP2 DUP2 ADD PUSH1 0x40 MSTORE DUP2 ADD SWAP1 PUSH2 0x31 SWAP2 SWAP1 PUSH2 0x4DE JUMP JUMPDEST DUP4 CALLER DUP2 DUP2 CALLER PUSH0 PUSH20 0xFFFFFFFFFFFFFFFFFFFFFFFFFFFFFFFFFFFFFFFF AND DUP2 PUSH20 0xFFFFFFFFFFFFFFFFFFFFFFFFFFFFFFFFFFFFFFFF AND SUB PUSH2 0xA6 JUMPI PUSH0 PUSH1 0x40 MLOAD PUSH32 0x1E4FBDF700000000000000000000000000000000000000000000000000000000 DUP2 MSTORE PUSH1 0x4 ADD PUSH2 0x9D SWAP2 SWAP1 PUSH2 0x551 JUMP JUMPDEST PUSH1 0x40 MLOAD DUP1 SWAP2 SUB SWAP1 REVERT JUMPDEST PUSH2 0xB5 DUP2 PUSH2 0x38C PUSH1 0x20 SHL PUSH1 0x20 SHR JUMP JUMPDEST POP DUP2 PUSH20 0xFFFFFFFFFFFFFFFFFFFFFFFFFFFFFFFFFFFFFFFF AND PUSH1 0x80 DUP2 PUSH20 0xFFFFFFFFFFFFFFFFFFFFFFFFFFFFFFFFFFFFFFFF AND DUP2 MSTORE POP POP PUSH0 PUSH20 0xFFFFFFFFFFFFFFFFFFFFFFFFFFFFFFFFFFFFFFFF AND DUP2 PUSH20 0xFFFFFFFFFFFFFFFFFFFFFFFFFFFFFFFFFFFFFFFF AND SUB PUSH2 0x14F JUMPI PUSH1 0x40 MLOAD PUSH32 0xB586360400000000000000000000000000000000000000000000000000000000 DUP2 MSTORE PUSH1 0x4 ADD PUSH1 0x40 MLOAD DUP1 SWAP2 SUB SWAP1 REVERT JUMPDEST PUSH1 0x80 MLOAD PUSH20 0xFFFFFFFFFFFFFFFFFFFFFFFFFFFFFFFFFFFFFFFF AND PUSH4 0xCA5EB5E1 DUP3 PUSH1 0x40 MLOAD DUP3 PUSH4 0xFFFFFFFF AND PUSH1 0xE0 SHL DUP2 MSTORE PUSH1 0x4 ADD PUSH2 0x18A SWAP2 SWAP1 PUSH2 0x551 JUMP JUMPDEST PUSH0 PUSH1 0x40 MLOAD DUP1 DUP4 SUB DUP2 PUSH0 DUP8 DUP1 EXTCODESIZE ISZERO DUP1 ISZERO PUSH2 0x1A1 JUMPI PUSH0 PUSH0 REVERT JUMPDEST POP GAS CALL ISZERO DUP1 ISZERO PUSH2 0x1B3 JUMPI RETURNDATASIZE PUSH0 PUSH0 RETURNDATACOPY RETURNDATASIZE PUSH0 REVERT JUMPDEST POP POP POP POP POP POP POP POP PUSH0 PUSH1 0x2 PUSH0 PUSH2 0x100 EXP DUP2 SLOAD DUP2 PUSH1 0xFF MUL NOT AND SWAP1 DUP4 ISZERO ISZERO MUL OR SWAP1 SSTORE POP PUSH1 0x1 PUSH1 0x3 DUP2 SWAP1 SSTORE POP PUSH0 PUSH20 0xFFFFFFFFFFFFFFFFFFFFFFFFFFFFFFFFFFFFFFFF AND DUP4 PUSH20 0xFFFFFFFFFFFFFFFFFFFFFFFFFFFFFFFFFFFFFFFF AND SUB PUSH2 0x24A JUMPI PUSH1 0x40 MLOAD PUSH32 0x8C379A000000000000000000000000000000000000000000000000000000000 DUP2 MSTORE PUSH1 0x4 ADD PUSH2 0x241 SWAP1 PUSH2 0x5C4 JUMP JUMPDEST PUSH1 0x40 MLOAD DUP1 SWAP2 SUB SWAP1 REVERT JUMPDEST PUSH0 PUSH20 0xFFFFFFFFFFFFFFFFFFFFFFFFFFFFFFFFFFFFFFFF AND DUP3 PUSH20 0xFFFFFFFFFFFFFFFFFFFFFFFFFFFFFFFFFFFFFFFF AND SUB PUSH2 0x2B8 JUMPI PUSH1 0x40 MLOAD PUSH32 0x8C379A000000000000000000000000000000000000000000000000000000000 DUP2 MSTORE PUSH1 0x4 ADD PUSH2 0x2AF SWAP1 PUSH2 0x62C JUMP JUMPDEST PUSH1 0x40 MLOAD DUP1 SWAP2 SUB SWAP1 REVERT JUMPDEST PUSH2 0x3E8 DUP2 LT PUSH2 0x2FC JUMPI PUSH1 0x40 MLOAD PUSH32 0x8C379A000000000000000000000000000000000000000000000000000000000 DUP2 MSTORE PUSH1 0x4 ADD PUSH2 0x2F3 SWAP1 PUSH2 0x694 JUMP JUMPDEST PUSH1 0x40 MLOAD DUP1 SWAP2 SUB SWAP1 REVERT JUMPDEST DUP3 PUSH1 0xC PUSH0 PUSH2 0x100 EXP DUP2 SLOAD DUP2 PUSH20 0xFFFFFFFFFFFFFFFFFFFFFFFFFFFFFFFFFFFFFFFF MUL NOT AND SWAP1 DUP4 PUSH20 0xFFFFFFFFFFFFFFFFFFFFFFFFFFFFFFFFFFFFFFFF AND MUL OR SWAP1 SSTORE POP DUP2 PUSH1 0xD PUSH0 PUSH2 0x100 EXP DUP2 SLOAD DUP2 PUSH20 0xFFFFFFFFFFFFFFFFFFFFFFFFFFFFFFFFFFFFFFFF MUL NOT AND SWAP1 DUP4 PUSH20 0xFFFFFFFFFFFFFFFFFFFFFFFFFFFFFFFFFFFFFFFF AND MUL OR SWAP1 SSTORE POP DUP1 PUSH1 0xE DUP2 SWAP1 SSTORE POP POP POP POP POP PUSH2 0x6B2 JUMP JUMPDEST PUSH0 PUSH0 PUSH0 SWAP1 SLOAD SWAP1 PUSH2 0x100 EXP SWAP1 DIV PUSH20 0xFFFFFFFFFFFFFFFFFFFFFFFFFFFFFFFFFFFFFFFF AND SWAP1 POP DUP2 PUSH0 PUSH0 PUSH2 0x100 EXP DUP2 SLOAD DUP2 PUSH20 0xFFFFFFFFFFFFFFFFFFFFFFFFFFFFFFFFFFFFFFFF MUL NOT AND SWAP1 DUP4 PUSH20 0xFFFFFFFFFFFFFFFFFFFFFFFFFFFFFFFFFFFFFFFF AND MUL OR SWAP1 SSTORE POP DUP2 PUSH20 0xFFFFFFFFFFFFFFFFFFFFFFFFFFFFFFFFFFFFFFFF AND DUP2 PUSH20 0xFFFFFFFFFFFFFFFFFFFFFFFFFFFFFFFFFFFFFFFF AND PUSH32 0x8BE0079C531659141344CD1FD0A4F28419497F9722A3DAAFE3B4186F6B6457E0 PUSH1 0x40 MLOAD PUSH1 0x40 MLOAD DUP1 SWAP2 SUB SWAP1 LOG3 POP POP JUMP JUMPDEST PUSH0 PUSH0 REVERT JUMPDEST PUSH0 PUSH20 0xFFFFFFFFFFFFFFFFFFFFFFFFFFFFFFFFFFFFFFFF DUP3 AND SWAP1 POP SWAP2 SWAP1 POP JUMP JUMPDEST PUSH0 PUSH2 0x47A DUP3 PUSH2 0x451 JUMP JUMPDEST SWAP1 POP SWAP2 SWAP1 POP JUMP JUMPDEST PUSH2 0x48A DUP2 PUSH2 0x470 JUMP JUMPDEST DUP2 EQ PUSH2 0x494 JUMPI PUSH0 PUSH0 REVERT JUMPDEST POP JUMP JUMPDEST PUSH0 DUP2 MLOAD SWAP1 POP PUSH2 0x4A5 DUP2 PUSH2 0x481 JUMP JUMPDEST SWAP3 SWAP2 POP POP JUMP JUMPDEST PUSH0 DUP2 SWAP1 POP SWAP2 SWAP1 POP JUMP JUMPDEST PUSH2 0x4BD DUP2 PUSH2 0x4AB JUMP JUMPDEST DUP2 EQ PUSH2 0x4C7 JUMPI PUSH0 PUSH0 REVERT JUMPDEST POP JUMP JUMPDEST PUSH0 DUP2 MLOAD SWAP1 POP PUSH2 0x4D8 DUP2 PUSH2 0x4B4 JUMP JUMPDEST SWAP3 SWAP2 POP POP JUMP JUMPDEST PUSH0 PUSH0 PUSH0 PUSH0 PUSH1 0x80 DUP6 DUP8 SUB SLT ISZERO PUSH2 0x4F6 JUMPI PUSH2 0x4F5 PUSH2 0x44D JUMP JUMPDEST JUMPDEST PUSH0 PUSH2 0x503 DUP8 DUP3 DUP9 ADD PUSH2 0x497 JUMP JUMPDEST SWAP5 POP POP PUSH1 0x20 PUSH2 0x514 DUP8 DUP3 DUP9 ADD PUSH2 0x497 JUMP JUMPDEST SWAP4 POP POP PUSH1 0x40 PUSH2 0x525 DUP8 DUP3 DUP9 ADD PUSH2 0x497 JUMP JUMPDEST SWAP3 POP POP PUSH1 0x60 PUSH2 0x536 DUP8 DUP3 DUP9 ADD PUSH2 0x4CA JUMP JUMPDEST SWAP2 POP POP SWAP3 SWAP6 SWAP2 SWAP5 POP SWAP3 POP JUMP JUMPDEST PUSH2 0x54B DUP2 PUSH2 0x470 JUMP JUMPDEST DUP3 MSTORE POP POP JUMP JUMPDEST PUSH0 PUSH1 0x20 DUP3 ADD SWAP1 POP PUSH2 0x564 PUSH0 DUP4 ADD DUP5 PUSH2 0x542 JUMP JUMPDEST SWAP3 SWAP2 POP POP JUMP JUMPDEST PUSH0 DUP3 DUP3 MSTORE PUSH1 0x20 DUP3 ADD SWAP1 POP SWAP3 SWAP2 POP POP JUMP JUMPDEST PUSH32 0x496E76616C6964206665652077616C6C65740000000000000000000000000000 PUSH0 DUP3 ADD MSTORE POP JUMP JUMPDEST PUSH0 PUSH2 0x5AE PUSH1 0x12 DUP4 PUSH2 0x56A JUMP JUMPDEST SWAP2 POP PUSH2 0x5B9 DUP3 PUSH2 0x57A JUMP JUMPDEST PUSH1 0x20 DUP3 ADD SWAP1 POP SWAP2 SWAP1 POP JUMP JUMPDEST PUSH0 PUSH1 0x20 DUP3 ADD SWAP1 POP DUP2 DUP2 SUB PUSH0 DUP4 ADD MSTORE PUSH2 0x5DB DUP2 PUSH2 0x5A2 JUMP JUMPDEST SWAP1 POP SWAP2 SWAP1 POP JUMP JUMPDEST PUSH32 0x496E76616C6964207661756C742077616C6C6574000000000000000000000000 PUSH0 DUP3 ADD MSTORE POP JUMP JUMPDEST PUSH0 PUSH2 0x616 PUSH1 0x14 DUP4 PUSH2 0x56A JUMP JUMPDEST SWAP2 POP PUSH2 0x621 DUP3 PUSH2 0x5E2 JUMP JUMPDEST PUSH1 0x20 DUP3 ADD SWAP1 POP SWAP2 SWAP1 POP JUMP JUMPDEST PUSH0 PUSH1 0x20 DUP3 ADD SWAP1 POP DUP2 DUP2 SUB PUSH0 DUP4 ADD MSTORE PUSH2 0x643 DUP2 PUSH2 0x60A JUMP JUMPDEST SWAP1 POP SWAP2 SWAP1 POP JUMP JUMPDEST PUSH32 0x46656520746F6F20686967680000000000000000000000000000000000000000 PUSH0 DUP3 ADD MSTORE POP JUMP JUMPDEST PUSH0 PUSH2 0x67E PUSH1 0xC DUP4 PUSH2 0x56A JUMP JUMPDEST SWAP2 POP PUSH2 0x689 DUP3 PUSH2 0x64A JUMP JUMPDEST PUSH1 0x20 DUP3 ADD SWAP1 POP SWAP2 SWAP1 POP JUMP JUMPDEST PUSH0 PUSH1 0x20 DUP3 ADD SWAP1 POP DUP2 DUP2 SUB PUSH0 DUP4 ADD MSTORE PUSH2 0x6AB DUP2 PUSH2 0x672 JUMP JUMPDEST SWAP1 POP SWAP2 SWAP1 POP JUMP JUMPDEST PUSH1 0x80 MLOAD PUSH2 0x5F56 PUSH2 0x6D8 PUSH0 CODECOPY PUSH0 DUP2 DUP2 PUSH2 0xFA5 ADD MSTORE DUP2 DUP2 PUSH2 0x1DE1 ADD MSTORE PUSH2 0x2A70 ADD MSTORE PUSH2 0x5F56 PUSH0 RETURN INVALID PUSH1 0x80 PUSH1 0x40 MSTORE PUSH1 0x4 CALLDATASIZE LT PUSH2 0x302 JUMPI PUSH0 CALLDATALOAD PUSH1 0xE0 SHR DUP1 PUSH4 0x76E11286 GT PUSH2 0x18F JUMPI DUP1 PUSH4 0xBB0B6A53 GT PUSH2 0xDB JUMPI DUP1 PUSH4 0xE9F2838E GT PUSH2 0x94 JUMPI DUP1 PUSH4 0xEFD71EB0 GT PUSH2 0x6E JUMPI DUP1 PUSH4 0xEFD71EB0 EQ PUSH2 0xB6C JUMPI DUP1 PUSH4 0xF25F4B56 EQ PUSH2 0xB94 JUMPI DUP1 PUSH4 0xF2FDE38B EQ PUSH2 0xBBE JUMPI DUP1 PUSH4 0xFF7BD03D EQ PUSH2 0xBE6 JUMPI PUSH2 0x309 JUMP JUMPDEST DUP1 PUSH4 0xE9F2838E EQ PUSH2 0xADE JUMPI DUP1 PUSH4 0xED59313A EQ PUSH2 0xB08 JUMPI DUP1 PUSH4 0xEE91877C EQ PUSH2 0xB30 JUMPI PUSH2 0x309 JUMP JUMPDEST DUP1 PUSH4 0xBB0B6A53 EQ PUSH2 0x9EC JUMPI DUP1 PUSH4 0xCA5EB5E1 EQ PUSH2 0xA28 JUMPI DUP1 PUSH4 0xCB30B054 EQ PUSH2 0xA50 JUMPI DUP1 PUSH4 0xDD0408AE EQ PUSH2 0xA78 JUMPI DUP1 PUSH4 0xE06D97BA EQ PUSH2 0xAA0 JUMPI DUP1 PUSH4 0xE4C4BE58 EQ PUSH2 0xAC8 JUMPI PUSH2 0x309 JUMP JUMPDEST DUP1 PUSH4 0x82C947B7 GT PUSH2 0x148 JUMPI DUP1 PUSH4 0x8DA5CB5B GT PUSH2 0x122 JUMPI DUP1 PUSH4 0x8DA5CB5B EQ PUSH2 0x92F JUMPI DUP1 PUSH4 0x937B2581 EQ PUSH2 0x959 JUMPI DUP1 PUSH4 0xB72952EE EQ PUSH2 0x99A JUMPI DUP1 PUSH4 0xB8606EEF EQ PUSH2 0x9C2 JUMPI PUSH2 0x309 JUMP JUMPDEST DUP1 PUSH4 0x82C947B7 EQ PUSH2 0x8B5 JUMPI DUP1 PUSH4 0x8456CB59 EQ PUSH2 0x8F1 JUMPI DUP1 PUSH4 0x87E0081F EQ PUSH2 0x907 JUMPI PUSH2 0x309 JUMP JUMPDEST DUP1 PUSH4 0x76E11286 EQ PUSH2 0x761 JUMPI DUP1 PUSH4 0x7D25A05E EQ PUSH2 0x789 JUMPI DUP1 PUSH4 0x8078F22C EQ PUSH2 0x7C5 JUMPI DUP1 PUSH4 0x80F568AD EQ PUSH2 0x801 JUMPI DUP1 PUSH4 0x821A3E67 EQ PUSH2 0x83D JUMPI DUP1 PUSH4 0x82413EAC EQ PUSH2 0x879 JUMPI PUSH2 0x309 JUMP JUMPDEST DUP1 PUSH4 0x3F1B5461 GT PUSH2 0x24E JUMPI DUP1 PUSH4 0x5E280F11 GT PUSH2 0x207 JUMPI DUP1 PUSH4 0x61F1C5BA GT PUSH2 0x1E1 JUMPI DUP1 PUSH4 0x61F1C5BA EQ PUSH2 0x6CF JUMPI DUP1 PUSH4 0x66718524 EQ PUSH2 0x6F9 JUMPI DUP1 PUSH4 0x715018A6 EQ PUSH2 0x721 JUMPI DUP1 PUSH4 0x7274E30D EQ PUSH2 0x737 JUMPI PUSH2 0x309 JUMP JUMPDEST DUP1 PUSH4 0x5E280F11 EQ PUSH2 0x641 JUMPI DUP1 PUSH4 0x5E96DA62 EQ PUSH2 0x66B JUMPI DUP1 PUSH4 0x6060F33B EQ PUSH2 0x6A7 JUMPI PUSH2 0x309 JUMP JUMPDEST DUP1 PUSH4 0x3F1B5461 EQ PUSH2 0x55F JUMPI DUP1 PUSH4 0x3F4BA83A EQ PUSH2 0x587 JUMPI DUP1 PUSH4 0x56BB54A7 EQ PUSH2 0x59D JUMPI DUP1 PUSH4 0x57802C7D EQ PUSH2 0x5B3 JUMPI DUP1 PUSH4 0x5C975ABB EQ PUSH2 0x5DB JUMPI DUP1 PUSH4 0x5CED058E EQ PUSH2 0x605 JUMPI PUSH2 0x309 JUMP JUMPDEST DUP1 PUSH4 0x177FFE9A GT PUSH2 0x2BB JUMPI DUP1 PUSH4 0x25FB2680 GT PUSH2 0x295 JUMPI DUP1 PUSH4 0x25FB2680 EQ PUSH2 0x4B5 JUMPI DUP1 PUSH4 0x2752D6B0 EQ PUSH2 0x4D1 JUMPI DUP1 PUSH4 0x2F6EE695 EQ PUSH2 0x50D JUMPI DUP1 PUSH4 0x3400288B EQ PUSH2 0x537 JUMPI PUSH2 0x309 JUMP JUMPDEST DUP1 PUSH4 0x177FFE9A EQ PUSH2 0x427 JUMPI DUP1 PUSH4 0x19E44E32 EQ PUSH2 0x44F JUMPI DUP1 PUSH4 0x1B6C1CC2 EQ PUSH2 0x479 JUMPI PUSH2 0x309 JUMP JUMPDEST DUP1 PUSH4 0x9051566 EQ PUSH2 0x30D JUMPI DUP1 PUSH4 0x126082CF EQ PUSH2 0x349 JUMPI DUP1 PUSH4 0x13137D65 EQ PUSH2 0x373 JUMPI DUP1 PUSH4 0x141961BC EQ PUSH2 0x38F JUMPI DUP1 PUSH4 0x165DD5D4 EQ PUSH2 0x3D2 JUMPI DUP1 PUSH4 0x17442B70 EQ PUSH2 0x3FC JUMPI PUSH2 0x309 JUMP JUMPDEST CALLDATASIZE PUSH2 0x309 JUMPI STOP JUMPDEST PUSH0 PUSH0 REVERT JUMPDEST CALLVALUE DUP1 ISZERO PUSH2 0x318 JUMPI PUSH0 PUSH0 REVERT JUMPDEST POP PUSH2 0x333 PUSH1 0x4 DUP1 CALLDATASIZE SUB DUP2 ADD SWAP1 PUSH2 0x32E SWAP2 SWAP1 PUSH2 0x3D12 JUMP JUMPDEST PUSH2 0xC22 JUMP JUMPDEST PUSH1 0x40 MLOAD PUSH2 0x340 SWAP2 SWAP1 PUSH2 0x3F9E JUMP JUMPDEST PUSH1 0x40 MLOAD DUP1 SWAP2 SUB SWAP1 RETURN JUMPDEST CALLVALUE DUP1 ISZERO PUSH2 0x354 JUMPI PUSH0 PUSH0 REVERT JUMPDEST POP PUSH2 0x35D PUSH2 0xF86 JUMP JUMPDEST PUSH1 0x40 MLOAD PUSH2 0x36A SWAP2 SWAP1 PUSH2 0x3FCD JUMP JUMPDEST PUSH1 0x40 MLOAD DUP1 SWAP2 SUB SWAP1 RETURN JUMPDEST PUSH2 0x38D PUSH1 0x4 DUP1 CALLDATASIZE SUB DUP2 ADD SWAP1 PUSH2 0x388 SWAP2 SWAP1 PUSH2 0x40C6 JUMP JUMPDEST PUSH2 0xF8C JUMP JUMPDEST STOP JUMPDEST CALLVALUE DUP1 ISZERO PUSH2 0x39A JUMPI PUSH0 PUSH0 REVERT JUMPDEST POP PUSH2 0x3B5 PUSH1 0x4 DUP1 CALLDATASIZE SUB DUP2 ADD SWAP1 PUSH2 0x3B0 SWAP2 SWAP1 PUSH2 0x417D JUMP JUMPDEST PUSH2 0x10AC JUMP JUMPDEST PUSH1 0x40 MLOAD PUSH2 0x3C9 SWAP9 SWAP8 SWAP7 SWAP6 SWAP5 SWAP4 SWAP3 SWAP2 SWAP1 PUSH2 0x420E JUMP JUMPDEST PUSH1 0x40 MLOAD DUP1 SWAP2 SUB SWAP1 RETURN JUMPDEST CALLVALUE DUP1 ISZERO PUSH2 0x3DD JUMPI PUSH0 PUSH0 REVERT JUMPDEST POP PUSH2 0x3E6 PUSH2 0x12AE JUMP JUMPDEST PUSH1 0x40 MLOAD PUSH2 0x3F3 SWAP2 SWAP1 PUSH2 0x3FCD JUMP JUMPDEST PUSH1 0x40 MLOAD DUP1 SWAP2 SUB SWAP1 RETURN JUMPDEST CALLVALUE DUP1 ISZERO PUSH2 0x407 JUMPI PUSH0 PUSH0 REVERT JUMPDEST POP PUSH2 0x410 PUSH2 0x12B4 JUMP JUMPDEST PUSH1 0x40 MLOAD PUSH2 0x41E SWAP3 SWAP2 SWAP1 PUSH2 0x42C1 JUMP JUMPDEST PUSH1 0x40 MLOAD DUP1 SWAP2 SUB SWAP1 RETURN JUMPDEST CALLVALUE DUP1 ISZERO PUSH2 0x432 JUMPI PUSH0 PUSH0 REVERT JUMPDEST POP PUSH2 0x44D PUSH1 0x4 DUP1 CALLDATASIZE SUB DUP2 ADD SWAP1 PUSH2 0x448 SWAP2 SWAP1 PUSH2 0x4321 JUMP JUMPDEST PUSH2 0x12C2 JUMP JUMPDEST STOP JUMPDEST CALLVALUE DUP1 ISZERO PUSH2 0x45A JUMPI PUSH0 PUSH0 REVERT JUMPDEST POP PUSH2 0x463 PUSH2 0x1346 JUMP JUMPDEST PUSH1 0x40 MLOAD PUSH2 0x470 SWAP2 SWAP1 PUSH2 0x3FCD JUMP JUMPDEST PUSH1 0x40 MLOAD DUP1 SWAP2 SUB SWAP1 RETURN JUMPDEST CALLVALUE DUP1 ISZERO PUSH2 0x484 JUMPI PUSH0 PUSH0 REVERT JUMPDEST POP PUSH2 0x49F PUSH1 0x4 DUP1 CALLDATASIZE SUB DUP2 ADD SWAP1 PUSH2 0x49A SWAP2 SWAP1 PUSH2 0x435F JUMP JUMPDEST PUSH2 0x134C JUMP JUMPDEST PUSH1 0x40 MLOAD PUSH2 0x4AC SWAP2 SWAP1 PUSH2 0x3FCD JUMP JUMPDEST PUSH1 0x40 MLOAD DUP1 SWAP2 SUB SWAP1 RETURN JUMPDEST PUSH2 0x4CF PUSH1 0x4 DUP1 CALLDATASIZE SUB DUP2 ADD SWAP1 PUSH2 0x4CA SWAP2 SWAP1 PUSH2 0x438A JUMP JUMPDEST PUSH2 0x1361 JUMP JUMPDEST STOP JUMPDEST CALLVALUE DUP1 ISZERO PUSH2 0x4DC JUMPI PUSH0 PUSH0 REVERT JUMPDEST POP PUSH2 0x4F7 PUSH1 0x4 DUP1 CALLDATASIZE SUB DUP2 ADD SWAP1 PUSH2 0x4F2 SWAP2 SWAP1 PUSH2 0x435F JUMP JUMPDEST PUSH2 0x1A68 JUMP JUMPDEST PUSH1 0x40 MLOAD PUSH2 0x504 SWAP2 SWAP1 PUSH2 0x3FCD JUMP JUMPDEST PUSH1 0x40 MLOAD DUP1 SWAP2 SUB SWAP1 RETURN JUMPDEST CALLVALUE DUP1 ISZERO PUSH2 0x518 JUMPI PUSH0 PUSH0 REVERT JUMPDEST POP PUSH2 0x521 PUSH2 0x1A7D JUMP JUMPDEST PUSH1 0x40 MLOAD PUSH2 0x52E SWAP2 SWAP1 PUSH2 0x43F5 JUMP JUMPDEST PUSH1 0x40 MLOAD DUP1 SWAP2 SUB SWAP1 RETURN JUMPDEST CALLVALUE DUP1 ISZERO PUSH2 0x542 JUMPI PUSH0 PUSH0 REVERT JUMPDEST POP PUSH2 0x55D PUSH1 0x4 DUP1 CALLDATASIZE SUB DUP2 ADD SWAP1 PUSH2 0x558 SWAP2 SWAP1 PUSH2 0x440E JUMP JUMPDEST PUSH2 0x1A82 JUMP JUMPDEST STOP JUMPDEST CALLVALUE DUP1 ISZERO PUSH2 0x56A JUMPI PUSH0 PUSH0 REVERT JUMPDEST POP PUSH2 0x585 PUSH1 0x4 DUP1 CALLDATASIZE SUB DUP2 ADD SWAP1 PUSH2 0x580 SWAP2 SWAP1 PUSH2 0x44A1 JUMP JUMPDEST PUSH2 0x1A98 JUMP JUMPDEST STOP JUMPDEST CALLVALUE DUP1 ISZERO PUSH2 0x592 JUMPI PUSH0 PUSH0 REVERT JUMPDEST POP PUSH2 0x59B PUSH2 0x1CFC JUMP JUMPDEST STOP JUMPDEST CALLVALUE DUP1 ISZERO PUSH2 0x5A8 JUMPI PUSH0 PUSH0 REVERT JUMPDEST POP PUSH2 0x5B1 PUSH2 0x1D0E JUMP JUMPDEST STOP JUMPDEST CALLVALUE DUP1 ISZERO PUSH2 0x5BE JUMPI PUSH0 PUSH0 REVERT JUMPDEST POP PUSH2 0x5D9 PUSH1 0x4 DUP1 CALLDATASIZE SUB DUP2 ADD SWAP1 PUSH2 0x5D4 SWAP2 SWAP1 PUSH2 0x417D JUMP JUMPDEST PUSH2 0x1D32 JUMP JUMPDEST STOP JUMPDEST CALLVALUE DUP1 ISZERO PUSH2 0x5E6 JUMPI PUSH0 PUSH0 REVERT JUMPDEST POP PUSH2 0x5EF PUSH2 0x1DBF JUMP JUMPDEST PUSH1 0x40 MLOAD PUSH2 0x5FC SWAP2 SWAP1 PUSH2 0x4578 JUMP JUMPDEST PUSH1 0x40 MLOAD DUP1 SWAP2 SUB SWAP1 RETURN JUMPDEST CALLVALUE DUP1 ISZERO PUSH2 0x610 JUMPI PUSH0 PUSH0 REVERT JUMPDEST POP PUSH2 0x62B PUSH1 0x4 DUP1 CALLDATASIZE SUB DUP2 ADD SWAP1 PUSH2 0x626 SWAP2 SWAP1 PUSH2 0x4591 JUMP JUMPDEST PUSH2 0x1DD4 JUMP JUMPDEST PUSH1 0x40 MLOAD PUSH2 0x638 SWAP2 SWAP1 PUSH2 0x45BC JUMP JUMPDEST PUSH1 0x40 MLOAD DUP1 SWAP2 SUB SWAP1 RETURN JUMPDEST CALLVALUE DUP1 ISZERO PUSH2 0x64C JUMPI PUSH0 PUSH0 REVERT JUMPDEST POP PUSH2 0x655 PUSH2 0x1DDF JUMP JUMPDEST PUSH1 0x40 MLOAD PUSH2 0x662 SWAP2 SWAP1 PUSH2 0x4630 JUMP JUMPDEST PUSH1 0x40 MLOAD DUP1 SWAP2 SUB SWAP1 RETURN JUMPDEST CALLVALUE DUP1 ISZERO PUSH2 0x676 JUMPI PUSH0 PUSH0 REVERT JUMPDEST POP PUSH2 0x691 PUSH1 0x4 DUP1 CALLDATASIZE SUB DUP2 ADD SWAP1 PUSH2 0x68C SWAP2 SWAP1 PUSH2 0x4649 JUMP JUMPDEST PUSH2 0x1E03 JUMP JUMPDEST PUSH1 0x40 MLOAD PUSH2 0x69E SWAP2 SWAP1 PUSH2 0x3FCD JUMP JUMPDEST PUSH1 0x40 MLOAD DUP1 SWAP2 SUB SWAP1 RETURN JUMPDEST CALLVALUE DUP1 ISZERO PUSH2 0x6B2 JUMPI PUSH0 PUSH0 REVERT JUMPDEST POP PUSH2 0x6CD PUSH1 0x4 DUP1 CALLDATASIZE SUB DUP2 ADD SWAP1 PUSH2 0x6C8 SWAP2 SWAP1 PUSH2 0x417D JUMP JUMPDEST PUSH2 0x202B JUMP JUMPDEST STOP JUMPDEST CALLVALUE DUP1 ISZERO PUSH2 0x6DA JUMPI PUSH0 PUSH0 REVERT JUMPDEST POP PUSH2 0x6E3 PUSH2 0x210B JUMP JUMPDEST PUSH1 0x40 MLOAD PUSH2 0x6F0 SWAP2 SWAP1 PUSH2 0x45BC JUMP JUMPDEST PUSH1 0x40 MLOAD DUP1 SWAP2 SUB SWAP1 RETURN JUMPDEST CALLVALUE DUP1 ISZERO PUSH2 0x704 JUMPI PUSH0 PUSH0 REVERT JUMPDEST POP PUSH2 0x71F PUSH1 0x4 DUP1 CALLDATASIZE SUB DUP2 ADD SWAP1 PUSH2 0x71A SWAP2 SWAP1 PUSH2 0x435F JUMP JUMPDEST PUSH2 0x2130 JUMP JUMPDEST STOP JUMPDEST CALLVALUE DUP1 ISZERO PUSH2 0x72C JUMPI PUSH0 PUSH0 REVERT JUMPDEST POP PUSH2 0x735 PUSH2 0x222C JUMP JUMPDEST STOP JUMPDEST CALLVALUE DUP1 ISZERO PUSH2 0x742 JUMPI PUSH0 PUSH0 REVERT JUMPDEST POP PUSH2 0x74B PUSH2 0x223F JUMP JUMPDEST PUSH1 0x40 MLOAD PUSH2 0x758 SWAP2 SWAP1 PUSH2 0x3FCD JUMP JUMPDEST PUSH1 0x40 MLOAD DUP1 SWAP2 SUB SWAP1 RETURN JUMPDEST CALLVALUE DUP1 ISZERO PUSH2 0x76C JUMPI PUSH0 PUSH0 REVERT JUMPDEST POP PUSH2 0x787 PUSH1 0x4 DUP1 CALLDATASIZE SUB DUP2 ADD SWAP1 PUSH2 0x782 SWAP2 SWAP1 PUSH2 0x4687 JUMP JUMPDEST PUSH2 0x2245 JUMP JUMPDEST STOP JUMPDEST CALLVALUE DUP1 ISZERO PUSH2 0x794 JUMPI PUSH0 PUSH0 REVERT JUMPDEST POP PUSH2 0x7AF PUSH1 0x4 DUP1 CALLDATASIZE SUB DUP2 ADD SWAP1 PUSH2 0x7AA SWAP2 SWAP1 PUSH2 0x440E JUMP JUMPDEST PUSH2 0x2452 JUMP JUMPDEST PUSH1 0x40 MLOAD PUSH2 0x7BC SWAP2 SWAP1 PUSH2 0x46C5 JUMP JUMPDEST PUSH1 0x40 MLOAD DUP1 SWAP2 SUB SWAP1 RETURN JUMPDEST CALLVALUE DUP1 ISZERO PUSH2 0x7D0 JUMPI PUSH0 PUSH0 REVERT JUMPDEST POP PUSH2 0x7EB PUSH1 0x4 DUP1 CALLDATASIZE SUB DUP2 ADD SWAP1 PUSH2 0x7E6 SWAP2 SWAP1 PUSH2 0x435F JUMP JUMPDEST PUSH2 0x245C JUMP JUMPDEST PUSH1 0x40 MLOAD PUSH2 0x7F8 SWAP2 SWAP1 PUSH2 0x45BC JUMP JUMPDEST PUSH1 0x40 MLOAD DUP1 SWAP2 SUB SWAP1 RETURN JUMPDEST CALLVALUE DUP1 ISZERO PUSH2 0x80C JUMPI PUSH0 PUSH0 REVERT JUMPDEST POP PUSH2 0x827 PUSH1 0x4 DUP1 CALLDATASIZE SUB DUP2 ADD SWAP1 PUSH2 0x822 SWAP2 SWAP1 PUSH2 0x417D JUMP JUMPDEST PUSH2 0x248C JUMP JUMPDEST PUSH1 0x40 MLOAD PUSH2 0x834 SWAP2 SWAP1 PUSH2 0x3FCD JUMP JUMPDEST PUSH1 0x40 MLOAD DUP1 SWAP2 SUB SWAP1 RETURN JUMPDEST CALLVALUE DUP1 ISZERO PUSH2 0x848 JUMPI PUSH0 PUSH0 REVERT JUMPDEST POP PUSH2 0x863 PUSH1 0x4 DUP1 CALLDATASIZE SUB DUP2 ADD SWAP1 PUSH2 0x85E SWAP2 SWAP1 PUSH2 0x435F JUMP JUMPDEST PUSH2 0x263E JUMP JUMPDEST PUSH1 0x40 MLOAD PUSH2 0x870 SWAP2 SWAP1 PUSH2 0x3FCD JUMP JUMPDEST PUSH1 0x40 MLOAD DUP1 SWAP2 SUB SWAP1 RETURN JUMPDEST CALLVALUE DUP1 ISZERO PUSH2 0x884 JUMPI PUSH0 PUSH0 REVERT JUMPDEST POP PUSH2 0x89F PUSH1 0x4 DUP1 CALLDATASIZE SUB DUP2 ADD SWAP1 PUSH2 0x89A SWAP2 SWAP1 PUSH2 0x46DE JUMP JUMPDEST PUSH2 0x2653 JUMP JUMPDEST PUSH1 0x40 MLOAD PUSH2 0x8AC SWAP2 SWAP1 PUSH2 0x4578 JUMP JUMPDEST PUSH1 0x40 MLOAD DUP1 SWAP2 SUB SWAP1 RETURN JUMPDEST CALLVALUE DUP1 ISZERO PUSH2 0x8C0 JUMPI PUSH0 PUSH0 REVERT JUMPDEST POP PUSH2 0x8DB PUSH1 0x4 DUP1 CALLDATASIZE SUB DUP2 ADD SWAP1 PUSH2 0x8D6 SWAP2 SWAP1 PUSH2 0x435F JUMP JUMPDEST PUSH2 0x268D JUMP JUMPDEST PUSH1 0x40 MLOAD PUSH2 0x8E8 SWAP2 SWAP1 PUSH2 0x475E JUMP JUMPDEST PUSH1 0x40 MLOAD DUP1 SWAP2 SUB SWAP1 RETURN JUMPDEST CALLVALUE DUP1 ISZERO PUSH2 0x8FC JUMPI PUSH0 PUSH0 REVERT JUMPDEST POP PUSH2 0x905 PUSH2 0x26AE JUMP JUMPDEST STOP JUMPDEST CALLVALUE DUP1 ISZERO PUSH2 0x912 JUMPI PUSH0 PUSH0 REVERT JUMPDEST POP PUSH2 0x92D PUSH1 0x4 DUP1 CALLDATASIZE SUB DUP2 ADD SWAP1 PUSH2 0x928 SWAP2 SWAP1 PUSH2 0x4777 JUMP JUMPDEST PUSH2 0x26C0 JUMP JUMPDEST STOP JUMPDEST CALLVALUE DUP1 ISZERO PUSH2 0x93A JUMPI PUSH0 PUSH0 REVERT JUMPDEST POP PUSH2 0x943 PUSH2 0x287B JUMP JUMPDEST PUSH1 0x40 MLOAD PUSH2 0x950 SWAP2 SWAP1 PUSH2 0x45BC JUMP JUMPDEST PUSH1 0x40 MLOAD DUP1 SWAP2 SUB SWAP1 RETURN JUMPDEST CALLVALUE DUP1 ISZERO PUSH2 0x964 JUMPI PUSH0 PUSH0 REVERT JUMPDEST POP PUSH2 0x97F PUSH1 0x4 DUP1 CALLDATASIZE SUB DUP2 ADD SWAP1 PUSH2 0x97A SWAP2 SWAP1 PUSH2 0x417D JUMP JUMPDEST PUSH2 0x28A2 JUMP JUMPDEST PUSH1 0x40 MLOAD PUSH2 0x991 SWAP7 SWAP6 SWAP5 SWAP4 SWAP3 SWAP2 SWAP1 PUSH2 0x4860 JUMP JUMPDEST PUSH1 0x40 MLOAD DUP1 SWAP2 SUB SWAP1 RETURN JUMPDEST CALLVALUE DUP1 ISZERO PUSH2 0x9A5 JUMPI PUSH0 PUSH0 REVERT JUMPDEST POP PUSH2 0x9C0 PUSH1 0x4 DUP1 CALLDATASIZE SUB DUP2 ADD SWAP1 PUSH2 0x9BB SWAP2 SWAP1 PUSH2 0x4649 JUMP JUMPDEST PUSH2 0x2924 JUMP JUMPDEST STOP JUMPDEST CALLVALUE DUP1 ISZERO PUSH2 0x9CD JUMPI PUSH0 PUSH0 REVERT JUMPDEST POP PUSH2 0x9D6 PUSH2 0x2A4B JUMP JUMPDEST PUSH1 0x40 MLOAD PUSH2 0x9E3 SWAP2 SWAP1 PUSH2 0x3FCD JUMP JUMPDEST PUSH1 0x40 MLOAD DUP1 SWAP2 SUB SWAP1 RETURN JUMPDEST CALLVALUE DUP1 ISZERO PUSH2 0x9F7 JUMPI PUSH0 PUSH0 REVERT JUMPDEST POP PUSH2 0xA12 PUSH1 0x4 DUP1 CALLDATASIZE SUB DUP2 ADD SWAP1 PUSH2 0xA0D SWAP2 SWAP1 PUSH2 0x48BF JUMP JUMPDEST PUSH2 0x2A51 JUMP JUMPDEST PUSH1 0x40 MLOAD PUSH2 0xA1F SWAP2 SWAP1 PUSH2 0x475E JUMP JUMPDEST PUSH1 0x40 MLOAD DUP1 SWAP2 SUB SWAP1 RETURN JUMPDEST CALLVALUE DUP1 ISZERO PUSH2 0xA33 JUMPI PUSH0 PUSH0 REVERT JUMPDEST POP PUSH2 0xA4E PUSH1 0x4 DUP1 CALLDATASIZE SUB DUP2 ADD SWAP1 PUSH2 0xA49 SWAP2 SWAP1 PUSH2 0x435F JUMP JUMPDEST PUSH2 0x2A66 JUMP JUMPDEST STOP JUMPDEST CALLVALUE DUP1 ISZERO PUSH2 0xA5B JUMPI PUSH0 PUSH0 REVERT JUMPDEST POP PUSH2 0xA76 PUSH1 0x4 DUP1 CALLDATASIZE SUB DUP2 ADD SWAP1 PUSH2 0xA71 SWAP2 SWAP1 PUSH2 0x438A JUMP JUMPDEST PUSH2 0x2AF7 JUMP JUMPDEST STOP JUMPDEST CALLVALUE DUP1 ISZERO PUSH2 0xA83 JUMPI PUSH0 PUSH0 REVERT JUMPDEST POP PUSH2 0xA9E PUSH1 0x4 DUP1 CALLDATASIZE SUB DUP2 ADD SWAP1 PUSH2 0xA99 SWAP2 SWAP1 PUSH2 0x417D JUMP JUMPDEST PUSH2 0x2EC5 JUMP JUMPDEST STOP JUMPDEST CALLVALUE DUP1 ISZERO PUSH2 0xAAB JUMPI PUSH0 PUSH0 REVERT JUMPDEST POP PUSH2 0xAC6 PUSH1 0x4 DUP1 CALLDATASIZE SUB DUP2 ADD SWAP1 PUSH2 0xAC1 SWAP2 SWAP1 PUSH2 0x417D JUMP JUMPDEST PUSH2 0x309B JUMP JUMPDEST STOP JUMPDEST CALLVALUE DUP1 ISZERO PUSH2 0xAD3 JUMPI PUSH0 PUSH0 REVERT JUMPDEST POP PUSH2 0xADC PUSH2 0x31DA JUMP JUMPDEST STOP JUMPDEST CALLVALUE DUP1 ISZERO PUSH2 0xAE9 JUMPI PUSH0 PUSH0 REVERT JUMPDEST POP PUSH2 0xAF2 PUSH2 0x31FD JUMP JUMPDEST PUSH1 0x40 MLOAD PUSH2 0xAFF SWAP2 SWAP1 PUSH2 0x4578 JUMP JUMPDEST PUSH1 0x40 MLOAD DUP1 SWAP2 SUB SWAP1 RETURN JUMPDEST CALLVALUE DUP1 ISZERO PUSH2 0xB13 JUMPI PUSH0 PUSH0 REVERT JUMPDEST POP PUSH2 0xB2E PUSH1 0x4 DUP1 CALLDATASIZE SUB DUP2 ADD SWAP1 PUSH2 0xB29 SWAP2 SWAP1 PUSH2 0x48EA JUMP JUMPDEST PUSH2 0x320F JUMP JUMPDEST STOP JUMPDEST CALLVALUE DUP1 ISZERO PUSH2 0xB3B JUMPI PUSH0 PUSH0 REVERT JUMPDEST POP PUSH2 0xB56 PUSH1 0x4 DUP1 CALLDATASIZE SUB DUP2 ADD SWAP1 PUSH2 0xB51 SWAP2 SWAP1 PUSH2 0x435F JUMP JUMPDEST PUSH2 0x3268 JUMP JUMPDEST PUSH1 0x40 MLOAD PUSH2 0xB63 SWAP2 SWAP1 PUSH2 0x4935 JUMP JUMPDEST PUSH1 0x40 MLOAD DUP1 SWAP2 SUB SWAP1 RETURN JUMPDEST CALLVALUE DUP1 ISZERO PUSH2 0xB77 JUMPI PUSH0 PUSH0 REVERT JUMPDEST POP PUSH2 0xB92 PUSH1 0x4 DUP1 CALLDATASIZE SUB DUP2 ADD SWAP1 PUSH2 0xB8D SWAP2 SWAP1 PUSH2 0x435F JUMP JUMPDEST PUSH2 0x3303 JUMP JUMPDEST STOP JUMPDEST CALLVALUE DUP1 ISZERO PUSH2 0xB9F JUMPI PUSH0 PUSH0 REVERT JUMPDEST POP PUSH2 0xBA8 PUSH2 0x33FF JUMP JUMPDEST PUSH1 0x40 MLOAD PUSH2 0xBB5 SWAP2 SWAP1 PUSH2 0x45BC JUMP JUMPDEST PUSH1 0x40 MLOAD DUP1 SWAP2 SUB SWAP1 RETURN JUMPDEST CALLVALUE DUP1 ISZERO PUSH2 0xBC9 JUMPI PUSH0 PUSH0 REVERT JUMPDEST POP PUSH2 0xBE4 PUSH1 0x4 DUP1 CALLDATASIZE SUB DUP2 ADD SWAP1 PUSH2 0xBDF SWAP2 SWAP1 PUSH2 0x435F JUMP JUMPDEST PUSH2 0x3424 JUMP JUMPDEST STOP JUMPDEST CALLVALUE DUP1 ISZERO PUSH2 0xBF1 JUMPI PUSH0 PUSH0 REVERT JUMPDEST POP PUSH2 0xC0C PUSH1 0x4 DUP1 CALLDATASIZE SUB DUP2 ADD SWAP1 PUSH2 0xC07 SWAP2 SWAP1 PUSH2 0x4955 JUMP JUMPDEST PUSH2 0x34A8 JUMP JUMPDEST PUSH1 0x40 MLOAD PUSH2 0xC19 SWAP2 SWAP1 PUSH2 0x4578 JUMP JUMPDEST PUSH1 0x40 MLOAD DUP1 SWAP2 SUB SWAP1 RETURN JUMPDEST PUSH1 0x60 PUSH1 0x1 DUP4 LT ISZERO PUSH2 0xC32 JUMPI PUSH1 0x1 SWAP3 POP JUMPDEST PUSH0 PUSH1 0x1 DUP4 DUP6 PUSH2 0xC41 SWAP2 SWAP1 PUSH2 0x49AD JUMP JUMPDEST PUSH2 0xC4B SWAP2 SWAP1 PUSH2 0x49E0 JUMP JUMPDEST SWAP1 POP PUSH1 0x4 SLOAD DUP2 GT ISZERO PUSH2 0xC5D JUMPI PUSH1 0x4 SLOAD SWAP1 POP JUMPDEST PUSH0 PUSH1 0x1 DUP6 DUP4 PUSH2 0xC6C SWAP2 SWAP1 PUSH2 0x49E0 JUMP JUMPDEST PUSH2 0xC76 SWAP2 SWAP1 PUSH2 0x49AD JUMP JUMPDEST SWAP1 POP PUSH0 DUP2 PUSH8 0xFFFFFFFFFFFFFFFF DUP2 GT ISZERO PUSH2 0xC93 JUMPI PUSH2 0xC92 PUSH2 0x4A13 JUMP JUMPDEST JUMPDEST PUSH1 0x40 MLOAD SWAP1 DUP1 DUP3 MSTORE DUP1 PUSH1 0x20 MUL PUSH1 0x20 ADD DUP3 ADD PUSH1 0x40 MSTORE DUP1 ISZERO PUSH2 0xCCC JUMPI DUP2 PUSH1 0x20 ADD JUMPDEST PUSH2 0xCB9 PUSH2 0x3C7F JUMP JUMPDEST DUP2 MSTORE PUSH1 0x20 ADD SWAP1 PUSH1 0x1 SWAP1 SUB SWAP1 DUP2 PUSH2 0xCB1 JUMPI SWAP1 POP JUMPDEST POP SWAP1 POP PUSH0 PUSH0 SWAP1 POP PUSH0 DUP8 SWAP1 POP JUMPDEST DUP5 DUP2 GT PUSH2 0xF78 JUMPI PUSH1 0x5 PUSH0 DUP3 DUP2 MSTORE PUSH1 0x20 ADD SWAP1 DUP2 MSTORE PUSH1 0x20 ADD PUSH0 KECCAK256 PUSH1 0x40 MLOAD DUP1 PUSH2 0x100 ADD PUSH1 0x40 MSTORE SWAP1 DUP2 PUSH0 DUP3 ADD DUP1 SLOAD PUSH2 0xD0B SWAP1 PUSH2 0x4A6D JUMP JUMPDEST DUP1 PUSH1 0x1F ADD PUSH1 0x20 DUP1 SWAP2 DIV MUL PUSH1 0x20 ADD PUSH1 0x40 MLOAD SWAP1 DUP2 ADD PUSH1 0x40 MSTORE DUP1 SWAP3 SWAP2 SWAP1 DUP2 DUP2 MSTORE PUSH1 0x20 ADD DUP3 DUP1 SLOAD PUSH2 0xD37 SWAP1 PUSH2 0x4A6D JUMP JUMPDEST DUP1 ISZERO PUSH2 0xD82 JUMPI DUP1 PUSH1 0x1F LT PUSH2 0xD59 JUMPI PUSH2 0x100 DUP1 DUP4 SLOAD DIV MUL DUP4 MSTORE SWAP2 PUSH1 0x20 ADD SWAP2 PUSH2 0xD82 JUMP JUMPDEST DUP3 ADD SWAP2 SWAP1 PUSH0 MSTORE PUSH1 0x20 PUSH0 KECCAK256 SWAP1 JUMPDEST DUP2 SLOAD DUP2 MSTORE SWAP1 PUSH1 0x1 ADD SWAP1 PUSH1 0x20 ADD DUP1 DUP4 GT PUSH2 0xD65 JUMPI DUP3 SWAP1 SUB PUSH1 0x1F AND DUP3 ADD SWAP2 JUMPDEST POP POP POP POP POP DUP2 MSTORE PUSH1 0x20 ADD PUSH1 0x1 DUP3 ADD SLOAD DUP2 MSTORE PUSH1 0x20 ADD PUSH1 0x2 DUP3 ADD DUP1 SLOAD PUSH2 0xDA5 SWAP1 PUSH2 0x4A6D JUMP JUMPDEST DUP1 PUSH1 0x1F ADD PUSH1 0x20 DUP1 SWAP2 DIV MUL PUSH1 0x20 ADD PUSH1 0x40 MLOAD SWAP1 DUP2 ADD PUSH1 0x40 MSTORE DUP1 SWAP3 SWAP2 SWAP1 DUP2 DUP2 MSTORE PUSH1 0x20 ADD DUP3 DUP1 SLOAD PUSH2 0xDD1 SWAP1 PUSH2 0x4A6D JUMP JUMPDEST DUP1 ISZERO PUSH2 0xE1C JUMPI DUP1 PUSH1 0x1F LT PUSH2 0xDF3 JUMPI PUSH2 0x100 DUP1 DUP4 SLOAD DIV MUL DUP4 MSTORE SWAP2 PUSH1 0x20 ADD SWAP2 PUSH2 0xE1C JUMP JUMPDEST DUP3 ADD SWAP2 SWAP1 PUSH0 MSTORE PUSH1 0x20 PUSH0 KECCAK256 SWAP1 JUMPDEST DUP2 SLOAD DUP2 MSTORE SWAP1 PUSH1 0x1 ADD SWAP1 PUSH1 0x20 ADD DUP1 DUP4 GT PUSH2 0xDFF JUMPI DUP3 SWAP1 SUB PUSH1 0x1F AND DUP3 ADD SWAP2 JUMPDEST POP POP POP POP POP DUP2 MSTORE PUSH1 0x20 ADD PUSH1 0x3 DUP3 ADD DUP1 SLOAD PUSH2 0xE35 SWAP1 PUSH2 0x4A6D JUMP JUMPDEST DUP1 PUSH1 0x1F ADD PUSH1 0x20 DUP1 SWAP2 DIV MUL PUSH1 0x20 ADD PUSH1 0x40 MLOAD SWAP1 DUP2 ADD PUSH1 0x40 MSTORE DUP1 SWAP3 SWAP2 SWAP1 DUP2 DUP2 MSTORE PUSH1 0x20 ADD DUP3 DUP1 SLOAD PUSH2 0xE61 SWAP1 PUSH2 0x4A6D JUMP JUMPDEST DUP1 ISZERO PUSH2 0xEAC JUMPI DUP1 PUSH1 0x1F LT PUSH2 0xE83 JUMPI PUSH2 0x100 DUP1 DUP4 SLOAD DIV MUL DUP4 MSTORE SWAP2 PUSH1 0x20 ADD SWAP2 PUSH2 0xEAC JUMP JUMPDEST DUP3 ADD SWAP2 SWAP1 PUSH0 MSTORE PUSH1 0x20 PUSH0 KECCAK256 SWAP1 JUMPDEST DUP2 SLOAD DUP2 MSTORE SWAP1 PUSH1 0x1 ADD SWAP1 PUSH1 0x20 ADD DUP1 DUP4 GT PUSH2 0xE8F JUMPI DUP3 SWAP1 SUB PUSH1 0x1F AND DUP3 ADD SWAP2 JUMPDEST POP POP POP POP POP DUP2 MSTORE PUSH1 0x20 ADD PUSH1 0x4 DUP3 ADD SLOAD DUP2 MSTORE PUSH1 0x20 ADD PUSH1 0x5 DUP3 ADD PUSH0 SWAP1 SLOAD SWAP1 PUSH2 0x100 EXP SWAP1 DIV PUSH20 0xFFFFFFFFFFFFFFFFFFFFFFFFFFFFFFFFFFFFFFFF AND PUSH20 0xFFFFFFFFFFFFFFFFFFFFFFFFFFFFFFFFFFFFFFFF AND PUSH20 0xFFFFFFFFFFFFFFFFFFFFFFFFFFFFFFFFFFFFFFFF AND DUP2 MSTORE PUSH1 0x20 ADD PUSH1 0x5 DUP3 ADD PUSH1 0x14 SWAP1 SLOAD SWAP1 PUSH2 0x100 EXP SWAP1 DIV PUSH1 0xFF AND ISZERO ISZERO ISZERO ISZERO DUP2 MSTORE PUSH1 0x20 ADD PUSH1 0x6 DUP3 ADD SLOAD DUP2 MSTORE POP POP DUP4 DUP4 DUP2 MLOAD DUP2 LT PUSH2 0xF4C JUMPI PUSH2 0xF4B PUSH2 0x4A9D JUMP JUMPDEST JUMPDEST PUSH1 0x20 MUL PUSH1 0x20 ADD ADD DUP2 SWAP1 MSTORE POP DUP2 DUP1 PUSH2 0xF62 SWAP1 PUSH2 0x4ACA JUMP JUMPDEST SWAP3 POP POP DUP1 DUP1 PUSH2 0xF70 SWAP1 PUSH2 0x4ACA JUMP JUMPDEST SWAP2 POP POP PUSH2 0xCD8 JUMP JUMPDEST POP DUP2 SWAP5 POP POP POP POP POP SWAP3 SWAP2 POP POP JUMP JUMPDEST PUSH2 0x3E8 DUP2 JUMP JUMPDEST CALLER PUSH20 0xFFFFFFFFFFFFFFFFFFFFFFFFFFFFFFFFFFFFFFFF AND PUSH32 0x0 PUSH20 0xFFFFFFFFFFFFFFFFFFFFFFFFFFFFFFFFFFFFFFFF AND EQ PUSH2 0x101C JUMPI CALLER PUSH1 0x40 MLOAD PUSH32 0x91AC5E4F00000000000000000000000000000000000000000000000000000000 DUP2 MSTORE PUSH1 0x4 ADD PUSH2 0x1013 SWAP2 SWAP1 PUSH2 0x45BC JUMP JUMPDEST PUSH1 0x40 MLOAD DUP1 SWAP2 SUB SWAP1 REVERT JUMPDEST DUP7 PUSH1 0x20 ADD CALLDATALOAD PUSH2 0x103B DUP9 PUSH0 ADD PUSH1 0x20 DUP2 ADD SWAP1 PUSH2 0x1036 SWAP2 SWAP1 PUSH2 0x48BF JUMP JUMPDEST PUSH2 0x34E5 JUMP JUMPDEST EQ PUSH2 0x1094 JUMPI DUP7 PUSH0 ADD PUSH1 0x20 DUP2 ADD SWAP1 PUSH2 0x1052 SWAP2 SWAP1 PUSH2 0x48BF JUMP JUMPDEST DUP8 PUSH1 0x20 ADD CALLDATALOAD PUSH1 0x40 MLOAD PUSH32 0xC26BEBCC00000000000000000000000000000000000000000000000000000000 DUP2 MSTORE PUSH1 0x4 ADD PUSH2 0x108B SWAP3 SWAP2 SWAP1 PUSH2 0x4B20 JUMP JUMPDEST PUSH1 0x40 MLOAD DUP1 SWAP2 SUB SWAP1 REVERT JUMPDEST PUSH2 0x10A3 DUP8 DUP8 DUP8 DUP8 DUP8 DUP8 DUP8 PUSH2 0x3556 JUMP JUMPDEST POP POP POP POP POP POP POP JUMP JUMPDEST PUSH1 0x5 PUSH1 0x20 MSTORE DUP1 PUSH0 MSTORE PUSH1 0x40 PUSH0 KECCAK256 PUSH0 SWAP2 POP SWAP1 POP DUP1 PUSH0 ADD DUP1 SLOAD PUSH2 0x10CB SWAP1 PUSH2 0x4A6D JUMP JUMPDEST DUP1 PUSH1 0x1F ADD PUSH1 0x20 DUP1 SWAP2 DIV MUL PUSH1 0x20 ADD PUSH1 0x40 MLOAD SWAP1 DUP2 ADD PUSH1 0x40 MSTORE DUP1 SWAP3 SWAP2 SWAP1 DUP2 DUP2 MSTORE PUSH1 0x20 ADD DUP3 DUP1 SLOAD PUSH2 0x10F7 SWAP1 PUSH2 0x4A6D JUMP JUMPDEST DUP1 ISZERO PUSH2 0x1142 JUMPI DUP1 PUSH1 0x1F LT PUSH2 0x1119 JUMPI PUSH2 0x100 DUP1 DUP4 SLOAD DIV MUL DUP4 MSTORE SWAP2 PUSH1 0x20 ADD SWAP2 PUSH2 0x1142 JUMP JUMPDEST DUP3 ADD SWAP2 SWAP1 PUSH0 MSTORE PUSH1 0x20 PUSH0 KECCAK256 SWAP1 JUMPDEST DUP2 SLOAD DUP2 MSTORE SWAP1 PUSH1 0x1 ADD SWAP1 PUSH1 0x20 ADD DUP1 DUP4 GT PUSH2 0x1125 JUMPI DUP3 SWAP1 SUB PUSH1 0x1F AND DUP3 ADD SWAP2 JUMPDEST POP POP POP POP POP SWAP1 DUP1 PUSH1 0x1 ADD SLOAD SWAP1 DUP1 PUSH1 0x2 ADD DUP1 SLOAD PUSH2 0x115D SWAP1 PUSH2 0x4A6D JUMP JUMPDEST DUP1 PUSH1 0x1F ADD PUSH1 0x20 DUP1 SWAP2 DIV MUL PUSH1 0x20 ADD PUSH1 0x40 MLOAD SWAP1 DUP2 ADD PUSH1 0x40 MSTORE DUP1 SWAP3 SWAP2 SWAP1 DUP2 DUP2 MSTORE PUSH1 0x20 ADD DUP3 DUP1 SLOAD PUSH2 0x1189 SWAP1 PUSH2 0x4A6D JUMP JUMPDEST DUP1 ISZERO PUSH2 0x11D4 JUMPI DUP1 PUSH1 0x1F LT PUSH2 0x11AB JUMPI PUSH2 0x100 DUP1 DUP4 SLOAD DIV MUL DUP4 MSTORE SWAP2 PUSH1 0x20 ADD SWAP2 PUSH2 0x11D4 JUMP JUMPDEST DUP3 ADD SWAP2 SWAP1 PUSH0 MSTORE PUSH1 0x20 PUSH0 KECCAK256 SWAP1 JUMPDEST DUP2 SLOAD DUP2 MSTORE SWAP1 PUSH1 0x1 ADD SWAP1 PUSH1 0x20 ADD DUP1 DUP4 GT PUSH2 0x11B7 JUMPI DUP3 SWAP1 SUB PUSH1 0x1F AND DUP3 ADD SWAP2 JUMPDEST POP POP POP POP POP SWAP1 DUP1 PUSH1 0x3 ADD DUP1 SLOAD PUSH2 0x11E9 SWAP1 PUSH2 0x4A6D JUMP JUMPDEST DUP1 PUSH1 0x1F ADD PUSH1 0x20 DUP1 SWAP2 DIV MUL PUSH1 0x20 ADD PUSH1 0x40 MLOAD SWAP1 DUP2 ADD PUSH1 0x40 MSTORE DUP1 SWAP3 SWAP2 SWAP1 DUP2 DUP2 MSTORE PUSH1 0x20 ADD DUP3 DUP1 SLOAD PUSH2 0x1215 SWAP1 PUSH2 0x4A6D JUMP JUMPDEST DUP1 ISZERO PUSH2 0x1260 JUMPI DUP1 PUSH1 0x1F LT PUSH2 0x1237 JUMPI PUSH2 0x100 DUP1 DUP4 SLOAD DIV MUL DUP4 MSTORE SWAP2 PUSH1 0x20 ADD SWAP2 PUSH2 0x1260 JUMP JUMPDEST DUP3 ADD SWAP2 SWAP1 PUSH0 MSTORE PUSH1 0x20 PUSH0 KECCAK256 SWAP1 JUMPDEST DUP2 SLOAD DUP2 MSTORE SWAP1 PUSH1 0x1 ADD SWAP1 PUSH1 0x20 ADD DUP1 DUP4 GT PUSH2 0x1243 JUMPI DUP3 SWAP1 SUB PUSH1 0x1F AND DUP3 ADD SWAP2 JUMPDEST POP POP POP POP POP SWAP1 DUP1 PUSH1 0x4 ADD SLOAD SWAP1 DUP1 PUSH1 0x5 ADD PUSH0 SWAP1 SLOAD SWAP1 PUSH2 0x100 EXP SWAP1 DIV PUSH20 0xFFFFFFFFFFFFFFFFFFFFFFFFFFFFFFFFFFFFFFFF AND SWAP1 DUP1 PUSH1 0x5 ADD PUSH1 0x14 SWAP1 SLOAD SWAP1 PUSH2 0x100 EXP SWAP1 DIV PUSH1 0xFF AND SWAP1 DUP1 PUSH1 0x6 ADD SLOAD SWAP1 POP DUP9 JUMP JUMPDEST PUSH1 0xF SLOAD DUP2 JUMP JUMPDEST PUSH0 PUSH0 PUSH1 0x1 PUSH1 0x2 SWAP2 POP SWAP2 POP SWAP1 SWAP2 JUMP JUMPDEST PUSH2 0x12CA PUSH2 0x3786 JUMP JUMPDEST PUSH0 DUP2 PUSH20 0xFFFFFFFFFFFFFFFFFFFFFFFFFFFFFFFFFFFFFFFF AND PUSH0 SHL SWAP1 POP DUP1 PUSH1 0x1 PUSH0 DUP6 PUSH4 0xFFFFFFFF AND PUSH4 0xFFFFFFFF AND DUP2 MSTORE PUSH1 0x20 ADD SWAP1 DUP2 MSTORE PUSH1 0x20 ADD PUSH0 KECCAK256 DUP2 SWAP1 SSTORE POP PUSH32 0x238399D427B947898EDB290F5FF0F9109849B1C3BA196A42E35F00C50A54B98B DUP4 DUP3 PUSH1 0x40 MLOAD PUSH2 0x1339 SWAP3 SWAP2 SWAP1 PUSH2 0x4B20 JUMP JUMPDEST PUSH1 0x40 MLOAD DUP1 SWAP2 SUB SWAP1 LOG1 POP POP POP JUMP JUMPDEST PUSH1 0x6 SLOAD DUP2 JUMP JUMPDEST PUSH1 0xA PUSH1 0x20 MSTORE DUP1 PUSH0 MSTORE PUSH1 0x40 PUSH0 KECCAK256 PUSH0 SWAP2 POP SWAP1 POP SLOAD DUP2 JUMP JUMPDEST PUSH2 0x1369 PUSH2 0x380D JUMP JUMPDEST PUSH2 0x1371 PUSH2 0x385C JUMP JUMPDEST PUSH0 PUSH1 0x5 PUSH0 DUP6 DUP2 MSTORE PUSH1 0x20 ADD SWAP1 DUP2 MSTORE PUSH1 0x20 ADD PUSH0 KECCAK256 SWAP1 POP DUP1 PUSH1 0x5 ADD PUSH1 0x14 SWAP1 SLOAD SWAP1 PUSH2 0x100 EXP SWAP1 DIV PUSH1 0xFF AND ISZERO PUSH2 0x13D7 JUMPI PUSH1 0x40 MLOAD PUSH32 0x8C379A000000000000000000000000000000000000000000000000000000000 DUP2 MSTORE PUSH1 0x4 ADD PUSH2 0x13CE SWAP1 PUSH2 0x4B91 JUMP JUMPDEST PUSH1 0x40 MLOAD DUP1 SWAP2 SUB SWAP1 REVERT JUMPDEST PUSH0 PUSH0 PUSH20 0xFFFFFFFFFFFFFFFFFFFFFFFFFFFFFFFFFFFFFFFF AND DUP5 PUSH20 0xFFFFFFFFFFFFFFFFFFFFFFFFFFFFFFFFFFFFFFFF AND SUB PUSH2 0x173E JUMPI PUSH0 CALLVALUE GT PUSH2 0x144D JUMPI PUSH1 0x40 MLOAD PUSH32 0x8C379A000000000000000000000000000000000000000000000000000000000 DUP2 MSTORE PUSH1 0x4 ADD PUSH2 0x1444 SWAP1 PUSH2 0x4BF9 JUMP JUMPDEST PUSH1 0x40 MLOAD DUP1 SWAP2 SUB SWAP1 REVERT JUMPDEST PUSH2 0x1456 CALLVALUE PUSH2 0x248C JUMP JUMPDEST SWAP1 POP PUSH0 PUSH2 0x3E8 PUSH1 0xE SLOAD DUP4 PUSH2 0x146A SWAP2 SWAP1 PUSH2 0x4C17 JUMP JUMPDEST PUSH2 0x1474 SWAP2 SWAP1 PUSH2 0x4C85 JUMP JUMPDEST SWAP1 POP PUSH0 DUP2 DUP4 PUSH2 0x1483 SWAP2 SWAP1 PUSH2 0x49E0 JUMP JUMPDEST SWAP1 POP PUSH0 PUSH1 0xC PUSH0 SWAP1 SLOAD SWAP1 PUSH2 0x100 EXP SWAP1 DIV PUSH20 0xFFFFFFFFFFFFFFFFFFFFFFFFFFFFFFFFFFFFFFFF AND PUSH20 0xFFFFFFFFFFFFFFFFFFFFFFFFFFFFFFFFFFFFFFFF AND PUSH2 0x3E8 PUSH1 0xE SLOAD CALLVALUE PUSH2 0x14CF SWAP2 SWAP1 PUSH2 0x4C17 JUMP JUMPDEST PUSH2 0x14D9 SWAP2 SWAP1 PUSH2 0x4C85 JUMP JUMPDEST PUSH1 0x40 MLOAD PUSH2 0x14E5 SWAP1 PUSH2 0x4CE2 JUMP JUMPDEST PUSH0 PUSH1 0x40 MLOAD DUP1 DUP4 SUB DUP2 DUP6 DUP8 GAS CALL SWAP3 POP POP POP RETURNDATASIZE DUP1 PUSH0 DUP2 EQ PUSH2 0x151F JUMPI PUSH1 0x40 MLOAD SWAP2 POP PUSH1 0x1F NOT PUSH1 0x3F RETURNDATASIZE ADD AND DUP3 ADD PUSH1 0x40 MSTORE RETURNDATASIZE DUP3 MSTORE RETURNDATASIZE PUSH0 PUSH1 0x20 DUP5 ADD RETURNDATACOPY PUSH2 0x1524 JUMP JUMPDEST PUSH1 0x60 SWAP2 POP JUMPDEST POP POP SWAP1 POP DUP1 PUSH2 0x1568 JUMPI PUSH1 0x40 MLOAD PUSH32 0x8C379A000000000000000000000000000000000000000000000000000000000 DUP2 MSTORE PUSH1 0x4 ADD PUSH2 0x155F SWAP1 PUSH2 0x4D40 JUMP JUMPDEST PUSH1 0x40 MLOAD DUP1 SWAP2 SUB SWAP1 REVERT JUMPDEST PUSH0 PUSH1 0xD PUSH0 SWAP1 SLOAD SWAP1 PUSH2 0x100 EXP SWAP1 DIV PUSH20 0xFFFFFFFFFFFFFFFFFFFFFFFFFFFFFFFFFFFFFFFF AND PUSH20 0xFFFFFFFFFFFFFFFFFFFFFFFFFFFFFFFFFFFFFFFF AND PUSH2 0x3E8 PUSH1 0xE SLOAD CALLVALUE PUSH2 0x15B2 SWAP2 SWAP1 PUSH2 0x4C17 JUMP JUMPDEST PUSH2 0x15BC SWAP2 SWAP1 PUSH2 0x4C85 JUMP JUMPDEST CALLVALUE PUSH2 0x15C7 SWAP2 SWAP1 PUSH2 0x49E0 JUMP JUMPDEST PUSH1 0x40 MLOAD PUSH2 0x15D3 SWAP1 PUSH2 0x4CE2 JUMP JUMPDEST PUSH0 PUSH1 0x40 MLOAD DUP1 DUP4 SUB DUP2 DUP6 DUP8 GAS CALL SWAP3 POP POP POP RETURNDATASIZE DUP1 PUSH0 DUP2 EQ PUSH2 0x160D JUMPI PUSH1 0x40 MLOAD SWAP2 POP PUSH1 0x1F NOT PUSH1 0x3F RETURNDATASIZE ADD AND DUP3 ADD PUSH1 0x40 MSTORE RETURNDATASIZE DUP3 MSTORE RETURNDATASIZE PUSH0 PUSH1 0x20 DUP5 ADD RETURNDATACOPY PUSH2 0x1612 JUMP JUMPDEST PUSH1 0x60 SWAP2 POP JUMPDEST POP POP SWAP1 POP DUP1 PUSH2 0x1656 JUMPI PUSH1 0x40 MLOAD PUSH32 0x8C379A000000000000000000000000000000000000000000000000000000000 DUP2 MSTORE PUSH1 0x4 ADD PUSH2 0x164D SWAP1 PUSH2 0x4DA8 JUMP JUMPDEST PUSH1 0x40 MLOAD DUP1 SWAP2 SUB SWAP1 REVERT JUMPDEST DUP3 DUP7 PUSH1 0x6 ADD PUSH0 DUP3 DUP3 SLOAD PUSH2 0x1669 SWAP2 SWAP1 PUSH2 0x49AD JUMP JUMPDEST SWAP3 POP POP DUP2 SWAP1 SSTORE POP DUP3 PUSH1 0x8 PUSH0 DUP9 PUSH1 0x5 ADD PUSH0 SWAP1 SLOAD SWAP1 PUSH2 0x100 EXP SWAP1 DIV PUSH20 0xFFFFFFFFFFFFFFFFFFFFFFFFFFFFFFFFFFFFFFFF AND PUSH20 0xFFFFFFFFFFFFFFFFFFFFFFFFFFFFFFFFFFFFFFFF AND PUSH20 0xFFFFFFFFFFFFFFFFFFFFFFFFFFFFFFFFFFFFFFFF AND DUP2 MSTORE PUSH1 0x20 ADD SWAP1 DUP2 MSTORE PUSH1 0x20 ADD PUSH0 KECCAK256 PUSH0 DUP3 DUP3 SLOAD PUSH2 0x16DF SWAP2 SWAP1 PUSH2 0x49AD JUMP JUMPDEST SWAP3 POP POP DUP2 SWAP1 SSTORE POP CALLER PUSH20 0xFFFFFFFFFFFFFFFFFFFFFFFFFFFFFFFFFFFFFFFF AND DUP10 PUSH32 0xE555DA28BDB778F65D22794D88927EBAECA03F7DE9D1B7D39245BC8FB5CA078A DUP6 PUSH1 0x40 MLOAD PUSH2 0x172D SWAP2 SWAP1 PUSH2 0x3FCD JUMP JUMPDEST PUSH1 0x40 MLOAD DUP1 SWAP2 SUB SWAP1 LOG3 POP POP POP POP PUSH2 0x1A59 JUMP JUMPDEST PUSH0 PUSH20 0xFFFFFFFFFFFFFFFFFFFFFFFFFFFFFFFFFFFFFFFF AND PUSH1 0xB PUSH0 DUP7 PUSH20 0xFFFFFFFFFFFFFFFFFFFFFFFFFFFFFFFFFFFFFFFF AND PUSH20 0xFFFFFFFFFFFFFFFFFFFFFFFFFFFFFFFFFFFFFFFF AND DUP2 MSTORE PUSH1 0x20 ADD SWAP1 DUP2 MSTORE PUSH1 0x20 ADD PUSH0 KECCAK256 PUSH0 SWAP1 SLOAD SWAP1 PUSH2 0x100 EXP SWAP1 DIV PUSH20 0xFFFFFFFFFFFFFFFFFFFFFFFFFFFFFFFFFFFFFFFF AND PUSH20 0xFFFFFFFFFFFFFFFFFFFFFFFFFFFFFFFFFFFFFFFF AND SUB PUSH2 0x1808 JUMPI PUSH1 0x40 MLOAD PUSH32 0x8C379A000000000000000000000000000000000000000000000000000000000 DUP2 MSTORE PUSH1 0x4 ADD PUSH2 0x17FF SWAP1 PUSH2 0x4E10 JUMP JUMPDEST PUSH1 0x40 MLOAD DUP1 SWAP2 SUB SWAP1 REVERT JUMPDEST PUSH0 DUP4 GT PUSH2 0x184A JUMPI PUSH1 0x40 MLOAD PUSH32 0x8C379A000000000000000000000000000000000000000000000000000000000 DUP2 MSTORE PUSH1 0x4 ADD PUSH2 0x1841 SWAP1 PUSH2 0x4E78 JUMP JUMPDEST PUSH1 0x40 MLOAD DUP1 SWAP2 SUB SWAP1 REVERT JUMPDEST PUSH2 0x1877 CALLER ADDRESS DUP6 DUP8 PUSH20 0xFFFFFFFFFFFFFFFFFFFFFFFFFFFFFFFFFFFFFFFF AND PUSH2 0x38A6 SWAP1 SWAP4 SWAP3 SWAP2 SWAP1 PUSH4 0xFFFFFFFF AND JUMP JUMPDEST PUSH2 0x1881 DUP5 DUP5 PUSH2 0x1E03 JUMP JUMPDEST SWAP1 POP PUSH0 PUSH2 0x3E8 PUSH1 0xE SLOAD DUP6 PUSH2 0x1895 SWAP2 SWAP1 PUSH2 0x4C17 JUMP JUMPDEST PUSH2 0x189F SWAP2 SWAP1 PUSH2 0x4C85 JUMP JUMPDEST SWAP1 POP PUSH0 DUP2 DUP6 PUSH2 0x18AE SWAP2 SWAP1 PUSH2 0x49E0 JUMP JUMPDEST SWAP1 POP PUSH2 0x18FC PUSH1 0xC PUSH0 SWAP1 SLOAD SWAP1 PUSH2 0x100 EXP SWAP1 DIV PUSH20 0xFFFFFFFFFFFFFFFFFFFFFFFFFFFFFFFFFFFFFFFF AND DUP4 DUP9 PUSH20 0xFFFFFFFFFFFFFFFFFFFFFFFFFFFFFFFFFFFFFFFF AND PUSH2 0x3928 SWAP1 SWAP3 SWAP2 SWAP1 PUSH4 0xFFFFFFFF AND JUMP JUMPDEST PUSH2 0x1948 PUSH1 0xD PUSH0 SWAP1 SLOAD SWAP1 PUSH2 0x100 EXP SWAP1 DIV PUSH20 0xFFFFFFFFFFFFFFFFFFFFFFFFFFFFFFFFFFFFFFFF AND DUP3 DUP9 PUSH20 0xFFFFFFFFFFFFFFFFFFFFFFFFFFFFFFFFFFFFFFFF AND PUSH2 0x3928 SWAP1 SWAP3 SWAP2 SWAP1 PUSH4 0xFFFFFFFF AND JUMP JUMPDEST PUSH0 PUSH2 0x3E8 PUSH1 0xE SLOAD DUP6 PUSH2 0x195A SWAP2 SWAP1 PUSH2 0x4C17 JUMP JUMPDEST PUSH2 0x1964 SWAP2 SWAP1 PUSH2 0x4C85 JUMP JUMPDEST SWAP1 POP PUSH0 DUP2 DUP6 PUSH2 0x1973 SWAP2 SWAP1 PUSH2 0x49E0 JUMP JUMPDEST SWAP1 POP DUP1 DUP7 PUSH1 0x6 ADD PUSH0 DUP3 DUP3 SLOAD PUSH2 0x1988 SWAP2 SWAP1 PUSH2 0x49AD JUMP JUMPDEST SWAP3 POP POP DUP2 SWAP1 SSTORE POP DUP1 PUSH1 0x8 PUSH0 DUP9 PUSH1 0x5 ADD PUSH0 SWAP1 SLOAD SWAP1 PUSH2 0x100 EXP SWAP1 DIV PUSH20 0xFFFFFFFFFFFFFFFFFFFFFFFFFFFFFFFFFFFFFFFF AND PUSH20 0xFFFFFFFFFFFFFFFFFFFFFFFFFFFFFFFFFFFFFFFF AND PUSH20 0xFFFFFFFFFFFFFFFFFFFFFFFFFFFFFFFFFFFFFFFF AND DUP2 MSTORE PUSH1 0x20 ADD SWAP1 DUP2 MSTORE PUSH1 0x20 ADD PUSH0 KECCAK256 PUSH0 DUP3 DUP3 SLOAD PUSH2 0x19FE SWAP2 SWAP1 PUSH2 0x49AD JUMP JUMPDEST SWAP3 POP POP DUP2 SWAP1 SSTORE POP CALLER PUSH20 0xFFFFFFFFFFFFFFFFFFFFFFFFFFFFFFFFFFFFFFFF AND DUP10 PUSH32 0xE555DA28BDB778F65D22794D88927EBAECA03F7DE9D1B7D39245BC8FB5CA078A DUP4 PUSH1 0x40 MLOAD PUSH2 0x1A4C SWAP2 SWAP1 PUSH2 0x3FCD JUMP JUMPDEST PUSH1 0x40 MLOAD DUP1 SWAP2 SUB SWAP1 LOG3 POP POP POP POP JUMPDEST POP POP PUSH2 0x1A63 PUSH2 0x39A7 JUMP JUMPDEST POP POP POP JUMP JUMPDEST PUSH1 0x9 PUSH1 0x20 MSTORE DUP1 PUSH0 MSTORE PUSH1 0x40 PUSH0 KECCAK256 PUSH0 SWAP2 POP SWAP1 POP SLOAD DUP2 JUMP JUMPDEST PUSH1 0x8 DUP2 JUMP JUMPDEST PUSH2 0x1A8A PUSH2 0x3786 JUMP JUMPDEST PUSH2 0x1A94 DUP3 DUP3 PUSH2 0x39B1 JUMP JUMPDEST POP POP JUMP JUMPDEST PUSH2 0x1AA0 PUSH2 0x385C JUMP JUMPDEST PUSH1 0x4 PUSH0 DUP2 SLOAD DUP1 SWAP3 SWAP2 SWAP1 PUSH2 0x1AB2 SWAP1 PUSH2 0x4ACA JUMP JUMPDEST SWAP2 SWAP1 POP SSTORE POP PUSH1 0x40 MLOAD DUP1 PUSH2 0x100 ADD PUSH1 0x40 MSTORE DUP1 DUP10 DUP10 DUP1 DUP1 PUSH1 0x1F ADD PUSH1 0x20 DUP1 SWAP2 DIV MUL PUSH1 0x20 ADD PUSH1 0x40 MLOAD SWAP1 DUP2 ADD PUSH1 0x40 MSTORE DUP1 SWAP4 SWAP3 SWAP2 SWAP1 DUP2 DUP2 MSTORE PUSH1 0x20 ADD DUP4 DUP4 DUP1 DUP3 DUP5 CALLDATACOPY PUSH0 DUP2 DUP5 ADD MSTORE PUSH1 0x1F NOT PUSH1 0x1F DUP3 ADD AND SWAP1 POP DUP1 DUP4 ADD SWAP3 POP POP POP POP POP POP POP DUP2 MSTORE PUSH1 0x20 ADD DUP8 DUP2 MSTORE PUSH1 0x20 ADD DUP7 DUP7 DUP1 DUP1 PUSH1 0x1F ADD PUSH1 0x20 DUP1 SWAP2 DIV MUL PUSH1 0x20 ADD PUSH1 0x40 MLOAD SWAP1 DUP2 ADD PUSH1 0x40 MSTORE DUP1 SWAP4 SWAP3 SWAP2 SWAP1 DUP2 DUP2 MSTORE PUSH1 0x20 ADD DUP4 DUP4 DUP1 DUP3 DUP5 CALLDATACOPY PUSH0 DUP2 DUP5 ADD MSTORE PUSH1 0x1F NOT PUSH1 0x1F DUP3 ADD AND SWAP1 POP DUP1 DUP4 ADD SWAP3 POP POP POP POP POP POP POP DUP2 MSTORE PUSH1 0x20 ADD DUP5 DUP5 DUP1 DUP1 PUSH1 0x1F ADD PUSH1 0x20 DUP1 SWAP2 DIV MUL PUSH1 0x20 ADD PUSH1 0x40 MLOAD SWAP1 DUP2 ADD PUSH1 0x40 MSTORE DUP1 SWAP4 SWAP3 SWAP2 SWAP1 DUP2 DUP2 MSTORE PUSH1 0x20 ADD DUP4 DUP4 DUP1 DUP3 DUP5 CALLDATACOPY PUSH0 DUP2 DUP5 ADD MSTORE PUSH1 0x1F NOT PUSH1 0x1F DUP3 ADD AND SWAP1 POP DUP1 DUP4 ADD SWAP3 POP POP POP POP POP POP POP DUP2 MSTORE PUSH1 0x20 ADD DUP3 DUP2 MSTORE PUSH1 0x20 ADD CALLER PUSH20 0xFFFFFFFFFFFFFFFFFFFFFFFFFFFFFFFFFFFFFFFF AND DUP2 MSTORE PUSH1 0x20 ADD PUSH0 ISZERO ISZERO DUP2 MSTORE PUSH1 0x20 ADD PUSH0 DUP2 MSTORE POP PUSH1 0x5 PUSH0 PUSH1 0x4 SLOAD DUP2 MSTORE PUSH1 0x20 ADD SWAP1 DUP2 MSTORE PUSH1 0x20 ADD PUSH0 KECCAK256 PUSH0 DUP3 ADD MLOAD DUP2 PUSH0 ADD SWAP1 DUP2 PUSH2 0x1BF8 SWAP2 SWAP1 PUSH2 0x502D JUMP JUMPDEST POP PUSH1 0x20 DUP3 ADD MLOAD DUP2 PUSH1 0x1 ADD SSTORE PUSH1 0x40 DUP3 ADD MLOAD DUP2 PUSH1 0x2 ADD SWAP1 DUP2 PUSH2 0x1C18 SWAP2 SWAP1 PUSH2 0x502D JUMP JUMPDEST POP PUSH1 0x60 DUP3 ADD MLOAD DUP2 PUSH1 0x3 ADD SWAP1 DUP2 PUSH2 0x1C2E SWAP2 SWAP1 PUSH2 0x502D JUMP JUMPDEST POP PUSH1 0x80 DUP3 ADD MLOAD DUP2 PUSH1 0x4 ADD SSTORE PUSH1 0xA0 DUP3 ADD MLOAD DUP2 PUSH1 0x5 ADD PUSH0 PUSH2 0x100 EXP DUP2 SLOAD DUP2 PUSH20 0xFFFFFFFFFFFFFFFFFFFFFFFFFFFFFFFFFFFFFFFF MUL NOT AND SWAP1 DUP4 PUSH20 0xFFFFFFFFFFFFFFFFFFFFFFFFFFFFFFFFFFFFFFFF AND MUL OR SWAP1 SSTORE POP PUSH1 0xC0 DUP3 ADD MLOAD DUP2 PUSH1 0x5 ADD PUSH1 0x14 PUSH2 0x100 EXP DUP2 SLOAD DUP2 PUSH1 0xFF MUL NOT AND SWAP1 DUP4 ISZERO ISZERO MUL OR SWAP1 SSTORE POP PUSH1 0xE0 DUP3 ADD MLOAD DUP2 PUSH1 0x6 ADD SSTORE SWAP1 POP POP CALLER PUSH20 0xFFFFFFFFFFFFFFFFFFFFFFFFFFFFFFFFFFFFFFFF AND PUSH1 0x4 SLOAD PUSH32 0x633109EEC20320EDED000FC1E2634211AA7E92BA3F5B15FAF6DCDAFCA05094E4 PUSH1 0x40 MLOAD PUSH1 0x40 MLOAD DUP1 SWAP2 SUB SWAP1 LOG3 POP POP POP POP POP POP POP POP JUMP JUMPDEST PUSH2 0x1D04 PUSH2 0x3786 JUMP JUMPDEST PUSH2 0x1D0C PUSH2 0x3A10 JUMP JUMPDEST JUMP JUMPDEST PUSH2 0x1D16 PUSH2 0x3786 JUMP JUMPDEST PUSH1 0x1 PUSH1 0x11 PUSH0 PUSH2 0x100 EXP DUP2 SLOAD DUP2 PUSH1 0xFF MUL NOT AND SWAP1 DUP4 ISZERO ISZERO MUL OR SWAP1 SSTORE POP JUMP JUMPDEST PUSH2 0x1D3A PUSH2 0x3786 JUMP JUMPDEST PUSH2 0x3E8 DUP2 LT PUSH2 0x1D7E JUMPI PUSH1 0x40 MLOAD PUSH32 0x8C379A000000000000000000000000000000000000000000000000000000000 DUP2 MSTORE PUSH1 0x4 ADD PUSH2 0x1D75 SWAP1 PUSH2 0x5146 JUMP JUMPDEST PUSH1 0x40 MLOAD DUP1 SWAP2 SUB SWAP1 REVERT JUMPDEST DUP1 PUSH1 0xE DUP2 SWAP1 SSTORE POP PUSH32 0x3A81812CE3D900B6196B2D0A225DA9DF123054670067CF761D52294251A96740 DUP2 PUSH1 0x40 MLOAD PUSH2 0x1DB4 SWAP2 SWAP1 PUSH2 0x3FCD JUMP JUMPDEST PUSH1 0x40 MLOAD DUP1 SWAP2 SUB SWAP1 LOG1 POP JUMP JUMPDEST PUSH0 PUSH1 0x2 PUSH0 SWAP1 SLOAD SWAP1 PUSH2 0x100 EXP SWAP1 DIV PUSH1 0xFF AND SWAP1 POP SWAP1 JUMP JUMPDEST PUSH0 DUP2 PUSH0 SHR SWAP1 POP SWAP2 SWAP1 POP JUMP JUMPDEST PUSH32 0x0 DUP2 JUMP JUMPDEST PUSH0 PUSH0 PUSH1 0xB PUSH0 DUP6 PUSH20 0xFFFFFFFFFFFFFFFFFFFFFFFFFFFFFFFFFFFFFFFF AND PUSH20 0xFFFFFFFFFFFFFFFFFFFFFFFFFFFFFFFFFFFFFFFF AND DUP2 MSTORE PUSH1 0x20 ADD SWAP1 DUP2 MSTORE PUSH1 0x20 ADD PUSH0 KECCAK256 PUSH0 SWAP1 SLOAD SWAP1 PUSH2 0x100 EXP SWAP1 DIV PUSH20 0xFFFFFFFFFFFFFFFFFFFFFFFFFFFFFFFFFFFFFFFF AND SWAP1 POP PUSH0 PUSH20 0xFFFFFFFFFFFFFFFFFFFFFFFFFFFFFFFFFFFFFFFF AND DUP2 PUSH20 0xFFFFFFFFFFFFFFFFFFFFFFFFFFFFFFFFFFFFFFFF AND SUB PUSH2 0x1ED2 JUMPI PUSH1 0x40 MLOAD PUSH32 0x8C379A000000000000000000000000000000000000000000000000000000000 DUP2 MSTORE PUSH1 0x4 ADD PUSH2 0x1EC9 SWAP1 PUSH2 0x51AE JUMP JUMPDEST PUSH1 0x40 MLOAD DUP1 SWAP2 SUB SWAP1 REVERT JUMPDEST PUSH0 DUP2 SWAP1 POP PUSH0 DUP2 PUSH20 0xFFFFFFFFFFFFFFFFFFFFFFFFFFFFFFFFFFFFFFFF AND PUSH4 0xFEAF968C PUSH1 0x40 MLOAD DUP2 PUSH4 0xFFFFFFFF AND PUSH1 0xE0 SHL DUP2 MSTORE PUSH1 0x4 ADD PUSH1 0xA0 PUSH1 0x40 MLOAD DUP1 DUP4 SUB DUP2 DUP7 GAS STATICCALL ISZERO DUP1 ISZERO PUSH2 0x1F20 JUMPI RETURNDATASIZE PUSH0 PUSH0 RETURNDATACOPY RETURNDATASIZE PUSH0 REVERT JUMPDEST POP POP POP POP PUSH1 0x40 MLOAD RETURNDATASIZE PUSH1 0x1F NOT PUSH1 0x1F DUP3 ADD AND DUP3 ADD DUP1 PUSH1 0x40 MSTORE POP DUP2 ADD SWAP1 PUSH2 0x1F44 SWAP2 SWAP1 PUSH2 0x5252 JUMP JUMPDEST POP POP POP SWAP2 POP POP PUSH0 DUP2 SGT PUSH2 0x1F8C JUMPI PUSH1 0x40 MLOAD PUSH32 0x8C379A000000000000000000000000000000000000000000000000000000000 DUP2 MSTORE PUSH1 0x4 ADD PUSH2 0x1F83 SWAP1 PUSH2 0x5313 JUMP JUMPDEST PUSH1 0x40 MLOAD DUP1 SWAP2 SUB SWAP1 REVERT JUMPDEST PUSH0 DUP7 PUSH20 0xFFFFFFFFFFFFFFFFFFFFFFFFFFFFFFFFFFFFFFFF AND PUSH4 0x313CE567 PUSH1 0x40 MLOAD DUP2 PUSH4 0xFFFFFFFF AND PUSH1 0xE0 SHL DUP2 MSTORE PUSH1 0x4 ADD PUSH1 0x20 PUSH1 0x40 MLOAD DUP1 DUP4 SUB DUP2 DUP7 GAS STATICCALL ISZERO DUP1 ISZERO PUSH2 0x1FD6 JUMPI RETURNDATASIZE PUSH0 PUSH0 RETURNDATACOPY RETURNDATASIZE PUSH0 REVERT JUMPDEST POP POP POP POP PUSH1 0x40 MLOAD RETURNDATASIZE PUSH1 0x1F NOT PUSH1 0x1F DUP3 ADD AND DUP3 ADD DUP1 PUSH1 0x40 MSTORE POP DUP2 ADD SWAP1 PUSH2 0x1FFA SWAP2 SWAP1 PUSH2 0x535B JUMP JUMPDEST SWAP1 POP DUP1 PUSH1 0xA PUSH2 0x2009 SWAP2 SWAP1 PUSH2 0x54B5 JUMP JUMPDEST DUP3 DUP8 PUSH2 0x2015 SWAP2 SWAP1 PUSH2 0x4C17 JUMP JUMPDEST PUSH2 0x201F SWAP2 SWAP1 PUSH2 0x4C85 JUMP JUMPDEST SWAP5 POP POP POP POP POP SWAP3 SWAP2 POP POP JUMP JUMPDEST PUSH2 0x2033 PUSH2 0x3786 JUMP JUMPDEST PUSH0 PUSH20 0xFFFFFFFFFFFFFFFFFFFFFFFFFFFFFFFFFFFFFFFF AND PUSH1 0x5 PUSH0 DUP4 DUP2 MSTORE PUSH1 0x20 ADD SWAP1 DUP2 MSTORE PUSH1 0x20 ADD PUSH0 KECCAK256 PUSH1 0x5 ADD PUSH0 SWAP1 SLOAD SWAP1 PUSH2 0x100 EXP SWAP1 DIV PUSH20 0xFFFFFFFFFFFFFFFFFFFFFFFFFFFFFFFFFFFFFFFF AND PUSH20 0xFFFFFFFFFFFFFFFFFFFFFFFFFFFFFFFFFFFFFFFF AND SUB PUSH2 0x20D4 JUMPI PUSH1 0x40 MLOAD PUSH32 0x8C379A000000000000000000000000000000000000000000000000000000000 DUP2 MSTORE PUSH1 0x4 ADD PUSH2 0x20CB SWAP1 PUSH2 0x5549 JUMP JUMPDEST PUSH1 0x40 MLOAD DUP1 SWAP2 SUB SWAP1 REVERT JUMPDEST DUP1 PUSH1 0xF DUP2 SWAP1 SSTORE POP DUP1 PUSH32 0xE7350460FA1FC82BC1E8E56881ADB66BE0351C4490E9F5C40AAB0353F62BE93C PUSH1 0x40 MLOAD PUSH1 0x40 MLOAD DUP1 SWAP2 SUB SWAP1 LOG2 POP JUMP JUMPDEST PUSH1 0xD PUSH0 SWAP1 SLOAD SWAP1 PUSH2 0x100 EXP SWAP1 DIV PUSH20 0xFFFFFFFFFFFFFFFFFFFFFFFFFFFFFFFFFFFFFFFF AND DUP2 JUMP JUMPDEST PUSH2 0x2138 PUSH2 0x3786 JUMP JUMPDEST PUSH0 PUSH20 0xFFFFFFFFFFFFFFFFFFFFFFFFFFFFFFFFFFFFFFFF AND DUP2 PUSH20 0xFFFFFFFFFFFFFFFFFFFFFFFFFFFFFFFFFFFFFFFF AND SUB PUSH2 0x21A6 JUMPI PUSH1 0x40 MLOAD PUSH32 0x8C379A000000000000000000000000000000000000000000000000000000000 DUP2 MSTORE PUSH1 0x4 ADD PUSH2 0x219D SWAP1 PUSH2 0x55B1 JUMP JUMPDEST PUSH1 0x40 MLOAD DUP1 SWAP2 SUB SWAP1 REVERT JUMPDEST DUP1 PUSH1 0xC PUSH0 PUSH2 0x100 EXP DUP2 SLOAD DUP2 PUSH20 0xFFFFFFFFFFFFFFFFFFFFFFFFFFFFFFFFFFFFFFFF MUL NOT AND SWAP1 DUP4 PUSH20 0xFFFFFFFFFFFFFFFFFFFFFFFFFFFFFFFFFFFFFFFF AND MUL OR SWAP1 SSTORE POP DUP1 PUSH20 0xFFFFFFFFFFFFFFFFFFFFFFFFFFFFFFFFFFFFFFFF AND PUSH32 0x29ACEE77DAFCFA0143D74A7EA236018F3A6E1FA71E27FC59BBFBC6B8CA8EDCCD PUSH1 0x40 MLOAD PUSH1 0x40 MLOAD DUP1 SWAP2 SUB SWAP1 LOG2 POP JUMP JUMPDEST PUSH2 0x2234 PUSH2 0x3786 JUMP JUMPDEST PUSH2 0x223D PUSH0 PUSH2 0x3A71 JUMP JUMPDEST JUMP JUMPDEST PUSH1 0x4 SLOAD DUP2 JUMP JUMPDEST PUSH2 0x224D PUSH2 0x3786 JUMP JUMPDEST PUSH0 PUSH20 0xFFFFFFFFFFFFFFFFFFFFFFFFFFFFFFFFFFFFFFFF AND DUP2 PUSH20 0xFFFFFFFFFFFFFFFFFFFFFFFFFFFFFFFFFFFFFFFF AND SUB PUSH2 0x22BB JUMPI PUSH1 0x40 MLOAD PUSH32 0x8C379A000000000000000000000000000000000000000000000000000000000 DUP2 MSTORE PUSH1 0x4 ADD PUSH2 0x22B2 SWAP1 PUSH2 0x5619 JUMP JUMPDEST PUSH1 0x40 MLOAD DUP1 SWAP2 SUB SWAP1 REVERT JUMPDEST PUSH0 PUSH20 0xFFFFFFFFFFFFFFFFFFFFFFFFFFFFFFFFFFFFFFFF AND PUSH1 0xB PUSH0 DUP5 PUSH20 0xFFFFFFFFFFFFFFFFFFFFFFFFFFFFFFFFFFFFFFFF AND PUSH20 0xFFFFFFFFFFFFFFFFFFFFFFFFFFFFFFFFFFFFFFFF AND DUP2 MSTORE PUSH1 0x20 ADD SWAP1 DUP2 MSTORE PUSH1 0x20 ADD PUSH0 KECCAK256 PUSH0 SWAP1 SLOAD SWAP1 PUSH2 0x100 EXP SWAP1 DIV PUSH20 0xFFFFFFFFFFFFFFFFFFFFFFFFFFFFFFFFFFFFFFFF AND PUSH20 0xFFFFFFFFFFFFFFFFFFFFFFFFFFFFFFFFFFFFFFFF AND EQ PUSH2 0x2385 JUMPI PUSH1 0x40 MLOAD PUSH32 0x8C379A000000000000000000000000000000000000000000000000000000000 DUP2 MSTORE PUSH1 0x4 ADD PUSH2 0x237C SWAP1 PUSH2 0x56A7 JUMP JUMPDEST PUSH1 0x40 MLOAD DUP1 SWAP2 SUB SWAP1 REVERT JUMPDEST DUP1 PUSH1 0xB PUSH0 DUP5 PUSH20 0xFFFFFFFFFFFFFFFFFFFFFFFFFFFFFFFFFFFFFFFF AND PUSH20 0xFFFFFFFFFFFFFFFFFFFFFFFFFFFFFFFFFFFFFFFF AND DUP2 MSTORE PUSH1 0x20 ADD SWAP1 DUP2 MSTORE PUSH1 0x20 ADD PUSH0 KECCAK256 PUSH0 PUSH2 0x100 EXP DUP2 SLOAD DUP2 PUSH20 0xFFFFFFFFFFFFFFFFFFFFFFFFFFFFFFFFFFFFFFFF MUL NOT AND SWAP1 DUP4 PUSH20 0xFFFFFFFFFFFFFFFFFFFFFFFFFFFFFFFFFFFFFFFF AND MUL OR SWAP1 SSTORE POP DUP2 PUSH20 0xFFFFFFFFFFFFFFFFFFFFFFFFFFFFFFFFFFFFFFFF AND PUSH32 0xD2D8394CF7549A5DDBC2BA3DD7B2DE8D53C891472D1F2907008ED6A10045FDAE DUP3 PUSH1 0x40 MLOAD PUSH2 0x2446 SWAP2 SWAP1 PUSH2 0x45BC JUMP JUMPDEST PUSH1 0x40 MLOAD DUP1 SWAP2 SUB SWAP1 LOG2 POP POP JUMP JUMPDEST PUSH0 PUSH0 SWAP1 POP SWAP3 SWAP2 POP POP JUMP JUMPDEST PUSH1 0xB PUSH1 0x20 MSTORE DUP1 PUSH0 MSTORE PUSH1 0x40 PUSH0 KECCAK256 PUSH0 SWAP2 POP SLOAD SWAP1 PUSH2 0x100 EXP SWAP1 DIV PUSH20 0xFFFFFFFFFFFFFFFFFFFFFFFFFFFFFFFFFFFFFFFF AND DUP2 JUMP JUMPDEST PUSH0 PUSH0 PUSH1 0xB PUSH0 PUSH0 PUSH20 0xFFFFFFFFFFFFFFFFFFFFFFFFFFFFFFFFFFFFFFFF AND PUSH20 0xFFFFFFFFFFFFFFFFFFFFFFFFFFFFFFFFFFFFFFFF AND DUP2 MSTORE PUSH1 0x20 ADD SWAP1 DUP2 MSTORE PUSH1 0x20 ADD PUSH0 KECCAK256 PUSH0 SWAP1 SLOAD SWAP1 PUSH2 0x100 EXP SWAP1 DIV PUSH20 0xFFFFFFFFFFFFFFFFFFFFFFFFFFFFFFFFFFFFFFFF AND SWAP1 POP PUSH0 PUSH20 0xFFFFFFFFFFFFFFFFFFFFFFFFFFFFFFFFFFFFFFFF AND DUP2 PUSH20 0xFFFFFFFFFFFFFFFFFFFFFFFFFFFFFFFFFFFFFFFF AND SUB PUSH2 0x255B JUMPI PUSH1 0x40 MLOAD PUSH32 0x8C379A000000000000000000000000000000000000000000000000000000000 DUP2 MSTORE PUSH1 0x4 ADD PUSH2 0x2552 SWAP1 PUSH2 0x570F JUMP JUMPDEST PUSH1 0x40 MLOAD DUP1 SWAP2 SUB SWAP1 REVERT JUMPDEST PUSH0 DUP2 SWAP1 POP PUSH0 DUP2 PUSH20 0xFFFFFFFFFFFFFFFFFFFFFFFFFFFFFFFFFFFFFFFF AND PUSH4 0xFEAF968C PUSH1 0x40 MLOAD DUP2 PUSH4 0xFFFFFFFF AND PUSH1 0xE0 SHL DUP2 MSTORE PUSH1 0x4 ADD PUSH1 0xA0 PUSH1 0x40 MLOAD DUP1 DUP4 SUB DUP2 DUP7 GAS STATICCALL ISZERO DUP1 ISZERO PUSH2 0x25A9 JUMPI RETURNDATASIZE PUSH0 PUSH0 RETURNDATACOPY RETURNDATASIZE PUSH0 REVERT JUMPDEST POP POP POP POP PUSH1 0x40 MLOAD RETURNDATASIZE PUSH1 0x1F NOT PUSH1 0x1F DUP3 ADD AND DUP3 ADD DUP1 PUSH1 0x40 MSTORE POP DUP2 ADD SWAP1 PUSH2 0x25CD SWAP2 SWAP1 PUSH2 0x5252 JUMP JUMPDEST POP POP POP SWAP2 POP POP PUSH0 DUP2 SGT PUSH2 0x2615 JUMPI PUSH1 0x40 MLOAD PUSH32 0x8C379A000000000000000000000000000000000000000000000000000000000 DUP2 MSTORE PUSH1 0x4 ADD PUSH2 0x260C SWAP1 PUSH2 0x5313 JUMP JUMPDEST PUSH1 0x40 MLOAD DUP1 SWAP2 SUB SWAP1 REVERT JUMPDEST PUSH8 0xDE0B6B3A7640000 DUP2 DUP7 PUSH2 0x262A SWAP2 SWAP1 PUSH2 0x4C17 JUMP JUMPDEST PUSH2 0x2634 SWAP2 SWAP1 PUSH2 0x4C85 JUMP JUMPDEST SWAP4 POP POP POP POP SWAP2 SWAP1 POP JUMP JUMPDEST PUSH1 0x8 PUSH1 0x20 MSTORE DUP1 PUSH0 MSTORE PUSH1 0x40 PUSH0 KECCAK256 PUSH0 SWAP2 POP SWAP1 POP SLOAD DUP2 JUMP JUMPDEST PUSH0 ADDRESS PUSH20 0xFFFFFFFFFFFFFFFFFFFFFFFFFFFFFFFFFFFFFFFF AND DUP3 PUSH20 0xFFFFFFFFFFFFFFFFFFFFFFFFFFFFFFFFFFFFFFFF AND EQ SWAP1 POP SWAP5 SWAP4 POP POP POP POP JUMP JUMPDEST PUSH0 DUP2 PUSH20 0xFFFFFFFFFFFFFFFFFFFFFFFFFFFFFFFFFFFFFFFF AND PUSH0 SHL SWAP1 POP SWAP2 SWAP1 POP JUMP JUMPDEST PUSH2 0x26B6 PUSH2 0x3786 JUMP JUMPDEST PUSH2 0x26BE PUSH2 0x3B32 JUMP JUMPDEST JUMP JUMPDEST PUSH2 0x26C8 PUSH2 0x385C JUMP JUMPDEST PUSH0 PUSH1 0x5 PUSH0 DUP12 DUP2 MSTORE PUSH1 0x20 ADD SWAP1 DUP2 MSTORE PUSH1 0x20 ADD PUSH0 KECCAK256 SWAP1 POP DUP1 PUSH1 0x5 ADD PUSH0 SWAP1 SLOAD SWAP1 PUSH2 0x100 EXP SWAP1 DIV PUSH20 0xFFFFFFFFFFFFFFFFFFFFFFFFFFFFFFFFFFFFFFFF AND PUSH20 0xFFFFFFFFFFFFFFFFFFFFFFFFFFFFFFFFFFFFFFFF AND CALLER PUSH20 0xFFFFFFFFFFFFFFFFFFFFFFFFFFFFFFFFFFFFFFFF AND EQ PUSH2 0x276D JUMPI PUSH1 0x40 MLOAD PUSH32 0x8C379A000000000000000000000000000000000000000000000000000000000 DUP2 MSTORE PUSH1 0x4 ADD PUSH2 0x2764 SWAP1 PUSH2 0x5777 JUMP JUMPDEST PUSH1 0x40 MLOAD DUP1 SWAP2 SUB SWAP1 REVERT JUMPDEST DUP1 PUSH1 0x5 ADD PUSH1 0x14 SWAP1 SLOAD SWAP1 PUSH2 0x100 EXP SWAP1 DIV PUSH1 0xFF AND ISZERO PUSH2 0x27BF JUMPI PUSH1 0x40 MLOAD PUSH32 0x8C379A000000000000000000000000000000000000000000000000000000000 DUP2 MSTORE PUSH1 0x4 ADD PUSH2 0x27B6 SWAP1 PUSH2 0x57DF JUMP JUMPDEST PUSH1 0x40 MLOAD DUP1 SWAP2 SUB SWAP1 REVERT JUMPDEST PUSH0 DUP10 DUP10 SWAP1 POP GT ISZERO PUSH2 0x27DE JUMPI DUP9 DUP9 DUP3 PUSH0 ADD SWAP2 DUP3 PUSH2 0x27DC SWAP3 SWAP2 SWAP1 PUSH2 0x5807 JUMP JUMPDEST POP JUMPDEST PUSH0 DUP8 GT ISZERO PUSH2 0x27F0 JUMPI DUP7 DUP2 PUSH1 0x1 ADD DUP2 SWAP1 SSTORE POP JUMPDEST PUSH0 DUP7 DUP7 SWAP1 POP GT ISZERO PUSH2 0x2810 JUMPI DUP6 DUP6 DUP3 PUSH1 0x2 ADD SWAP2 DUP3 PUSH2 0x280E SWAP3 SWAP2 SWAP1 PUSH2 0x5807 JUMP JUMPDEST POP JUMPDEST PUSH0 DUP5 DUP5 SWAP1 POP GT ISZERO PUSH2 0x2830 JUMPI DUP4 DUP4 DUP3 PUSH1 0x3 ADD SWAP2 DUP3 PUSH2 0x282E SWAP3 SWAP2 SWAP1 PUSH2 0x5807 JUMP JUMPDEST POP JUMPDEST PUSH0 DUP3 GT ISZERO PUSH2 0x2842 JUMPI DUP2 DUP2 PUSH1 0x4 ADD DUP2 SWAP1 SSTORE POP JUMPDEST DUP10 PUSH32 0x614C76B810CD8CBDB81D8EB0DD2CC16108A6FBDB71CDBEE83F087626D02CCF60 PUSH1 0x40 MLOAD PUSH1 0x40 MLOAD DUP1 SWAP2 SUB SWAP1 LOG2 POP POP POP POP POP POP POP POP POP POP JUMP JUMPDEST PUSH0 PUSH0 PUSH0 SWAP1 SLOAD SWAP1 PUSH2 0x100 EXP SWAP1 DIV PUSH20 0xFFFFFFFFFFFFFFFFFFFFFFFFFFFFFFFFFFFFFFFF AND SWAP1 POP SWAP1 JUMP JUMPDEST PUSH1 0x7 PUSH1 0x20 MSTORE DUP1 PUSH0 MSTORE PUSH1 0x40 PUSH0 KECCAK256 PUSH0 SWAP2 POP SWAP1 POP DUP1 PUSH0 ADD SLOAD SWAP1 DUP1 PUSH1 0x1 ADD PUSH0 SWAP1 SLOAD SWAP1 PUSH2 0x100 EXP SWAP1 DIV PUSH20 0xFFFFFFFFFFFFFFFFFFFFFFFFFFFFFFFFFFFFFFFF AND SWAP1 DUP1 PUSH1 0x2 ADD SLOAD SWAP1 DUP1 PUSH1 0x3 ADD PUSH0 SWAP1 SLOAD SWAP1 PUSH2 0x100 EXP SWAP1 DIV PUSH20 0xFFFFFFFFFFFFFFFFFFFFFFFFFFFFFFFFFFFFFFFF AND SWAP1 DUP1 PUSH1 0x4 ADD SLOAD SWAP1 DUP1 PUSH1 0x5 ADD PUSH0 SWAP1 SLOAD SWAP1 PUSH2 0x100 EXP SWAP1 DIV PUSH1 0xFF AND SWAP1 POP DUP7 JUMP JUMPDEST PUSH2 0x292C PUSH2 0x3786 JUMP JUMPDEST PUSH0 PUSH20 0xFFFFFFFFFFFFFFFFFFFFFFFFFFFFFFFFFFFFFFFF AND DUP3 PUSH20 0xFFFFFFFFFFFFFFFFFFFFFFFFFFFFFFFFFFFFFFFF AND SUB PUSH2 0x2A14 JUMPI PUSH0 PUSH2 0x2968 PUSH2 0x287B JUMP JUMPDEST PUSH20 0xFFFFFFFFFFFFFFFFFFFFFFFFFFFFFFFFFFFFFFFF AND DUP3 PUSH1 0x40 MLOAD PUSH2 0x298B SWAP1 PUSH2 0x4CE2 JUMP JUMPDEST PUSH0 PUSH1 0x40 MLOAD DUP1 DUP4 SUB DUP2 DUP6 DUP8 GAS CALL SWAP3 POP POP POP RETURNDATASIZE DUP1 PUSH0 DUP2 EQ PUSH2 0x29C5 JUMPI PUSH1 0x40 MLOAD SWAP2 POP PUSH1 0x1F NOT PUSH1 0x3F RETURNDATASIZE ADD AND DUP3 ADD PUSH1 0x40 MSTORE RETURNDATASIZE DUP3 MSTORE RETURNDATASIZE PUSH0 PUSH1 0x20 DUP5 ADD RETURNDATACOPY PUSH2 0x29CA JUMP JUMPDEST PUSH1 0x60 SWAP2 POP JUMPDEST POP POP SWAP1 POP DUP1 PUSH2 0x2A0E JUMPI PUSH1 0x40 MLOAD PUSH32 0x8C379A000000000000000000000000000000000000000000000000000000000 DUP2 MSTORE PUSH1 0x4 ADD PUSH2 0x2A05 SWAP1 PUSH2 0x591E JUMP JUMPDEST PUSH1 0x40 MLOAD DUP1 SWAP2 SUB SWAP1 REVERT JUMPDEST POP PUSH2 0x2A47 JUMP JUMPDEST PUSH2 0x2A46 PUSH2 0x2A1F PUSH2 0x287B JUMP JUMPDEST DUP3 DUP5 PUSH20 0xFFFFFFFFFFFFFFFFFFFFFFFFFFFFFFFFFFFFFFFF AND PUSH2 0x3928 SWAP1 SWAP3 SWAP2 SWAP1 PUSH4 0xFFFFFFFF AND JUMP JUMPDEST JUMPDEST POP POP JUMP JUMPDEST PUSH1 0xE SLOAD DUP2 JUMP JUMPDEST PUSH1 0x1 PUSH1 0x20 MSTORE DUP1 PUSH0 MSTORE PUSH1 0x40 PUSH0 KECCAK256 PUSH0 SWAP2 POP SWAP1 POP SLOAD DUP2 JUMP JUMPDEST PUSH2 0x2A6E PUSH2 0x3786 JUMP JUMPDEST PUSH32 0x0 PUSH20 0xFFFFFFFFFFFFFFFFFFFFFFFFFFFFFFFFFFFFFFFF AND PUSH4 0xCA5EB5E1 DUP3 PUSH1 0x40 MLOAD DUP3 PUSH4 0xFFFFFFFF AND PUSH1 0xE0 SHL DUP2 MSTORE PUSH1 0x4 ADD PUSH2 0x2AC7 SWAP2 SWAP1 PUSH2 0x45BC JUMP JUMPDEST PUSH0 PUSH1 0x40 MLOAD DUP1 DUP4 SUB DUP2 PUSH0 DUP8 DUP1 EXTCODESIZE ISZERO DUP1 ISZERO PUSH2 0x2ADE JUMPI PUSH0 PUSH0 REVERT JUMPDEST POP GAS CALL ISZERO DUP1 ISZERO PUSH2 0x2AF0 JUMPI RETURNDATASIZE PUSH0 PUSH0 RETURNDATACOPY RETURNDATASIZE PUSH0 REVERT JUMPDEST POP POP POP POP POP JUMP JUMPDEST PUSH2 0x2AFF PUSH2 0x385C JUMP JUMPDEST PUSH0 PUSH20 0xFFFFFFFFFFFFFFFFFFFFFFFFFFFFFFFFFFFFFFFF AND DUP3 PUSH20 0xFFFFFFFFFFFFFFFFFFFFFFFFFFFFFFFFFFFFFFFF AND SUB PUSH2 0x2B6D JUMPI PUSH1 0x40 MLOAD PUSH32 0x8C379A000000000000000000000000000000000000000000000000000000000 DUP2 MSTORE PUSH1 0x4 ADD PUSH2 0x2B64 SWAP1 PUSH2 0x59AC JUMP JUMPDEST PUSH1 0x40 MLOAD DUP1 SWAP2 SUB SWAP1 REVERT JUMPDEST PUSH1 0x11 PUSH0 SWAP1 SLOAD SWAP1 PUSH2 0x100 EXP SWAP1 DIV PUSH1 0xFF AND ISZERO PUSH2 0x2BBC JUMPI PUSH1 0x40 MLOAD PUSH32 0x8C379A000000000000000000000000000000000000000000000000000000000 DUP2 MSTORE PUSH1 0x4 ADD PUSH2 0x2BB3 SWAP1 PUSH2 0x5A14 JUMP JUMPDEST PUSH1 0x40 MLOAD DUP1 SWAP2 SUB SWAP1 REVERT JUMPDEST PUSH0 PUSH1 0xA PUSH0 CALLER PUSH20 0xFFFFFFFFFFFFFFFFFFFFFFFFFFFFFFFFFFFFFFFF AND PUSH20 0xFFFFFFFFFFFFFFFFFFFFFFFFFFFFFFFFFFFFFFFF AND DUP2 MSTORE PUSH1 0x20 ADD SWAP1 DUP2 MSTORE PUSH1 0x20 ADD PUSH0 KECCAK256 SLOAD PUSH1 0x9 PUSH0 CALLER PUSH20 0xFFFFFFFFFFFFFFFFFFFFFFFFFFFFFFFFFFFFFFFF AND PUSH20 0xFFFFFFFFFFFFFFFFFFFFFFFFFFFFFFFFFFFFFFFF AND DUP2 MSTORE PUSH1 0x20 ADD SWAP1 DUP2 MSTORE PUSH1 0x20 ADD PUSH0 KECCAK256 SLOAD PUSH2 0x2C43 SWAP2 SWAP1 PUSH2 0x49E0 JUMP JUMPDEST SWAP1 POP PUSH0 PUSH2 0x2C50 DUP5 DUP7 PUSH2 0x1E03 JUMP JUMPDEST SWAP1 POP DUP2 DUP2 GT ISZERO PUSH2 0x2C95 JUMPI PUSH1 0x40 MLOAD PUSH32 0x8C379A000000000000000000000000000000000000000000000000000000000 DUP2 MSTORE PUSH1 0x4 ADD PUSH2 0x2C8C SWAP1 PUSH2 0x5AA2 JUMP JUMPDEST PUSH1 0x40 MLOAD DUP1 SWAP2 SUB SWAP1 REVERT JUMPDEST PUSH0 PUSH2 0x3E8 PUSH1 0xE SLOAD DUP4 PUSH2 0x2CA7 SWAP2 SWAP1 PUSH2 0x4C17 JUMP JUMPDEST PUSH2 0x2CB1 SWAP2 SWAP1 PUSH2 0x4C85 JUMP JUMPDEST SWAP1 POP PUSH0 DUP2 DUP4 PUSH2 0x2CC0 SWAP2 SWAP1 PUSH2 0x49E0 JUMP JUMPDEST SWAP1 POP DUP3 PUSH1 0xA PUSH0 CALLER PUSH20 0xFFFFFFFFFFFFFFFFFFFFFFFFFFFFFFFFFFFFFFFF AND PUSH20 0xFFFFFFFFFFFFFFFFFFFFFFFFFFFFFFFFFFFFFFFF AND DUP2 MSTORE PUSH1 0x20 ADD SWAP1 DUP2 MSTORE PUSH1 0x20 ADD PUSH0 KECCAK256 PUSH0 DUP3 DUP3 SLOAD PUSH2 0x2D0E SWAP2 SWAP1 PUSH2 0x49AD JUMP JUMPDEST SWAP3 POP POP DUP2 SWAP1 SSTORE POP PUSH1 0x6 PUSH0 DUP2 SLOAD DUP1 SWAP3 SWAP2 SWAP1 PUSH2 0x2D27 SWAP1 PUSH2 0x4ACA JUMP JUMPDEST SWAP2 SWAP1 POP SSTORE POP PUSH1 0x40 MLOAD DUP1 PUSH1 0xC0 ADD PUSH1 0x40 MSTORE DUP1 PUSH1 0x6 SLOAD DUP2 MSTORE PUSH1 0x20 ADD CALLER PUSH20 0xFFFFFFFFFFFFFFFFFFFFFFFFFFFFFFFFFFFFFFFF AND DUP2 MSTORE PUSH1 0x20 ADD DUP3 DUP2 MSTORE PUSH1 0x20 ADD DUP8 PUSH20 0xFFFFFFFFFFFFFFFFFFFFFFFFFFFFFFFFFFFFFFFF AND DUP2 MSTORE PUSH1 0x20 ADD DUP7 DUP2 MSTORE PUSH1 0x20 ADD PUSH0 ISZERO ISZERO DUP2 MSTORE POP PUSH1 0x7 PUSH0 PUSH1 0x6 SLOAD DUP2 MSTORE PUSH1 0x20 ADD SWAP1 DUP2 MSTORE PUSH1 0x20 ADD PUSH0 KECCAK256 PUSH0 DUP3 ADD MLOAD DUP2 PUSH0 ADD SSTORE PUSH1 0x20 DUP3 ADD MLOAD DUP2 PUSH1 0x1 ADD PUSH0 PUSH2 0x100 EXP DUP2 SLOAD DUP2 PUSH20 0xFFFFFFFFFFFFFFFFFFFFFFFFFFFFFFFFFFFFFFFF MUL NOT AND SWAP1 DUP4 PUSH20 0xFFFFFFFFFFFFFFFFFFFFFFFFFFFFFFFFFFFFFFFF AND MUL OR SWAP1 SSTORE POP PUSH1 0x40 DUP3 ADD MLOAD DUP2 PUSH1 0x2 ADD SSTORE PUSH1 0x60 DUP3 ADD MLOAD DUP2 PUSH1 0x3 ADD PUSH0 PUSH2 0x100 EXP DUP2 SLOAD DUP2 PUSH20 0xFFFFFFFFFFFFFFFFFFFFFFFFFFFFFFFFFFFFFFFF MUL NOT AND SWAP1 DUP4 PUSH20 0xFFFFFFFFFFFFFFFFFFFFFFFFFFFFFFFFFFFFFFFF AND MUL OR SWAP1 SSTORE POP PUSH1 0x80 DUP3 ADD MLOAD DUP2 PUSH1 0x4 ADD SSTORE PUSH1 0xA0 DUP3 ADD MLOAD DUP2 PUSH1 0x5 ADD PUSH0 PUSH2 0x100 EXP DUP2 SLOAD DUP2 PUSH1 0xFF MUL NOT AND SWAP1 DUP4 ISZERO ISZERO MUL OR SWAP1 SSTORE POP SWAP1 POP POP CALLER PUSH20 0xFFFFFFFFFFFFFFFFFFFFFFFFFFFFFFFFFFFFFFFF AND PUSH32 0x47EC139DA49DF2CB908B88AC42CEFBD8E2B9F21C6E7500F9206AE4465C3E099C PUSH1 0x6 SLOAD DUP4 DUP10 DUP10 PUSH1 0x40 MLOAD PUSH2 0x2EB4 SWAP5 SWAP4 SWAP3 SWAP2 SWAP1 PUSH2 0x5AC0 JUMP JUMPDEST PUSH1 0x40 MLOAD DUP1 SWAP2 SUB SWAP1 LOG2 POP POP POP POP POP POP POP JUMP JUMPDEST PUSH2 0x2ECD PUSH2 0x385C JUMP JUMPDEST PUSH0 PUSH1 0x5 PUSH0 DUP4 DUP2 MSTORE PUSH1 0x20 ADD SWAP1 DUP2 MSTORE PUSH1 0x20 ADD PUSH0 KECCAK256 SWAP1 POP DUP1 PUSH1 0x5 ADD PUSH0 SWAP1 SLOAD SWAP1 PUSH2 0x100 EXP SWAP1 DIV PUSH20 0xFFFFFFFFFFFFFFFFFFFFFFFFFFFFFFFFFFFFFFFF AND PUSH20 0xFFFFFFFFFFFFFFFFFFFFFFFFFFFFFFFFFFFFFFFF AND CALLER PUSH20 0xFFFFFFFFFFFFFFFFFFFFFFFFFFFFFFFFFFFFFFFF AND EQ PUSH2 0x2F72 JUMPI PUSH1 0x40 MLOAD PUSH32 0x8C379A000000000000000000000000000000000000000000000000000000000 DUP2 MSTORE PUSH1 0x4 ADD PUSH2 0x2F69 SWAP1 PUSH2 0x5B4D JUMP JUMPDEST PUSH1 0x40 MLOAD DUP1 SWAP2 SUB SWAP1 REVERT JUMPDEST DUP1 PUSH1 0x5 ADD PUSH1 0x14 SWAP1 SLOAD SWAP1 PUSH2 0x100 EXP SWAP1 DIV PUSH1 0xFF AND ISZERO PUSH2 0x2FC4 JUMPI PUSH1 0x40 MLOAD PUSH32 0x8C379A000000000000000000000000000000000000000000000000000000000 DUP2 MSTORE PUSH1 0x4 ADD PUSH2 0x2FBB SWAP1 PUSH2 0x5BB5 JUMP JUMPDEST PUSH1 0x40 MLOAD DUP1 SWAP2 SUB SWAP1 REVERT JUMPDEST PUSH1 0x1 DUP2 PUSH1 0x5 ADD PUSH1 0x14 PUSH2 0x100 EXP DUP2 SLOAD DUP2 PUSH1 0xFF MUL NOT AND SWAP1 DUP4 ISZERO ISZERO MUL OR SWAP1 SSTORE POP DUP1 PUSH1 0x6 ADD SLOAD PUSH1 0x9 PUSH0 DUP4 PUSH1 0x5 ADD PUSH0 SWAP1 SLOAD SWAP1 PUSH2 0x100 EXP SWAP1 DIV PUSH20 0xFFFFFFFFFFFFFFFFFFFFFFFFFFFFFFFFFFFFFFFF AND PUSH20 0xFFFFFFFFFFFFFFFFFFFFFFFFFFFFFFFFFFFFFFFF AND PUSH20 0xFFFFFFFFFFFFFFFFFFFFFFFFFFFFFFFFFFFFFFFF AND DUP2 MSTORE PUSH1 0x20 ADD SWAP1 DUP2 MSTORE PUSH1 0x20 ADD PUSH0 KECCAK256 PUSH0 DUP3 DUP3 SLOAD PUSH2 0x3054 SWAP2 SWAP1 PUSH2 0x49AD JUMP JUMPDEST SWAP3 POP POP DUP2 SWAP1 SSTORE POP DUP2 PUSH32 0x5A31F5EDCA5237D41A024875DB1596A0FFD609862996AFB3AF78403FF8122B4F DUP3 PUSH1 0x6 ADD SLOAD PUSH1 0x40 MLOAD PUSH2 0x308F SWAP2 SWAP1 PUSH2 0x3FCD JUMP JUMPDEST PUSH1 0x40 MLOAD DUP1 SWAP2 SUB SWAP1 LOG2 POP POP JUMP JUMPDEST PUSH2 0x30A3 PUSH2 0x3786 JUMP JUMPDEST PUSH2 0x30AB PUSH2 0x380D JUMP JUMPDEST PUSH0 PUSH1 0x7 PUSH0 DUP4 DUP2 MSTORE PUSH1 0x20 ADD SWAP1 DUP2 MSTORE PUSH1 0x20 ADD PUSH0 KECCAK256 SWAP1 POP DUP1 PUSH1 0x5 ADD PUSH0 SWAP1 SLOAD SWAP1 PUSH2 0x100 EXP SWAP1 DIV PUSH1 0xFF AND ISZERO PUSH2 0x3110 JUMPI PUSH1 0x40 MLOAD PUSH32 0x8C379A000000000000000000000000000000000000000000000000000000000 DUP2 MSTORE PUSH1 0x4 ADD PUSH2 0x3107 SWAP1 PUSH2 0x5C1D JUMP JUMPDEST PUSH1 0x40 MLOAD DUP1 SWAP2 SUB SWAP1 REVERT JUMPDEST PUSH1 0x1 DUP2 PUSH1 0x5 ADD PUSH0 PUSH2 0x100 EXP DUP2 SLOAD DUP2 PUSH1 0xFF MUL NOT AND SWAP1 DUP4 ISZERO ISZERO MUL OR SWAP1 SSTORE POP DUP1 PUSH1 0x1 ADD PUSH0 SWAP1 SLOAD SWAP1 PUSH2 0x100 EXP SWAP1 DIV PUSH20 0xFFFFFFFFFFFFFFFFFFFFFFFFFFFFFFFFFFFFFFFF AND PUSH20 0xFFFFFFFFFFFFFFFFFFFFFFFFFFFFFFFFFFFFFFFF AND PUSH32 0x2D08CAC1A8295DF97293BB69A1CB4DC4898B354663F76AD363E185529E60F542 DUP4 DUP4 PUSH1 0x2 ADD SLOAD DUP5 PUSH1 0x3 ADD PUSH0 SWAP1 SLOAD SWAP1 PUSH2 0x100 EXP SWAP1 DIV PUSH20 0xFFFFFFFFFFFFFFFFFFFFFFFFFFFFFFFFFFFFFFFF AND DUP6 PUSH1 0x4 ADD SLOAD PUSH1 0x40 MLOAD PUSH2 0x31C6 SWAP5 SWAP4 SWAP3 SWAP2 SWAP1 PUSH2 0x5AC0 JUMP JUMPDEST PUSH1 0x40 MLOAD DUP1 SWAP2 SUB SWAP1 LOG2 POP PUSH2 0x31D7 PUSH2 0x39A7 JUMP JUMPDEST POP JUMP JUMPDEST PUSH2 0x31E2 PUSH2 0x3786 JUMP JUMPDEST PUSH0 PUSH1 0x11 PUSH0 PUSH2 0x100 EXP DUP2 SLOAD DUP2 PUSH1 0xFF MUL NOT AND SWAP1 DUP4 ISZERO ISZERO MUL OR SWAP1 SSTORE POP JUMP JUMPDEST PUSH1 0x11 PUSH0 SWAP1 SLOAD SWAP1 PUSH2 0x100 EXP SWAP1 DIV PUSH1 0xFF AND DUP2 JUMP JUMPDEST PUSH2 0x3217 PUSH2 0x385C JUMP JUMPDEST DUP2 DUP2 PUSH1 0x10 PUSH0 CALLER PUSH20 0xFFFFFFFFFFFFFFFFFFFFFFFFFFFFFFFFFFFFFFFF AND PUSH20 0xFFFFFFFFFFFFFFFFFFFFFFFFFFFFFFFFFFFFFFFF AND DUP2 MSTORE PUSH1 0x20 ADD SWAP1 DUP2 MSTORE PUSH1 0x20 ADD PUSH0 KECCAK256 SWAP2 DUP3 PUSH2 0x3263 SWAP3 SWAP2 SWAP1 PUSH2 0x5807 JUMP JUMPDEST POP POP POP JUMP JUMPDEST PUSH1 0x10 PUSH1 0x20 MSTORE DUP1 PUSH0 MSTORE PUSH1 0x40 PUSH0 KECCAK256 PUSH0 SWAP2 POP SWAP1 POP DUP1 SLOAD PUSH2 0x3284 SWAP1 PUSH2 0x4A6D JUMP JUMPDEST DUP1 PUSH1 0x1F ADD PUSH1 0x20 DUP1 SWAP2 DIV MUL PUSH1 0x20 ADD PUSH1 0x40 MLOAD SWAP1 DUP2 ADD PUSH1 0x40 MSTORE DUP1 SWAP3 SWAP2 SWAP1 DUP2 DUP2 MSTORE PUSH1 0x20 ADD DUP3 DUP1 SLOAD PUSH2 0x32B0 SWAP1 PUSH2 0x4A6D JUMP JUMPDEST DUP1 ISZERO PUSH2 0x32FB JUMPI DUP1 PUSH1 0x1F LT PUSH2 0x32D2 JUMPI PUSH2 0x100 DUP1 DUP4 SLOAD DIV MUL DUP4 MSTORE SWAP2 PUSH1 0x20 ADD SWAP2 PUSH2 0x32FB JUMP JUMPDEST DUP3 ADD SWAP2 SWAP1 PUSH0 MSTORE PUSH1 0x20 PUSH0 KECCAK256 SWAP1 JUMPDEST DUP2 SLOAD DUP2 MSTORE SWAP1 PUSH1 0x1 ADD SWAP1 PUSH1 0x20 ADD DUP1 DUP4 GT PUSH2 0x32DE JUMPI DUP3 SWAP1 SUB PUSH1 0x1F AND DUP3 ADD SWAP2 JUMPDEST POP POP POP POP POP DUP2 JUMP JUMPDEST PUSH2 0x330B PUSH2 0x3786 JUMP JUMPDEST PUSH0 PUSH20 0xFFFFFFFFFFFFFFFFFFFFFFFFFFFFFFFFFFFFFFFF AND DUP2 PUSH20 0xFFFFFFFFFFFFFFFFFFFFFFFFFFFFFFFFFFFFFFFF AND SUB PUSH2 0x3379 JUMPI PUSH1 0x40 MLOAD PUSH32 0x8C379A000000000000000000000000000000000000000000000000000000000 DUP2 MSTORE PUSH1 0x4 ADD PUSH2 0x3370 SWAP1 PUSH2 0x5C85 JUMP JUMPDEST PUSH1 0x40 MLOAD DUP1 SWAP2 SUB SWAP1 REVERT JUMPDEST DUP1 PUSH1 0xD PUSH0 PUSH2 0x100 EXP DUP2 SLOAD DUP2 PUSH20 0xFFFFFFFFFFFFFFFFFFFFFFFFFFFFFFFFFFFFFFFF MUL NOT AND SWAP1 DUP4 PUSH20 0xFFFFFFFFFFFFFFFFFFFFFFFFFFFFFFFFFFFFFFFF AND MUL OR SWAP1 SSTORE POP DUP1 PUSH20 0xFFFFFFFFFFFFFFFFFFFFFFFFFFFFFFFFFFFFFFFF AND PUSH32 0x5E1C00E9FF18E7E450A492928F1EED7CDE32FFF1BE56C68201EEA3D503241A26 PUSH1 0x40 MLOAD PUSH1 0x40 MLOAD DUP1 SWAP2 SUB SWAP1 LOG2 POP JUMP JUMPDEST PUSH1 0xC PUSH0 SWAP1 SLOAD SWAP1 PUSH2 0x100 EXP SWAP1 DIV PUSH20 0xFFFFFFFFFFFFFFFFFFFFFFFFFFFFFFFFFFFFFFFF AND DUP2 JUMP JUMPDEST PUSH2 0x342C PUSH2 0x3786 JUMP JUMPDEST PUSH0 PUSH20 0xFFFFFFFFFFFFFFFFFFFFFFFFFFFFFFFFFFFFFFFF AND DUP2 PUSH20 0xFFFFFFFFFFFFFFFFFFFFFFFFFFFFFFFFFFFFFFFF AND SUB PUSH2 0x349C JUMPI PUSH0 PUSH1 0x40 MLOAD PUSH32 0x1E4FBDF700000000000000000000000000000000000000000000000000000000 DUP2 MSTORE PUSH1 0x4 ADD PUSH2 0x3493 SWAP2 SWAP1 PUSH2 0x45BC JUMP JUMPDEST PUSH1 0x40 MLOAD DUP1 SWAP2 SUB SWAP1 REVERT JUMPDEST PUSH2 0x34A5 DUP2 PUSH2 0x3A71 JUMP JUMPDEST POP JUMP JUMPDEST PUSH0 DUP2 PUSH1 0x20 ADD CALLDATALOAD PUSH1 0x1 PUSH0 DUP5 PUSH0 ADD PUSH1 0x20 DUP2 ADD SWAP1 PUSH2 0x34C3 SWAP2 SWAP1 PUSH2 0x48BF JUMP JUMPDEST PUSH4 0xFFFFFFFF AND PUSH4 0xFFFFFFFF AND DUP2 MSTORE PUSH1 0x20 ADD SWAP1 DUP2 MSTORE PUSH1 0x20 ADD PUSH0 KECCAK256 SLOAD EQ SWAP1 POP SWAP2 SWAP1 POP JUMP JUMPDEST PUSH0 PUSH0 PUSH1 0x1 PUSH0 DUP5 PUSH4 0xFFFFFFFF AND PUSH4 0xFFFFFFFF AND DUP2 MSTORE PUSH1 0x20 ADD SWAP1 DUP2 MSTORE PUSH1 0x20 ADD PUSH0 KECCAK256 SLOAD SWAP1 POP PUSH0 PUSH0 SHL DUP2 SUB PUSH2 0x354D JUMPI DUP3 PUSH1 0x40 MLOAD PUSH32 0xF6FF4FB700000000000000000000000000000000000000000000000000000000 DUP2 MSTORE PUSH1 0x4 ADD PUSH2 0x3544 SWAP2 SWAP1 PUSH2 0x5CA3 JUMP JUMPDEST PUSH1 0x40 MLOAD DUP1 SWAP2 SUB SWAP1 REVERT JUMPDEST DUP1 SWAP2 POP POP SWAP2 SWAP1 POP JUMP JUMPDEST PUSH1 0x1 PUSH0 DUP9 PUSH0 ADD PUSH1 0x20 DUP2 ADD SWAP1 PUSH2 0x356B SWAP2 SWAP1 PUSH2 0x48BF JUMP JUMPDEST PUSH4 0xFFFFFFFF AND PUSH4 0xFFFFFFFF AND DUP2 MSTORE PUSH1 0x20 ADD SWAP1 DUP2 MSTORE PUSH1 0x20 ADD PUSH0 KECCAK256 SLOAD DUP8 PUSH1 0x20 ADD CALLDATALOAD EQ PUSH2 0x35CA JUMPI PUSH1 0x40 MLOAD PUSH32 0x8C379A000000000000000000000000000000000000000000000000000000000 DUP2 MSTORE PUSH1 0x4 ADD PUSH2 0x35C1 SWAP1 PUSH2 0x5D06 JUMP JUMPDEST PUSH1 0x40 MLOAD DUP1 SWAP2 SUB SWAP1 REVERT JUMPDEST PUSH0 PUSH0 DUP7 DUP7 DUP2 ADD SWAP1 PUSH2 0x35DB SWAP2 SWAP1 PUSH2 0x3D12 JUMP JUMPDEST SWAP2 POP SWAP2 POP PUSH0 DUP3 GT DUP1 ISZERO PUSH2 0x35F0 JUMPI POP PUSH1 0x4 SLOAD DUP3 GT ISZERO JUMPDEST PUSH2 0x362F JUMPI PUSH1 0x40 MLOAD PUSH32 0x8C379A000000000000000000000000000000000000000000000000000000000 DUP2 MSTORE PUSH1 0x4 ADD PUSH2 0x3626 SWAP1 PUSH2 0x5D6E JUMP JUMPDEST PUSH1 0x40 MLOAD DUP1 SWAP2 SUB SWAP1 REVERT JUMPDEST PUSH0 PUSH1 0x5 PUSH0 DUP5 DUP2 MSTORE PUSH1 0x20 ADD SWAP1 DUP2 MSTORE PUSH1 0x20 ADD PUSH0 KECCAK256 SWAP1 POP DUP1 PUSH1 0x5 ADD PUSH1 0x14 SWAP1 SLOAD SWAP1 PUSH2 0x100 EXP SWAP1 DIV PUSH1 0xFF AND ISZERO PUSH2 0x3695 JUMPI PUSH1 0x40 MLOAD PUSH32 0x8C379A000000000000000000000000000000000000000000000000000000000 DUP2 MSTORE PUSH1 0x4 ADD PUSH2 0x368C SWAP1 PUSH2 0x4B91 JUMP JUMPDEST PUSH1 0x40 MLOAD DUP1 SWAP2 SUB SWAP1 REVERT JUMPDEST DUP2 DUP2 PUSH1 0x6 ADD PUSH0 DUP3 DUP3 SLOAD PUSH2 0x36A8 SWAP2 SWAP1 PUSH2 0x49AD JUMP JUMPDEST SWAP3 POP POP DUP2 SWAP1 SSTORE POP DUP2 PUSH1 0x8 PUSH0 DUP4 PUSH1 0x5 ADD PUSH0 SWAP1 SLOAD SWAP1 PUSH2 0x100 EXP SWAP1 DIV PUSH20 0xFFFFFFFFFFFFFFFFFFFFFFFFFFFFFFFFFFFFFFFF AND PUSH20 0xFFFFFFFFFFFFFFFFFFFFFFFFFFFFFFFFFFFFFFFF AND PUSH20 0xFFFFFFFFFFFFFFFFFFFFFFFFFFFFFFFFFFFFFFFF AND DUP2 MSTORE PUSH1 0x20 ADD SWAP1 DUP2 MSTORE PUSH1 0x20 ADD PUSH0 KECCAK256 PUSH0 DUP3 DUP3 SLOAD PUSH2 0x371E SWAP2 SWAP1 PUSH2 0x49AD JUMP JUMPDEST SWAP3 POP POP DUP2 SWAP1 SSTORE POP DUP10 PUSH1 0x20 ADD CALLDATALOAD PUSH0 SHR PUSH20 0xFFFFFFFFFFFFFFFFFFFFFFFFFFFFFFFFFFFFFFFF AND DUP4 PUSH32 0xE555DA28BDB778F65D22794D88927EBAECA03F7DE9D1B7D39245BC8FB5CA078A DUP5 PUSH1 0x40 MLOAD PUSH2 0x3772 SWAP2 SWAP1 PUSH2 0x3FCD JUMP JUMPDEST PUSH1 0x40 MLOAD DUP1 SWAP2 SUB SWAP1 LOG3 POP POP POP POP POP POP POP POP POP POP JUMP JUMPDEST PUSH2 0x378E PUSH2 0x3B94 JUMP JUMPDEST PUSH20 0xFFFFFFFFFFFFFFFFFFFFFFFFFFFFFFFFFFFFFFFF AND PUSH2 0x37AC PUSH2 0x287B JUMP JUMPDEST PUSH20 0xFFFFFFFFFFFFFFFFFFFFFFFFFFFFFFFFFFFFFFFF AND EQ PUSH2 0x380B JUMPI PUSH2 0x37CF PUSH2 0x3B94 JUMP JUMPDEST PUSH1 0x40 MLOAD PUSH32 0x118CDAA700000000000000000000000000000000000000000000000000000000 DUP2 MSTORE PUSH1 0x4 ADD PUSH2 0x3802 SWAP2 SWAP1 PUSH2 0x45BC JUMP JUMPDEST PUSH1 0x40 MLOAD DUP1 SWAP2 SUB SWAP1 REVERT JUMPDEST JUMP JUMPDEST PUSH1 0x2 PUSH1 0x3 SLOAD SUB PUSH2 0x3852 JUMPI PUSH1 0x40 MLOAD PUSH32 0x8C379A000000000000000000000000000000000000000000000000000000000 DUP2 MSTORE PUSH1 0x4 ADD PUSH2 0x3849 SWAP1 PUSH2 0x5DD6 JUMP JUMPDEST PUSH1 0x40 MLOAD DUP1 SWAP2 SUB SWAP1 REVERT JUMPDEST PUSH1 0x2 PUSH1 0x3 DUP2 SWAP1 SSTORE POP JUMP JUMPDEST PUSH2 0x3864 PUSH2 0x1DBF JUMP JUMPDEST ISZERO PUSH2 0x38A4 JUMPI PUSH1 0x40 MLOAD PUSH32 0x8C379A000000000000000000000000000000000000000000000000000000000 DUP2 MSTORE PUSH1 0x4 ADD PUSH2 0x389B SWAP1 PUSH2 0x5E3E JUMP JUMPDEST PUSH1 0x40 MLOAD DUP1 SWAP2 SUB SWAP1 REVERT JUMPDEST JUMP JUMPDEST PUSH2 0x3922 DUP5 DUP6 PUSH20 0xFFFFFFFFFFFFFFFFFFFFFFFFFFFFFFFFFFFFFFFF AND PUSH4 0x23B872DD DUP7 DUP7 DUP7 PUSH1 0x40 MLOAD PUSH1 0x24 ADD PUSH2 0x38DB SWAP4 SWAP3 SWAP2 SWAP1 PUSH2 0x5E5C JUMP JUMPDEST PUSH1 0x40 MLOAD PUSH1 0x20 DUP2 DUP4 SUB SUB DUP2 MSTORE SWAP1 PUSH1 0x40 MSTORE SWAP2 POP PUSH1 0xE0 SHL PUSH1 0x20 DUP3 ADD DUP1 MLOAD PUSH28 0xFFFFFFFFFFFFFFFFFFFFFFFFFFFFFFFFFFFFFFFFFFFFFFFFFFFFFFFF DUP4 DUP2 DUP4 AND OR DUP4 MSTORE POP POP POP POP PUSH2 0x3B9B JUMP JUMPDEST POP POP POP POP JUMP JUMPDEST PUSH2 0x39A2 DUP4 DUP5 PUSH20 0xFFFFFFFFFFFFFFFFFFFFFFFFFFFFFFFFFFFFFFFF AND PUSH4 0xA9059CBB DUP6 DUP6 PUSH1 0x40 MLOAD PUSH1 0x24 ADD PUSH2 0x395B SWAP3 SWAP2 SWAP1 PUSH2 0x5E91 JUMP JUMPDEST PUSH1 0x40 MLOAD PUSH1 0x20 DUP2 DUP4 SUB SUB DUP2 MSTORE SWAP1 PUSH1 0x40 MSTORE SWAP2 POP PUSH1 0xE0 SHL PUSH1 0x20 DUP3 ADD DUP1 MLOAD PUSH28 0xFFFFFFFFFFFFFFFFFFFFFFFFFFFFFFFFFFFFFFFFFFFFFFFFFFFFFFFF DUP4 DUP2 DUP4 AND OR DUP4 MSTORE POP POP POP POP PUSH2 0x3B9B JUMP JUMPDEST POP POP POP JUMP JUMPDEST PUSH1 0x1 PUSH1 0x3 DUP2 SWAP1 SSTORE POP JUMP JUMPDEST DUP1 PUSH1 0x1 PUSH0 DUP5 PUSH4 0xFFFFFFFF AND PUSH4 0xFFFFFFFF AND DUP2 MSTORE PUSH1 0x20 ADD SWAP1 DUP2 MSTORE PUSH1 0x20 ADD PUSH0 KECCAK256 DUP2 SWAP1 SSTORE POP PUSH32 0x238399D427B947898EDB290F5FF0F9109849B1C3BA196A42E35F00C50A54B98B DUP3 DUP3 PUSH1 0x40 MLOAD PUSH2 0x3A04 SWAP3 SWAP2 SWAP1 PUSH2 0x4B20 JUMP JUMPDEST PUSH1 0x40 MLOAD DUP1 SWAP2 SUB SWAP1 LOG1 POP POP JUMP JUMPDEST PUSH2 0x3A18 PUSH2 0x3C36 JUMP JUMPDEST PUSH0 PUSH1 0x2 PUSH0 PUSH2 0x100 EXP DUP2 SLOAD DUP2 PUSH1 0xFF MUL NOT AND SWAP1 DUP4 ISZERO ISZERO MUL OR SWAP1 SSTORE POP PUSH32 0x5DB9EE0A495BF2E6FF9C91A7834C1BA4FDD244A5E8AA4E537BD38AEAE4B073AA PUSH2 0x3A5A PUSH2 0x3B94 JUMP JUMPDEST PUSH1 0x40 MLOAD PUSH2 0x3A67 SWAP2 SWAP1 PUSH2 0x45BC JUMP JUMPDEST PUSH1 0x40 MLOAD DUP1 SWAP2 SUB SWAP1 LOG1 JUMP JUMPDEST PUSH0 PUSH0 PUSH0 SWAP1 SLOAD SWAP1 PUSH2 0x100 EXP SWAP1 DIV PUSH20 0xFFFFFFFFFFFFFFFFFFFFFFFFFFFFFFFFFFFFFFFF AND SWAP1 POP DUP2 PUSH0 PUSH0 PUSH2 0x100 EXP DUP2 SLOAD DUP2 PUSH20 0xFFFFFFFFFFFFFFFFFFFFFFFFFFFFFFFFFFFFFFFF MUL NOT AND SWAP1 DUP4 PUSH20 0xFFFFFFFFFFFFFFFFFFFFFFFFFFFFFFFFFFFFFFFF AND MUL OR SWAP1 SSTORE POP DUP2 PUSH20 0xFFFFFFFFFFFFFFFFFFFFFFFFFFFFFFFFFFFFFFFF AND DUP2 PUSH20 0xFFFFFFFFFFFFFFFFFFFFFFFFFFFFFFFFFFFFFFFF AND PUSH32 0x8BE0079C531659141344CD1FD0A4F28419497F9722A3DAAFE3B4186F6B6457E0 PUSH1 0x40 MLOAD PUSH1 0x40 MLOAD DUP1 SWAP2 SUB SWAP1 LOG3 POP POP JUMP JUMPDEST PUSH2 0x3B3A PUSH2 0x385C JUMP JUMPDEST PUSH1 0x1 PUSH1 0x2 PUSH0 PUSH2 0x100 EXP DUP2 SLOAD DUP2 PUSH1 0xFF MUL NOT AND SWAP1 DUP4 ISZERO ISZERO MUL OR SWAP1 SSTORE POP PUSH32 0x62E78CEA01BEE320CD4E420270B5EA74000D11B0C9F74754EBDBFC544B05A258 PUSH2 0x3B7D PUSH2 0x3B94 JUMP JUMPDEST PUSH1 0x40 MLOAD PUSH2 0x3B8A SWAP2 SWAP1 PUSH2 0x45BC JUMP JUMPDEST PUSH1 0x40 MLOAD DUP1 SWAP2 SUB SWAP1 LOG1 JUMP JUMPDEST PUSH0 CALLER SWAP1 POP SWAP1 JUMP JUMPDEST PUSH0 PUSH0 PUSH1 0x20 PUSH0 DUP5 MLOAD PUSH1 0x20 DUP7 ADD PUSH0 DUP9 GAS CALL DUP1 PUSH2 0x3BBA JUMPI PUSH1 0x40 MLOAD RETURNDATASIZE PUSH0 DUP3 RETURNDATACOPY RETURNDATASIZE DUP2 REVERT JUMPDEST RETURNDATASIZE SWAP3 POP PUSH0 MLOAD SWAP2 POP POP PUSH0 DUP3 EQ PUSH2 0x3BD3 JUMPI PUSH1 0x1 DUP2 EQ ISZERO PUSH2 0x3BEE JUMP JUMPDEST PUSH0 DUP5 PUSH20 0xFFFFFFFFFFFFFFFFFFFFFFFFFFFFFFFFFFFFFFFF AND EXTCODESIZE EQ JUMPDEST ISZERO PUSH2 0x3C30 JUMPI DUP4 PUSH1 0x40 MLOAD PUSH32 0x5274AFE700000000000000000000000000000000000000000000000000000000 DUP2 MSTORE PUSH1 0x4 ADD PUSH2 0x3C27 SWAP2 SWAP1 PUSH2 0x45BC JUMP JUMPDEST PUSH1 0x40 MLOAD DUP1 SWAP2 SUB SWAP1 REVERT JUMPDEST POP POP POP POP JUMP JUMPDEST PUSH2 0x3C3E PUSH2 0x1DBF JUMP JUMPDEST PUSH2 0x3C7D JUMPI PUSH1 0x40 MLOAD PUSH32 0x8C379A000000000000000000000000000000000000000000000000000000000 DUP2 MSTORE PUSH1 0x4 ADD PUSH2 0x3C74 SWAP1 PUSH2 0x5F02 JUMP JUMPDEST PUSH1 0x40 MLOAD DUP1 SWAP2 SUB SWAP1 REVERT JUMPDEST JUMP JUMPDEST PUSH1 0x40 MLOAD DUP1 PUSH2 0x100 ADD PUSH1 0x40 MSTORE DUP1 PUSH1 0x60 DUP2 MSTORE PUSH1 0x20 ADD PUSH0 DUP2 MSTORE PUSH1 0x20 ADD PUSH1 0x60 DUP2 MSTORE PUSH1 0x20 ADD PUSH1 0x60 DUP2 MSTORE PUSH1 0x20 ADD PUSH0 DUP2 MSTORE PUSH1 0x20 ADD PUSH0 PUSH20 0xFFFFFFFFFFFFFFFFFFFFFFFFFFFFFFFFFFFFFFFF AND DUP2 MSTORE PUSH1 0x20 ADD PUSH0 ISZERO ISZERO DUP2 MSTORE PUSH1 0x20 ADD PUSH0 DUP2 MSTORE POP SWAP1 JUMP JUMPDEST PUSH0 PUSH0 REVERT JUMPDEST PUSH0 PUSH0 REVERT JUMPDEST PUSH0 DUP2 SWAP1 POP SWAP2 SWAP1 POP JUMP JUMPDEST PUSH2 0x3CF1 DUP2 PUSH2 0x3CDF JUMP JUMPDEST DUP2 EQ PUSH2 0x3CFB JUMPI PUSH0 PUSH0 REVERT JUMPDEST POP JUMP JUMPDEST PUSH0 DUP2 CALLDATALOAD SWAP1 POP PUSH2 0x3D0C DUP2 PUSH2 0x3CE8 JUMP JUMPDEST SWAP3 SWAP2 POP POP JUMP JUMPDEST PUSH0 PUSH0 PUSH1 0x40 DUP4 DUP6 SUB SLT ISZERO PUSH2 0x3D28 JUMPI PUSH2 0x3D27 PUSH2 0x3CD7 JUMP JUMPDEST JUMPDEST PUSH0 PUSH2 0x3D35 DUP6 DUP3 DUP7 ADD PUSH2 0x3CFE JUMP JUMPDEST SWAP3 POP POP PUSH1 0x20 PUSH2 0x3D46 DUP6 DUP3 DUP7 ADD PUSH2 0x3CFE JUMP JUMPDEST SWAP2 POP POP SWAP3 POP SWAP3 SWAP1 POP JUMP JUMPDEST PUSH0 DUP2 MLOAD SWAP1 POP SWAP2 SWAP1 POP JUMP JUMPDEST PUSH0 DUP3 DUP3 MSTORE PUSH1 0x20 DUP3 ADD SWAP1 POP SWAP3 SWAP2 POP POP JUMP JUMPDEST PUSH0 DUP2 SWAP1 POP PUSH1 0x20 DUP3 ADD SWAP1 POP SWAP2 SWAP1 POP JUMP JUMPDEST PUSH0 DUP2 MLOAD SWAP1 POP SWAP2 SWAP1 POP JUMP JUMPDEST PUSH0 DUP3 DUP3 MSTORE PUSH1 0x20 DUP3 ADD SWAP1 POP SWAP3 SWAP2 POP POP JUMP JUMPDEST DUP3 DUP2 DUP4 MCOPY PUSH0 DUP4 DUP4 ADD MSTORE POP POP POP JUMP JUMPDEST PUSH0 PUSH1 0x1F NOT PUSH1 0x1F DUP4 ADD AND SWAP1 POP SWAP2 SWAP1 POP JUMP JUMPDEST PUSH0 PUSH2 0x3DBB DUP3 PUSH2 0x3D79 JUMP JUMPDEST PUSH2 0x3DC5 DUP2 DUP6 PUSH2 0x3D83 JUMP JUMPDEST SWAP4 POP PUSH2 0x3DD5 DUP2 DUP6 PUSH1 0x20 DUP7 ADD PUSH2 0x3D93 JUMP JUMPDEST PUSH2 0x3DDE DUP2 PUSH2 0x3DA1 JUMP JUMPDEST DUP5 ADD SWAP2 POP POP SWAP3 SWAP2 POP POP JUMP JUMPDEST PUSH2 0x3DF2 DUP2 PUSH2 0x3CDF JUMP JUMPDEST DUP3 MSTORE POP POP JUMP JUMPDEST PUSH0 PUSH20 0xFFFFFFFFFFFFFFFFFFFFFFFFFFFFFFFFFFFFFFFF DUP3 AND SWAP1 POP SWAP2 SWAP1 POP JUMP JUMPDEST PUSH0 PUSH2 0x3E21 DUP3 PUSH2 0x3DF8 JUMP JUMPDEST SWAP1 POP SWAP2 SWAP1 POP JUMP JUMPDEST PUSH2 0x3E31 DUP2 PUSH2 0x3E17 JUMP JUMPDEST DUP3 MSTORE POP POP JUMP JUMPDEST PUSH0 DUP2 ISZERO ISZERO SWAP1 POP SWAP2 SWAP1 POP JUMP JUMPDEST PUSH2 0x3E4B DUP2 PUSH2 0x3E37 JUMP JUMPDEST DUP3 MSTORE POP POP JUMP JUMPDEST PUSH0 PUSH2 0x100 DUP4 ADD PUSH0 DUP4 ADD MLOAD DUP5 DUP3 SUB PUSH0 DUP7 ADD MSTORE PUSH2 0x3E6C DUP3 DUP3 PUSH2 0x3DB1 JUMP JUMPDEST SWAP2 POP POP PUSH1 0x20 DUP4 ADD MLOAD PUSH2 0x3E81 PUSH1 0x20 DUP7 ADD DUP3 PUSH2 0x3DE9 JUMP JUMPDEST POP PUSH1 0x40 DUP4 ADD MLOAD DUP5 DUP3 SUB PUSH1 0x40 DUP7 ADD MSTORE PUSH2 0x3E99 DUP3 DUP3 PUSH2 0x3DB1 JUMP JUMPDEST SWAP2 POP POP PUSH1 0x60 DUP4 ADD MLOAD DUP5 DUP3 SUB PUSH1 0x60 DUP7 ADD MSTORE PUSH2 0x3EB3 DUP3 DUP3 PUSH2 0x3DB1 JUMP JUMPDEST SWAP2 POP POP PUSH1 0x80 DUP4 ADD MLOAD PUSH2 0x3EC8 PUSH1 0x80 DUP7 ADD DUP3 PUSH2 0x3DE9 JUMP JUMPDEST POP PUSH1 0xA0 DUP4 ADD MLOAD PUSH2 0x3EDB PUSH1 0xA0 DUP7 ADD DUP3 PUSH2 0x3E28 JUMP JUMPDEST POP PUSH1 0xC0 DUP4 ADD MLOAD PUSH2 0x3EEE PUSH1 0xC0 DUP7 ADD DUP3 PUSH2 0x3E42 JUMP JUMPDEST POP PUSH1 0xE0 DUP4 ADD MLOAD PUSH2 0x3F01 PUSH1 0xE0 DUP7 ADD DUP3 PUSH2 0x3DE9 JUMP JUMPDEST POP DUP1 SWAP2 POP POP SWAP3 SWAP2 POP POP JUMP JUMPDEST PUSH0 PUSH2 0x3F17 DUP4 DUP4 PUSH2 0x3E51 JUMP JUMPDEST SWAP1 POP SWAP3 SWAP2 POP POP JUMP JUMPDEST PUSH0 PUSH1 0x20 DUP3 ADD SWAP1 POP SWAP2 SWAP1 POP JUMP JUMPDEST PUSH0 PUSH2 0x3F35 DUP3 PUSH2 0x3D50 JUMP JUMPDEST PUSH2 0x3F3F DUP2 DUP6 PUSH2 0x3D5A JUMP JUMPDEST SWAP4 POP DUP4 PUSH1 0x20 DUP3 MUL DUP6 ADD PUSH2 0x3F51 DUP6 PUSH2 0x3D6A JUMP JUMPDEST DUP1 PUSH0 JUMPDEST DUP6 DUP2 LT ISZERO PUSH2 0x3F8C JUMPI DUP5 DUP5 SUB DUP10 MSTORE DUP2 MLOAD PUSH2 0x3F6D DUP6 DUP3 PUSH2 0x3F0C JUMP JUMPDEST SWAP5 POP PUSH2 0x3F78 DUP4 PUSH2 0x3F1F JUMP JUMPDEST SWAP3 POP PUSH1 0x20 DUP11 ADD SWAP10 POP POP PUSH1 0x1 DUP2 ADD SWAP1 POP PUSH2 0x3F54 JUMP JUMPDEST POP DUP3 SWAP8 POP DUP8 SWAP6 POP POP POP POP POP POP SWAP3 SWAP2 POP POP JUMP JUMPDEST PUSH0 PUSH1 0x20 DUP3 ADD SWAP1 POP DUP2 DUP2 SUB PUSH0 DUP4 ADD MSTORE PUSH2 0x3FB6 DUP2 DUP5 PUSH2 0x3F2B JUMP JUMPDEST SWAP1 POP SWAP3 SWAP2 POP POP JUMP JUMPDEST PUSH2 0x3FC7 DUP2 PUSH2 0x3CDF JUMP JUMPDEST DUP3 MSTORE POP POP JUMP JUMPDEST PUSH0 PUSH1 0x20 DUP3 ADD SWAP1 POP PUSH2 0x3FE0 PUSH0 DUP4 ADD DUP5 PUSH2 0x3FBE JUMP JUMPDEST SWAP3 SWAP2 POP POP JUMP JUMPDEST PUSH0 PUSH0 REVERT JUMPDEST PUSH0 PUSH1 0x60 DUP3 DUP5 SUB SLT ISZERO PUSH2 0x3FFF JUMPI PUSH2 0x3FFE PUSH2 0x3FE6 JUMP JUMPDEST JUMPDEST DUP2 SWAP1 POP SWAP3 SWAP2 POP POP JUMP JUMPDEST PUSH0 DUP2 SWAP1 POP SWAP2 SWAP1 POP JUMP JUMPDEST PUSH2 0x401A DUP2 PUSH2 0x4008 JUMP JUMPDEST DUP2 EQ PUSH2 0x4024 JUMPI PUSH0 PUSH0 REVERT JUMPDEST POP JUMP JUMPDEST PUSH0 DUP2 CALLDATALOAD SWAP1 POP PUSH2 0x4035 DUP2 PUSH2 0x4011 JUMP JUMPDEST SWAP3 SWAP2 POP POP JUMP JUMPDEST PUSH0 PUSH0 REVERT JUMPDEST PUSH0 PUSH0 REVERT JUMPDEST PUSH0 PUSH0 REVERT JUMPDEST PUSH0 PUSH0 DUP4 PUSH1 0x1F DUP5 ADD SLT PUSH2 0x405C JUMPI PUSH2 0x405B PUSH2 0x403B JUMP JUMPDEST JUMPDEST DUP3 CALLDATALOAD SWAP1 POP PUSH8 0xFFFFFFFFFFFFFFFF DUP2 GT ISZERO PUSH2 0x4079 JUMPI PUSH2 0x4078 PUSH2 0x403F JUMP JUMPDEST JUMPDEST PUSH1 0x20 DUP4 ADD SWAP2 POP DUP4 PUSH1 0x1 DUP3 MUL DUP4 ADD GT ISZERO PUSH2 0x4095 JUMPI PUSH2 0x4094 PUSH2 0x4043 JUMP JUMPDEST JUMPDEST SWAP3 POP SWAP3 SWAP1 POP JUMP JUMPDEST PUSH2 0x40A5 DUP2 PUSH2 0x3E17 JUMP JUMPDEST DUP2 EQ PUSH2 0x40AF JUMPI PUSH0 PUSH0 REVERT JUMPDEST POP JUMP JUMPDEST PUSH0 DUP2 CALLDATALOAD SWAP1 POP PUSH2 0x40C0 DUP2 PUSH2 0x409C JUMP JUMPDEST SWAP3 SWAP2 POP POP JUMP JUMPDEST PUSH0 PUSH0 PUSH0 PUSH0 PUSH0 PUSH0 PUSH0 PUSH1 0xE0 DUP9 DUP11 SUB SLT ISZERO PUSH2 0x40E1 JUMPI PUSH2 0x40E0 PUSH2 0x3CD7 JUMP JUMPDEST JUMPDEST PUSH0 PUSH2 0x40EE DUP11 DUP3 DUP12 ADD PUSH2 0x3FEA JUMP JUMPDEST SWAP8 POP POP PUSH1 0x60 PUSH2 0x40FF DUP11 DUP3 DUP12 ADD PUSH2 0x4027 JUMP JUMPDEST SWAP7 POP POP PUSH1 0x80 DUP9 ADD CALLDATALOAD PUSH8 0xFFFFFFFFFFFFFFFF DUP2 GT ISZERO PUSH2 0x4120 JUMPI PUSH2 0x411F PUSH2 0x3CDB JUMP JUMPDEST JUMPDEST PUSH2 0x412C DUP11 DUP3 DUP12 ADD PUSH2 0x4047 JUMP JUMPDEST SWAP6 POP SWAP6 POP POP PUSH1 0xA0 PUSH2 0x413F DUP11 DUP3 DUP12 ADD PUSH2 0x40B2 JUMP JUMPDEST SWAP4 POP POP PUSH1 0xC0 DUP9 ADD CALLDATALOAD PUSH8 0xFFFFFFFFFFFFFFFF DUP2 GT ISZERO PUSH2 0x4160 JUMPI PUSH2 0x415F PUSH2 0x3CDB JUMP JUMPDEST JUMPDEST PUSH2 0x416C DUP11 DUP3 DUP12 ADD PUSH2 0x4047 JUMP JUMPDEST SWAP3 POP SWAP3 POP POP SWAP3 SWAP6 SWAP9 SWAP2 SWAP5 SWAP8 POP SWAP3 SWAP6 POP JUMP JUMPDEST PUSH0 PUSH1 0x20 DUP3 DUP5 SUB SLT ISZERO PUSH2 0x4192 JUMPI PUSH2 0x4191 PUSH2 0x3CD7 JUMP JUMPDEST JUMPDEST PUSH0 PUSH2 0x419F DUP5 DUP3 DUP6 ADD PUSH2 0x3CFE JUMP JUMPDEST SWAP2 POP POP SWAP3 SWAP2 POP POP JUMP JUMPDEST PUSH0 DUP3 DUP3 MSTORE PUSH1 0x20 DUP3 ADD SWAP1 POP SWAP3 SWAP2 POP POP JUMP JUMPDEST PUSH0 PUSH2 0x41C2 DUP3 PUSH2 0x3D79 JUMP JUMPDEST PUSH2 0x41CC DUP2 DUP6 PUSH2 0x41A8 JUMP JUMPDEST SWAP4 POP PUSH2 0x41DC DUP2 DUP6 PUSH1 0x20 DUP7 ADD PUSH2 0x3D93 JUMP JUMPDEST PUSH2 0x41E5 DUP2 PUSH2 0x3DA1 JUMP JUMPDEST DUP5 ADD SWAP2 POP POP SWAP3 SWAP2 POP POP JUMP JUMPDEST PUSH2 0x41F9 DUP2 PUSH2 0x3E17 JUMP JUMPDEST DUP3 MSTORE POP POP JUMP JUMPDEST PUSH2 0x4208 DUP2 PUSH2 0x3E37 JUMP JUMPDEST DUP3 MSTORE POP POP JUMP JUMPDEST PUSH0 PUSH2 0x100 DUP3 ADD SWAP1 POP DUP2 DUP2 SUB PUSH0 DUP4 ADD MSTORE PUSH2 0x4227 DUP2 DUP12 PUSH2 0x41B8 JUMP JUMPDEST SWAP1 POP PUSH2 0x4236 PUSH1 0x20 DUP4 ADD DUP11 PUSH2 0x3FBE JUMP JUMPDEST DUP2 DUP2 SUB PUSH1 0x40 DUP4 ADD MSTORE PUSH2 0x4248 DUP2 DUP10 PUSH2 0x41B8 JUMP JUMPDEST SWAP1 POP DUP2 DUP2 SUB PUSH1 0x60 DUP4 ADD MSTORE PUSH2 0x425C DUP2 DUP9 PUSH2 0x41B8 JUMP JUMPDEST SWAP1 POP PUSH2 0x426B PUSH1 0x80 DUP4 ADD DUP8 PUSH2 0x3FBE JUMP JUMPDEST PUSH2 0x4278 PUSH1 0xA0 DUP4 ADD DUP7 PUSH2 0x41F0 JUMP JUMPDEST PUSH2 0x4285 PUSH1 0xC0 DUP4 ADD DUP6 PUSH2 0x41FF JUMP JUMPDEST PUSH2 0x4292 PUSH1 0xE0 DUP4 ADD DUP5 PUSH2 0x3FBE JUMP JUMPDEST SWAP10 SWAP9 POP POP POP POP POP POP POP POP POP JUMP JUMPDEST PUSH0 PUSH8 0xFFFFFFFFFFFFFFFF DUP3 AND SWAP1 POP SWAP2 SWAP1 POP JUMP JUMPDEST PUSH2 0x42BB DUP2 PUSH2 0x429F JUMP JUMPDEST DUP3 MSTORE POP POP JUMP JUMPDEST PUSH0 PUSH1 0x40 DUP3 ADD SWAP1 POP PUSH2 0x42D4 PUSH0 DUP4 ADD DUP6 PUSH2 0x42B2 JUMP JUMPDEST PUSH2 0x42E1 PUSH1 0x20 DUP4 ADD DUP5 PUSH2 0x42B2 JUMP JUMPDEST SWAP4 SWAP3 POP POP POP JUMP JUMPDEST PUSH0 PUSH4 0xFFFFFFFF DUP3 AND SWAP1 POP SWAP2 SWAP1 POP JUMP JUMPDEST PUSH2 0x4300 DUP2 PUSH2 0x42E8 JUMP JUMPDEST DUP2 EQ PUSH2 0x430A JUMPI PUSH0 PUSH0 REVERT JUMPDEST POP JUMP JUMPDEST PUSH0 DUP2 CALLDATALOAD SWAP1 POP PUSH2 0x431B DUP2 PUSH2 0x42F7 JUMP JUMPDEST SWAP3 SWAP2 POP POP JUMP JUMPDEST PUSH0 PUSH0 PUSH1 0x40 DUP4 DUP6 SUB SLT ISZERO PUSH2 0x4337 JUMPI PUSH2 0x4336 PUSH2 0x3CD7 JUMP JUMPDEST JUMPDEST PUSH0 PUSH2 0x4344 DUP6 DUP3 DUP7 ADD PUSH2 0x430D JUMP JUMPDEST SWAP3 POP POP PUSH1 0x20 PUSH2 0x4355 DUP6 DUP3 DUP7 ADD PUSH2 0x40B2 JUMP JUMPDEST SWAP2 POP POP SWAP3 POP SWAP3 SWAP1 POP JUMP JUMPDEST PUSH0 PUSH1 0x20 DUP3 DUP5 SUB SLT ISZERO PUSH2 0x4374 JUMPI PUSH2 0x4373 PUSH2 0x3CD7 JUMP JUMPDEST JUMPDEST PUSH0 PUSH2 0x4381 DUP5 DUP3 DUP6 ADD PUSH2 0x40B2 JUMP JUMPDEST SWAP2 POP POP SWAP3 SWAP2 POP POP JUMP JUMPDEST PUSH0 PUSH0 PUSH0 PUSH1 0x60 DUP5 DUP7 SUB SLT ISZERO PUSH2 0x43A1 JUMPI PUSH2 0x43A0 PUSH2 0x3CD7 JUMP JUMPDEST JUMPDEST PUSH0 PUSH2 0x43AE DUP7 DUP3 DUP8 ADD PUSH2 0x3CFE JUMP JUMPDEST SWAP4 POP POP PUSH1 0x20 PUSH2 0x43BF DUP7 DUP3 DUP8 ADD PUSH2 0x40B2 JUMP JUMPDEST SWAP3 POP POP PUSH1 0x40 PUSH2 0x43D0 DUP7 DUP3 DUP8 ADD PUSH2 0x3CFE JUMP JUMPDEST SWAP2 POP POP SWAP3 POP SWAP3 POP SWAP3 JUMP JUMPDEST PUSH0 PUSH1 0xFF DUP3 AND SWAP1 POP SWAP2 SWAP1 POP JUMP JUMPDEST PUSH2 0x43EF DUP2 PUSH2 0x43DA JUMP JUMPDEST DUP3 MSTORE POP POP JUMP JUMPDEST PUSH0 PUSH1 0x20 DUP3 ADD SWAP1 POP PUSH2 0x4408 PUSH0 DUP4 ADD DUP5 PUSH2 0x43E6 JUMP JUMPDEST SWAP3 SWAP2 POP POP JUMP JUMPDEST PUSH0 PUSH0 PUSH1 0x40 DUP4 DUP6 SUB SLT ISZERO PUSH2 0x4424 JUMPI PUSH2 0x4423 PUSH2 0x3CD7 JUMP JUMPDEST JUMPDEST PUSH0 PUSH2 0x4431 DUP6 DUP3 DUP7 ADD PUSH2 0x430D JUMP JUMPDEST SWAP3 POP POP PUSH1 0x20 PUSH2 0x4442 DUP6 DUP3 DUP7 ADD PUSH2 0x4027 JUMP JUMPDEST SWAP2 POP POP SWAP3 POP SWAP3 SWAP1 POP JUMP JUMPDEST PUSH0 PUSH0 DUP4 PUSH1 0x1F DUP5 ADD SLT PUSH2 0x4461 JUMPI PUSH2 0x4460 PUSH2 0x403B JUMP JUMPDEST JUMPDEST DUP3 CALLDATALOAD SWAP1 POP PUSH8 0xFFFFFFFFFFFFFFFF DUP2 GT ISZERO PUSH2 0x447E JUMPI PUSH2 0x447D PUSH2 0x403F JUMP JUMPDEST JUMPDEST PUSH1 0x20 DUP4 ADD SWAP2 POP DUP4 PUSH1 0x1 DUP3 MUL DUP4 ADD GT ISZERO PUSH2 0x449A JUMPI PUSH2 0x4499 PUSH2 0x4043 JUMP JUMPDEST JUMPDEST SWAP3 POP SWAP3 SWAP1 POP JUMP JUMPDEST PUSH0 PUSH0 PUSH0 PUSH0 PUSH0 PUSH0 PUSH0 PUSH0 PUSH1 0xA0 DUP10 DUP12 SUB SLT ISZERO PUSH2 0x44BD JUMPI PUSH2 0x44BC PUSH2 0x3CD7 JUMP JUMPDEST JUMPDEST PUSH0 DUP10 ADD CALLDATALOAD PUSH8 0xFFFFFFFFFFFFFFFF DUP2 GT ISZERO PUSH2 0x44DA JUMPI PUSH2 0x44D9 PUSH2 0x3CDB JUMP JUMPDEST JUMPDEST PUSH2 0x44E6 DUP12 DUP3 DUP13 ADD PUSH2 0x444C JUMP JUMPDEST SWAP9 POP SWAP9 POP POP PUSH1 0x20 PUSH2 0x44F9 DUP12 DUP3 DUP13 ADD PUSH2 0x3CFE JUMP JUMPDEST SWAP7 POP POP PUSH1 0x40 DUP10 ADD CALLDATALOAD PUSH8 0xFFFFFFFFFFFFFFFF DUP2 GT ISZERO PUSH2 0x451A JUMPI PUSH2 0x4519 PUSH2 0x3CDB JUMP JUMPDEST JUMPDEST PUSH2 0x4526 DUP12 DUP3 DUP13 ADD PUSH2 0x444C JUMP JUMPDEST SWAP6 POP SWAP6 POP POP PUSH1 0x60 DUP10 ADD CALLDATALOAD PUSH8 0xFFFFFFFFFFFFFFFF DUP2 GT ISZERO PUSH2 0x4549 JUMPI PUSH2 0x4548 PUSH2 0x3CDB JUMP JUMPDEST JUMPDEST PUSH2 0x4555 DUP12 DUP3 DUP13 ADD PUSH2 0x444C JUMP JUMPDEST SWAP4 POP SWAP4 POP POP PUSH1 0x80 PUSH2 0x4568 DUP12 DUP3 DUP13 ADD PUSH2 0x3CFE JUMP JUMPDEST SWAP2 POP POP SWAP3 SWAP6 SWAP9 POP SWAP3 SWAP6 SWAP9 SWAP1 SWAP4 SWAP7 POP JUMP JUMPDEST PUSH0 PUSH1 0x20 DUP3 ADD SWAP1 POP PUSH2 0x458B PUSH0 DUP4 ADD DUP5 PUSH2 0x41FF JUMP JUMPDEST SWAP3 SWAP2 POP POP JUMP JUMPDEST PUSH0 PUSH1 0x20 DUP3 DUP5 SUB SLT ISZERO PUSH2 0x45A6 JUMPI PUSH2 0x45A5 PUSH2 0x3CD7 JUMP JUMPDEST JUMPDEST PUSH0 PUSH2 0x45B3 DUP5 DUP3 DUP6 ADD PUSH2 0x4027 JUMP JUMPDEST SWAP2 POP POP SWAP3 SWAP2 POP POP JUMP JUMPDEST PUSH0 PUSH1 0x20 DUP3 ADD SWAP1 POP PUSH2 0x45CF PUSH0 DUP4 ADD DUP5 PUSH2 0x41F0 JUMP JUMPDEST SWAP3 SWAP2 POP POP JUMP JUMPDEST PUSH0 DUP2 SWAP1 POP SWAP2 SWAP1 POP JUMP JUMPDEST PUSH0 PUSH2 0x45F8 PUSH2 0x45F3 PUSH2 0x45EE DUP5 PUSH2 0x3DF8 JUMP JUMPDEST PUSH2 0x45D5 JUMP JUMPDEST PUSH2 0x3DF8 JUMP JUMPDEST SWAP1 POP SWAP2 SWAP1 POP JUMP JUMPDEST PUSH0 PUSH2 0x4609 DUP3 PUSH2 0x45DE JUMP JUMPDEST SWAP1 POP SWAP2 SWAP1 POP JUMP JUMPDEST PUSH0 PUSH2 0x461A DUP3 PUSH2 0x45FF JUMP JUMPDEST SWAP1 POP SWAP2 SWAP1 POP JUMP JUMPDEST PUSH2 0x462A DUP2 PUSH2 0x4610 JUMP JUMPDEST DUP3 MSTORE POP POP JUMP JUMPDEST PUSH0 PUSH1 0x20 DUP3 ADD SWAP1 POP PUSH2 0x4643 PUSH0 DUP4 ADD DUP5 PUSH2 0x4621 JUMP JUMPDEST SWAP3 SWAP2 POP POP JUMP JUMPDEST PUSH0 PUSH0 PUSH1 0x40 DUP4 DUP6 SUB SLT ISZERO PUSH2 0x465F JUMPI PUSH2 0x465E PUSH2 0x3CD7 JUMP JUMPDEST JUMPDEST PUSH0 PUSH2 0x466C DUP6 DUP3 DUP7 ADD PUSH2 0x40B2 JUMP JUMPDEST SWAP3 POP POP PUSH1 0x20 PUSH2 0x467D DUP6 DUP3 DUP7 ADD PUSH2 0x3CFE JUMP JUMPDEST SWAP2 POP POP SWAP3 POP SWAP3 SWAP1 POP JUMP JUMPDEST PUSH0 PUSH0 PUSH1 0x40 DUP4 DUP6 SUB SLT ISZERO PUSH2 0x469D JUMPI PUSH2 0x469C PUSH2 0x3CD7 JUMP JUMPDEST JUMPDEST PUSH0 PUSH2 0x46AA DUP6 DUP3 DUP7 ADD PUSH2 0x40B2 JUMP JUMPDEST SWAP3 POP POP PUSH1 0x20 PUSH2 0x46BB DUP6 DUP3 DUP7 ADD PUSH2 0x40B2 JUMP JUMPDEST SWAP2 POP POP SWAP3 POP SWAP3 SWAP1 POP JUMP JUMPDEST PUSH0 PUSH1 0x20 DUP3 ADD SWAP1 POP PUSH2 0x46D8 PUSH0 DUP4 ADD DUP5 PUSH2 0x42B2 JUMP JUMPDEST SWAP3 SWAP2 POP POP JUMP JUMPDEST PUSH0 PUSH0 PUSH0 PUSH0 PUSH1 0xA0 DUP6 DUP8 SUB SLT ISZERO PUSH2 0x46F6 JUMPI PUSH2 0x46F5 PUSH2 0x3CD7 JUMP JUMPDEST JUMPDEST PUSH0 PUSH2 0x4703 DUP8 DUP3 DUP9 ADD PUSH2 0x3FEA JUMP JUMPDEST SWAP5 POP POP PUSH1 0x60 DUP6 ADD CALLDATALOAD PUSH8 0xFFFFFFFFFFFFFFFF DUP2 GT ISZERO PUSH2 0x4724 JUMPI PUSH2 0x4723 PUSH2 0x3CDB JUMP JUMPDEST JUMPDEST PUSH2 0x4730 DUP8 DUP3 DUP9 ADD PUSH2 0x4047 JUMP JUMPDEST SWAP4 POP SWAP4 POP POP PUSH1 0x80 PUSH2 0x4743 DUP8 DUP3 DUP9 ADD PUSH2 0x40B2 JUMP JUMPDEST SWAP2 POP POP SWAP3 SWAP6 SWAP2 SWAP5 POP SWAP3 POP JUMP JUMPDEST PUSH2 0x4758 DUP2 PUSH2 0x4008 JUMP JUMPDEST DUP3 MSTORE POP POP JUMP JUMPDEST PUSH0 PUSH1 0x20 DUP3 ADD SWAP1 POP PUSH2 0x4771 PUSH0 DUP4 ADD DUP5 PUSH2 0x474F JUMP JUMPDEST SWAP3 SWAP2 POP POP JUMP JUMPDEST PUSH0 PUSH0 PUSH0 PUSH0 PUSH0 PUSH0 PUSH0 PUSH0 PUSH0 PUSH1 0xC0 DUP11 DUP13 SUB SLT ISZERO PUSH2 0x4794 JUMPI PUSH2 0x4793 PUSH2 0x3CD7 JUMP JUMPDEST JUMPDEST PUSH0 PUSH2 0x47A1 DUP13 DUP3 DUP14 ADD PUSH2 0x3CFE JUMP JUMPDEST SWAP10 POP POP PUSH1 0x20 DUP11 ADD CALLDATALOAD PUSH8 0xFFFFFFFFFFFFFFFF DUP2 GT ISZERO PUSH2 0x47C2 JUMPI PUSH2 0x47C1 PUSH2 0x3CDB JUMP JUMPDEST JUMPDEST PUSH2 0x47CE DUP13 DUP3 DUP14 ADD PUSH2 0x444C JUMP JUMPDEST SWAP9 POP SWAP9 POP POP PUSH1 0x40 PUSH2 0x47E1 DUP13 DUP3 DUP14 ADD PUSH2 0x3CFE JUMP JUMPDEST SWAP7 POP POP PUSH1 0x60 DUP11 ADD CALLDATALOAD PUSH8 0xFFFFFFFFFFFFFFFF DUP2 GT ISZERO PUSH2 0x4802 JUMPI PUSH2 0x4801 PUSH2 0x3CDB JUMP JUMPDEST JUMPDEST PUSH2 0x480E DUP13 DUP3 DUP14 ADD PUSH2 0x444C JUMP JUMPDEST SWAP6 POP SWAP6 POP POP PUSH1 0x80 DUP11 ADD CALLDATALOAD PUSH8 0xFFFFFFFFFFFFFFFF DUP2 GT ISZERO PUSH2 0x4831 JUMPI PUSH2 0x4830 PUSH2 0x3CDB JUMP JUMPDEST JUMPDEST PUSH2 0x483D DUP13 DUP3 DUP14 ADD PUSH2 0x444C JUMP JUMPDEST SWAP4 POP SWAP4 POP POP PUSH1 0xA0 PUSH2 0x4850 DUP13 DUP3 DUP14 ADD PUSH2 0x3CFE JUMP JUMPDEST SWAP2 POP POP SWAP3 SWAP6 SWAP9 POP SWAP3 SWAP6 SWAP9 POP SWAP3 SWAP6 SWAP9 JUMP JUMPDEST PUSH0 PUSH1 0xC0 DUP3 ADD SWAP1 POP PUSH2 0x4873 PUSH0 DUP4 ADD DUP10 PUSH2 0x3FBE JUMP JUMPDEST PUSH2 0x4880 PUSH1 0x20 DUP4 ADD DUP9 PUSH2 0x41F0 JUMP JUMPDEST PUSH2 0x488D PUSH1 0x40 DUP4 ADD DUP8 PUSH2 0x3FBE JUMP JUMPDEST PUSH2 0x489A PUSH1 0x60 DUP4 ADD DUP7 PUSH2 0x41F0 JUMP JUMPDEST PUSH2 0x48A7 PUSH1 0x80 DUP4 ADD DUP6 PUSH2 0x3FBE JUMP JUMPDEST PUSH2 0x48B4 PUSH1 0xA0 DUP4 ADD DUP5 PUSH2 0x41FF JUMP JUMPDEST SWAP8 SWAP7 POP POP POP POP POP POP POP JUMP JUMPDEST PUSH0 PUSH1 0x20 DUP3 DUP5 SUB SLT ISZERO PUSH2 0x48D4 JUMPI PUSH2 0x48D3 PUSH2 0x3CD7 JUMP JUMPDEST JUMPDEST PUSH0 PUSH2 0x48E1 DUP5 DUP3 DUP6 ADD PUSH2 0x430D JUMP JUMPDEST SWAP2 POP POP SWAP3 SWAP2 POP POP JUMP JUMPDEST PUSH0 PUSH0 PUSH1 0x20 DUP4 DUP6 SUB SLT ISZERO PUSH2 0x4900 JUMPI PUSH2 0x48FF PUSH2 0x3CD7 JUMP JUMPDEST JUMPDEST PUSH0 DUP4 ADD CALLDATALOAD PUSH8 0xFFFFFFFFFFFFFFFF DUP2 GT ISZERO PUSH2 0x491D JUMPI PUSH2 0x491C PUSH2 0x3CDB JUMP JUMPDEST JUMPDEST PUSH2 0x4929 DUP6 DUP3 DUP7 ADD PUSH2 0x444C JUMP JUMPDEST SWAP3 POP SWAP3 POP POP SWAP3 POP SWAP3 SWAP1 POP JUMP JUMPDEST PUSH0 PUSH1 0x20 DUP3 ADD SWAP1 POP DUP2 DUP2 SUB PUSH0 DUP4 ADD MSTORE PUSH2 0x494D DUP2 DUP5 PUSH2 0x41B8 JUMP JUMPDEST SWAP1 POP SWAP3 SWAP2 POP POP JUMP JUMPDEST PUSH0 PUSH1 0x60 DUP3 DUP5 SUB SLT ISZERO PUSH2 0x496A JUMPI PUSH2 0x4969 PUSH2 0x3CD7 JUMP JUMPDEST JUMPDEST PUSH0 PUSH2 0x4977 DUP5 DUP3 DUP6 ADD PUSH2 0x3FEA JUMP JUMPDEST SWAP2 POP POP SWAP3 SWAP2 POP POP JUMP JUMPDEST PUSH32 0x4E487B7100000000000000000000000000000000000000000000000000000000 PUSH0 MSTORE PUSH1 0x11 PUSH1 0x4 MSTORE PUSH1 0x24 PUSH0 REVERT JUMPDEST PUSH0 PUSH2 0x49B7 DUP3 PUSH2 0x3CDF JUMP JUMPDEST SWAP2 POP PUSH2 0x49C2 DUP4 PUSH2 0x3CDF JUMP JUMPDEST SWAP3 POP DUP3 DUP3 ADD SWAP1 POP DUP1 DUP3 GT ISZERO PUSH2 0x49DA JUMPI PUSH2 0x49D9 PUSH2 0x4980 JUMP JUMPDEST JUMPDEST SWAP3 SWAP2 POP POP JUMP JUMPDEST PUSH0 PUSH2 0x49EA DUP3 PUSH2 0x3CDF JUMP JUMPDEST SWAP2 POP PUSH2 0x49F5 DUP4 PUSH2 0x3CDF JUMP JUMPDEST SWAP3 POP DUP3 DUP3 SUB SWAP1 POP DUP2 DUP2 GT ISZERO PUSH2 0x4A0D JUMPI PUSH2 0x4A0C PUSH2 0x4980 JUMP JUMPDEST JUMPDEST SWAP3 SWAP2 POP POP JUMP JUMPDEST PUSH32 0x4E487B7100000000000000000000000000000000000000000000000000000000 PUSH0 MSTORE PUSH1 0x41 PUSH1 0x4 MSTORE PUSH1 0x24 PUSH0 REVERT JUMPDEST PUSH32 0x4E487B7100000000000000000000000000000000000000000000000000000000 PUSH0 MSTORE PUSH1 0x22 PUSH1 0x4 MSTORE PUSH1 0x24 PUSH0 REVERT JUMPDEST PUSH0 PUSH1 0x2 DUP3 DIV SWAP1 POP PUSH1 0x1 DUP3 AND DUP1 PUSH2 0x4A84 JUMPI PUSH1 0x7F DUP3 AND SWAP2 POP JUMPDEST PUSH1 0x20 DUP3 LT DUP2 SUB PUSH2 0x4A97 JUMPI PUSH2 0x4A96 PUSH2 0x4A40 JUMP JUMPDEST JUMPDEST POP SWAP2 SWAP1 POP JUMP JUMPDEST PUSH32 0x4E487B7100000000000000000000000000000000000000000000000000000000 PUSH0 MSTORE PUSH1 0x32 PUSH1 0x4 MSTORE PUSH1 0x24 PUSH0 REVERT JUMPDEST PUSH0 PUSH2 0x4AD4 DUP3 PUSH2 0x3CDF JUMP JUMPDEST SWAP2 POP PUSH32 0xFFFFFFFFFFFFFFFFFFFFFFFFFFFFFFFFFFFFFFFFFFFFFFFFFFFFFFFFFFFFFFFF DUP3 SUB PUSH2 0x4B06 JUMPI PUSH2 0x4B05 PUSH2 0x4980 JUMP JUMPDEST JUMPDEST PUSH1 0x1 DUP3 ADD SWAP1 POP SWAP2 SWAP1 POP JUMP JUMPDEST PUSH2 0x4B1A DUP2 PUSH2 0x42E8 JUMP JUMPDEST DUP3 MSTORE POP POP JUMP JUMPDEST PUSH0 PUSH1 0x40 DUP3 ADD SWAP1 POP PUSH2 0x4B33 PUSH0 DUP4 ADD DUP6 PUSH2 0x4B11 JUMP JUMPDEST PUSH2 0x4B40 PUSH1 0x20 DUP4 ADD DUP5 PUSH2 0x474F JUMP JUMPDEST SWAP4 SWAP3 POP POP POP JUMP JUMPDEST PUSH32 0x43616D706169676E20656E646564000000000000000000000000000000000000 PUSH0 DUP3 ADD MSTORE POP JUMP JUMPDEST PUSH0 PUSH2 0x4B7B PUSH1 0xE DUP4 PUSH2 0x41A8 JUMP JUMPDEST SWAP2 POP PUSH2 0x4B86 DUP3 PUSH2 0x4B47 JUMP JUMPDEST PUSH1 0x20 DUP3 ADD SWAP1 POP SWAP2 SWAP1 POP JUMP JUMPDEST PUSH0 PUSH1 0x20 DUP3 ADD SWAP1 POP DUP2 DUP2 SUB PUSH0 DUP4 ADD MSTORE PUSH2 0x4BA8 DUP2 PUSH2 0x4B6F JUMP JUMPDEST SWAP1 POP SWAP2 SWAP1 POP JUMP JUMPDEST PUSH32 0x4E6F206E617469766520636F696E2073656E7400000000000000000000000000 PUSH0 DUP3 ADD MSTORE POP JUMP JUMPDEST PUSH0 PUSH2 0x4BE3 PUSH1 0x13 DUP4 PUSH2 0x41A8 JUMP JUMPDEST SWAP2 POP PUSH2 0x4BEE DUP3 PUSH2 0x4BAF JUMP JUMPDEST PUSH1 0x20 DUP3 ADD SWAP1 POP SWAP2 SWAP1 POP JUMP JUMPDEST PUSH0 PUSH1 0x20 DUP3 ADD SWAP1 POP DUP2 DUP2 SUB PUSH0 DUP4 ADD MSTORE PUSH2 0x4C10 DUP2 PUSH2 0x4BD7 JUMP JUMPDEST SWAP1 POP SWAP2 SWAP1 POP JUMP JUMPDEST PUSH0 PUSH2 0x4C21 DUP3 PUSH2 0x3CDF JUMP JUMPDEST SWAP2 POP PUSH2 0x4C2C DUP4 PUSH2 0x3CDF JUMP JUMPDEST SWAP3 POP DUP3 DUP3 MUL PUSH2 0x4C3A DUP2 PUSH2 0x3CDF JUMP JUMPDEST SWAP2 POP DUP3 DUP3 DIV DUP5 EQ DUP4 ISZERO OR PUSH2 0x4C51 JUMPI PUSH2 0x4C50 PUSH2 0x4980 JUMP JUMPDEST JUMPDEST POP SWAP3 SWAP2 POP POP JUMP JUMPDEST PUSH32 0x4E487B7100000000000000000000000000000000000000000000000000000000 PUSH0 MSTORE PUSH1 0x12 PUSH1 0x4 MSTORE PUSH1 0x24 PUSH0 REVERT JUMPDEST PUSH0 PUSH2 0x4C8F DUP3 PUSH2 0x3CDF JUMP JUMPDEST SWAP2 POP PUSH2 0x4C9A DUP4 PUSH2 0x3CDF JUMP JUMPDEST SWAP3 POP DUP3 PUSH2 0x4CAA JUMPI PUSH2 0x4CA9 PUSH2 0x4C58 JUMP JUMPDEST JUMPDEST DUP3 DUP3 DIV SWAP1 POP SWAP3 SWAP2 POP POP JUMP JUMPDEST PUSH0 DUP2 SWAP1 POP SWAP3 SWAP2 POP POP JUMP JUMPDEST POP JUMP JUMPDEST PUSH0 PUSH2 0x4CCD PUSH0 DUP4 PUSH2 0x4CB5 JUMP JUMPDEST SWAP2 POP PUSH2 0x4CD8 DUP3 PUSH2 0x4CBF JUMP JUMPDEST PUSH0 DUP3 ADD SWAP1 POP SWAP2 SWAP1 POP JUMP JUMPDEST PUSH0 PUSH2 0x4CEC DUP3 PUSH2 0x4CC2 JUMP JUMPDEST SWAP2 POP DUP2 SWAP1 POP SWAP2 SWAP1 POP JUMP JUMPDEST PUSH32 0x466565207472616E73666572206661696C656400000000000000000000000000 PUSH0 DUP3 ADD MSTORE POP JUMP JUMPDEST PUSH0 PUSH2 0x4D2A PUSH1 0x13 DUP4 PUSH2 0x41A8 JUMP JUMPDEST SWAP2 POP PUSH2 0x4D35 DUP3 PUSH2 0x4CF6 JUMP JUMPDEST PUSH1 0x20 DUP3 ADD SWAP1 POP SWAP2 SWAP1 POP JUMP JUMPDEST PUSH0 PUSH1 0x20 DUP3 ADD SWAP1 POP DUP2 DUP2 SUB PUSH0 DUP4 ADD MSTORE PUSH2 0x4D57 DUP2 PUSH2 0x4D1E JUMP JUMPDEST SWAP1 POP SWAP2 SWAP1 POP JUMP JUMPDEST PUSH32 0x5661756C74207472616E73666572206661696C65640000000000000000000000 PUSH0 DUP3 ADD MSTORE POP JUMP JUMPDEST PUSH0 PUSH2 0x4D92 PUSH1 0x15 DUP4 PUSH2 0x41A8 JUMP JUMPDEST SWAP2 POP PUSH2 0x4D9D DUP3 PUSH2 0x4D5E JUMP JUMPDEST PUSH1 0x20 DUP3 ADD SWAP1 POP SWAP2 SWAP1 POP JUMP JUMPDEST PUSH0 PUSH1 0x20 DUP3 ADD SWAP1 POP DUP2 DUP2 SUB PUSH0 DUP4 ADD MSTORE PUSH2 0x4DBF DUP2 PUSH2 0x4D86 JUMP JUMPDEST SWAP1 POP SWAP2 SWAP1 POP JUMP JUMPDEST PUSH32 0x546F6B656E206E6F7420737570706F7274656400000000000000000000000000 PUSH0 DUP3 ADD MSTORE POP JUMP JUMPDEST PUSH0 PUSH2 0x4DFA PUSH1 0x13 DUP4 PUSH2 0x41A8 JUMP JUMPDEST SWAP2 POP PUSH2 0x4E05 DUP3 PUSH2 0x4DC6 JUMP JUMPDEST PUSH1 0x20 DUP3 ADD SWAP1 POP SWAP2 SWAP1 POP JUMP JUMPDEST PUSH0 PUSH1 0x20 DUP3 ADD SWAP1 POP DUP2 DUP2 SUB PUSH0 DUP4 ADD MSTORE PUSH2 0x4E27 DUP2 PUSH2 0x4DEE JUMP JUMPDEST SWAP1 POP SWAP2 SWAP1 POP JUMP JUMPDEST PUSH32 0x446F6E6174696F6E206D757374206265203E2030000000000000000000000000 PUSH0 DUP3 ADD MSTORE POP JUMP JUMPDEST PUSH0 PUSH2 0x4E62 PUSH1 0x14 DUP4 PUSH2 0x41A8 JUMP JUMPDEST SWAP2 POP PUSH2 0x4E6D DUP3 PUSH2 0x4E2E JUMP JUMPDEST PUSH1 0x20 DUP3 ADD SWAP1 POP SWAP2 SWAP1 POP JUMP JUMPDEST PUSH0 PUSH1 0x20 DUP3 ADD SWAP1 POP DUP2 DUP2 SUB PUSH0 DUP4 ADD MSTORE PUSH2 0x4E8F DUP2 PUSH2 0x4E56 JUMP JUMPDEST SWAP1 POP SWAP2 SWAP1 POP JUMP JUMPDEST PUSH0 DUP2 SWAP1 POP DUP2 PUSH0 MSTORE PUSH1 0x20 PUSH0 KECCAK256 SWAP1 POP SWAP2 SWAP1 POP JUMP JUMPDEST PUSH0 PUSH1 0x20 PUSH1 0x1F DUP4 ADD DIV SWAP1 POP SWAP2 SWAP1 POP JUMP JUMPDEST PUSH0 DUP3 DUP3 SHL SWAP1 POP SWAP3 SWAP2 POP POP JUMP JUMPDEST PUSH0 PUSH1 0x8 DUP4 MUL PUSH2 0x4EF2 PUSH32 0xFFFFFFFFFFFFFFFFFFFFFFFFFFFFFFFFFFFFFFFFFFFFFFFFFFFFFFFFFFFFFFFF DUP3 PUSH2 0x4EB7 JUMP JUMPDEST PUSH2 0x4EFC DUP7 DUP4 PUSH2 0x4EB7 JUMP JUMPDEST SWAP6 POP DUP1 NOT DUP5 AND SWAP4 POP DUP1 DUP7 AND DUP5 OR SWAP3 POP POP POP SWAP4 SWAP3 POP POP POP JUMP JUMPDEST PUSH0 PUSH2 0x4F2E PUSH2 0x4F29 PUSH2 0x4F24 DUP5 PUSH2 0x3CDF JUMP JUMPDEST PUSH2 0x45D5 JUMP JUMPDEST PUSH2 0x3CDF JUMP JUMPDEST SWAP1 POP SWAP2 SWAP1 POP JUMP JUMPDEST PUSH0 DUP2 SWAP1 POP SWAP2 SWAP1 POP JUMP JUMPDEST PUSH2 0x4F47 DUP4 PUSH2 0x4F14 JUMP JUMPDEST PUSH2 0x4F5B PUSH2 0x4F53 DUP3 PUSH2 0x4F35 JUMP JUMPDEST DUP5 DUP5 SLOAD PUSH2 0x4EC3 JUMP JUMPDEST DUP3 SSTORE POP POP POP POP JUMP JUMPDEST PUSH0 PUSH0 SWAP1 POP SWAP1 JUMP JUMPDEST PUSH2 0x4F72 PUSH2 0x4F63 JUMP JUMPDEST PUSH2 0x4F7D DUP2 DUP5 DUP5 PUSH2 0x4F3E JUMP JUMPDEST POP POP POP JUMP JUMPDEST JUMPDEST DUP2 DUP2 LT ISZERO PUSH2 0x4FA0 JUMPI PUSH2 0x4F95 PUSH0 DUP3 PUSH2 0x4F6A JUMP JUMPDEST PUSH1 0x1 DUP2 ADD SWAP1 POP PUSH2 0x4F83 JUMP JUMPDEST POP POP JUMP JUMPDEST PUSH1 0x1F DUP3 GT ISZERO PUSH2 0x4FE5 JUMPI PUSH2 0x4FB6 DUP2 PUSH2 0x4E96 JUMP JUMPDEST PUSH2 0x4FBF DUP5 PUSH2 0x4EA8 JUMP JUMPDEST DUP2 ADD PUSH1 0x20 DUP6 LT ISZERO PUSH2 0x4FCE JUMPI DUP2 SWAP1 POP JUMPDEST PUSH2 0x4FE2 PUSH2 0x4FDA DUP6 PUSH2 0x4EA8 JUMP JUMPDEST DUP4 ADD DUP3 PUSH2 0x4F82 JUMP JUMPDEST POP POP JUMPDEST POP POP POP JUMP JUMPDEST PUSH0 DUP3 DUP3 SHR SWAP1 POP SWAP3 SWAP2 POP POP JUMP JUMPDEST PUSH0 PUSH2 0x5005 PUSH0 NOT DUP5 PUSH1 0x8 MUL PUSH2 0x4FEA JUMP JUMPDEST NOT DUP1 DUP4 AND SWAP2 POP POP SWAP3 SWAP2 POP POP JUMP JUMPDEST PUSH0 PUSH2 0x501D DUP4 DUP4 PUSH2 0x4FF6 JUMP JUMPDEST SWAP2 POP DUP3 PUSH1 0x2 MUL DUP3 OR SWAP1 POP SWAP3 SWAP2 POP POP JUMP JUMPDEST PUSH2 0x5036 DUP3 PUSH2 0x3D79 JUMP JUMPDEST PUSH8 0xFFFFFFFFFFFFFFFF DUP2 GT ISZERO PUSH2 0x504F JUMPI PUSH2 0x504E PUSH2 0x4A13 JUMP JUMPDEST JUMPDEST PUSH2 0x5059 DUP3 SLOAD PUSH2 0x4A6D JUMP JUMPDEST PUSH2 0x5064 DUP3 DUP3 DUP6 PUSH2 0x4FA4 JUMP JUMPDEST PUSH0 PUSH1 0x20 SWAP1 POP PUSH1 0x1F DUP4 GT PUSH1 0x1 DUP2 EQ PUSH2 0x5095 JUMPI PUSH0 DUP5 ISZERO PUSH2 0x5083 JUMPI DUP3 DUP8 ADD MLOAD SWAP1 POP JUMPDEST PUSH2 0x508D DUP6 DUP3 PUSH2 0x5012 JUMP JUMPDEST DUP7 SSTORE POP PUSH2 0x50F4 JUMP JUMPDEST PUSH1 0x1F NOT DUP5 AND PUSH2 0x50A3 DUP7 PUSH2 0x4E96 JUMP JUMPDEST PUSH0 JUMPDEST DUP3 DUP2 LT ISZERO PUSH2 0x50CA JUMPI DUP5 DUP10 ADD MLOAD DUP3 SSTORE PUSH1 0x1 DUP3 ADD SWAP2 POP PUSH1 0x20 DUP6 ADD SWAP5 POP PUSH1 0x20 DUP2 ADD SWAP1 POP PUSH2 0x50A5 JUMP JUMPDEST DUP7 DUP4 LT ISZERO PUSH2 0x50E7 JUMPI DUP5 DUP10 ADD MLOAD PUSH2 0x50E3 PUSH1 0x1F DUP10 AND DUP3 PUSH2 0x4FF6 JUMP JUMPDEST DUP4 SSTORE POP JUMPDEST PUSH1 0x1 PUSH1 0x2 DUP9 MUL ADD DUP9 SSTORE POP POP POP JUMPDEST POP POP POP POP POP POP JUMP JUMPDEST PUSH32 0x46656520746F6F20686967680000000000000000000000000000000000000000 PUSH0 DUP3 ADD MSTORE POP JUMP JUMPDEST PUSH0 PUSH2 0x5130 PUSH1 0xC DUP4 PUSH2 0x41A8 JUMP JUMPDEST SWAP2 POP PUSH2 0x513B DUP3 PUSH2 0x50FC JUMP JUMPDEST PUSH1 0x20 DUP3 ADD SWAP1 POP SWAP2 SWAP1 POP JUMP JUMPDEST PUSH0 PUSH1 0x20 DUP3 ADD SWAP1 POP DUP2 DUP2 SUB PUSH0 DUP4 ADD MSTORE PUSH2 0x515D DUP2 PUSH2 0x5124 JUMP JUMPDEST SWAP1 POP SWAP2 SWAP1 POP JUMP JUMPDEST PUSH32 0x50726963652066656564206E6F742073657420666F7220746F6B656E00000000 PUSH0 DUP3 ADD MSTORE POP JUMP JUMPDEST PUSH0 PUSH2 0x5198 PUSH1 0x1C DUP4 PUSH2 0x41A8 JUMP JUMPDEST SWAP2 POP PUSH2 0x51A3 DUP3 PUSH2 0x5164 JUMP JUMPDEST PUSH1 0x20 DUP3 ADD SWAP1 POP SWAP2 SWAP1 POP JUMP JUMPDEST PUSH0 PUSH1 0x20 DUP3 ADD SWAP1 POP DUP2 DUP2 SUB PUSH0 DUP4 ADD MSTORE PUSH2 0x51C5 DUP2 PUSH2 0x518C JUMP JUMPDEST SWAP1 POP SWAP2 SWAP1 POP JUMP JUMPDEST PUSH0 PUSH10 0xFFFFFFFFFFFFFFFFFFFF DUP3 AND SWAP1 POP SWAP2 SWAP1 POP JUMP JUMPDEST PUSH2 0x51EA DUP2 PUSH2 0x51CC JUMP JUMPDEST DUP2 EQ PUSH2 0x51F4 JUMPI PUSH0 PUSH0 REVERT JUMPDEST POP JUMP JUMPDEST PUSH0 DUP2 MLOAD SWAP1 POP PUSH2 0x5205 DUP2 PUSH2 0x51E1 JUMP JUMPDEST SWAP3 SWAP2 POP POP JUMP JUMPDEST PUSH0 DUP2 SWAP1 POP SWAP2 SWAP1 POP JUMP JUMPDEST PUSH2 0x521D DUP2 PUSH2 0x520B JUMP JUMPDEST DUP2 EQ PUSH2 0x5227 JUMPI PUSH0 PUSH0 REVERT JUMPDEST POP JUMP JUMPDEST PUSH0 DUP2 MLOAD SWAP1 POP PUSH2 0x5238 DUP2 PUSH2 0x5214 JUMP JUMPDEST SWAP3 SWAP2 POP POP JUMP JUMPDEST PUSH0 DUP2 MLOAD SWAP1 POP PUSH2 0x524C DUP2 PUSH2 0x3CE8 JUMP JUMPDEST SWAP3 SWAP2 POP POP JUMP JUMPDEST PUSH0 PUSH0 PUSH0 PUSH0 PUSH0 PUSH1 0xA0 DUP7 DUP9 SUB SLT ISZERO PUSH2 0x526B JUMPI PUSH2 0x526A PUSH2 0x3CD7 JUMP JUMPDEST JUMPDEST PUSH0 PUSH2 0x5278 DUP9 DUP3 DUP10 ADD PUSH2 0x51F7 JUMP JUMPDEST SWAP6 POP POP PUSH1 0x20 PUSH2 0x5289 DUP9 DUP3 DUP10 ADD PUSH2 0x522A JUMP JUMPDEST SWAP5 POP POP PUSH1 0x40 PUSH2 0x529A DUP9 DUP3 DUP10 ADD PUSH2 0x523E JUMP JUMPDEST SWAP4 POP POP PUSH1 0x60 PUSH2 0x52AB DUP9 DUP3 DUP10 ADD PUSH2 0x523E JUMP JUMPDEST SWAP3 POP POP PUSH1 0x80 PUSH2 0x52BC DUP9 DUP3 DUP10 ADD PUSH2 0x51F7 JUMP JUMPDEST SWAP2 POP POP SWAP3 SWAP6 POP SWAP3 SWAP6 SWAP1 SWAP4 POP JUMP JUMPDEST PUSH32 0x496E76616C696420707269636500000000000000000000000000000000000000 PUSH0 DUP3 ADD MSTORE POP JUMP JUMPDEST PUSH0 PUSH2 0x52FD PUSH1 0xD DUP4 PUSH2 0x41A8 JUMP JUMPDEST SWAP2 POP PUSH2 0x5308 DUP3 PUSH2 0x52C9 JUMP JUMPDEST PUSH1 0x20 DUP3 ADD SWAP1 POP SWAP2 SWAP1 POP JUMP JUMPDEST PUSH0 PUSH1 0x20 DUP3 ADD SWAP1 POP DUP2 DUP2 SUB PUSH0 DUP4 ADD MSTORE PUSH2 0x532A DUP2 PUSH2 0x52F1 JUMP JUMPDEST SWAP1 POP SWAP2 SWAP1 POP JUMP JUMPDEST PUSH2 0x533A DUP2 PUSH2 0x43DA JUMP JUMPDEST DUP2 EQ PUSH2 0x5344 JUMPI PUSH0 PUSH0 REVERT JUMPDEST POP JUMP JUMPDEST PUSH0 DUP2 MLOAD SWAP1 POP PUSH2 0x5355 DUP2 PUSH2 0x5331 JUMP JUMPDEST SWAP3 SWAP2 POP POP JUMP JUMPDEST PUSH0 PUSH1 0x20 DUP3 DUP5 SUB SLT ISZERO PUSH2 0x5370 JUMPI PUSH2 0x536F PUSH2 0x3CD7 JUMP JUMPDEST JUMPDEST PUSH0 PUSH2 0x537D DUP5 DUP3 DUP6 ADD PUSH2 0x5347 JUMP JUMPDEST SWAP2 POP POP SWAP3 SWAP2 POP POP JUMP JUMPDEST PUSH0 DUP2 PUSH1 0x1 SHR SWAP1 POP SWAP2 SWAP1 POP JUMP JUMPDEST PUSH0 PUSH0 DUP3 SWAP2 POP DUP4 SWAP1 POP JUMPDEST PUSH1 0x1 DUP6 GT ISZERO PUSH2 0x53DB JUMPI DUP1 DUP7 DIV DUP2 GT ISZERO PUSH2 0x53B7 JUMPI PUSH2 0x53B6 PUSH2 0x4980 JUMP JUMPDEST JUMPDEST PUSH1 0x1 DUP6 AND ISZERO PUSH2 0x53C6 JUMPI DUP1 DUP3 MUL SWAP2 POP JUMPDEST DUP1 DUP2 MUL SWAP1 POP PUSH2 0x53D4 DUP6 PUSH2 0x5386 JUMP JUMPDEST SWAP5 POP PUSH2 0x539B JUMP JUMPDEST SWAP5 POP SWAP5 SWAP3 POP POP POP JUMP JUMPDEST PUSH0 DUP3 PUSH2 0x53F3 JUMPI PUSH1 0x1 SWAP1 POP PUSH2 0x54AE JUMP JUMPDEST DUP2 PUSH2 0x5400 JUMPI PUSH0 SWAP1 POP PUSH2 0x54AE JUMP JUMPDEST DUP2 PUSH1 0x1 DUP2 EQ PUSH2 0x5416 JUMPI PUSH1 0x2 DUP2 EQ PUSH2 0x5420 JUMPI PUSH2 0x544F JUMP JUMPDEST PUSH1 0x1 SWAP2 POP POP PUSH2 0x54AE JUMP JUMPDEST PUSH1 0xFF DUP5 GT ISZERO PUSH2 0x5432 JUMPI PUSH2 0x5431 PUSH2 0x4980 JUMP JUMPDEST JUMPDEST DUP4 PUSH1 0x2 EXP SWAP2 POP DUP5 DUP3 GT ISZERO PUSH2 0x5449 JUMPI PUSH2 0x5448 PUSH2 0x4980 JUMP JUMPDEST JUMPDEST POP PUSH2 0x54AE JUMP JUMPDEST POP PUSH1 0x20 DUP4 LT PUSH2 0x133 DUP4 LT AND PUSH1 0x4E DUP5 LT PUSH1 0xB DUP5 LT AND OR ISZERO PUSH2 0x5484 JUMPI DUP3 DUP3 EXP SWAP1 POP DUP4 DUP2 GT ISZERO PUSH2 0x547F JUMPI PUSH2 0x547E PUSH2 0x4980 JUMP JUMPDEST JUMPDEST PUSH2 0x54AE JUMP JUMPDEST PUSH2 0x5491 DUP5 DUP5 DUP5 PUSH1 0x1 PUSH2 0x5392 JUMP JUMPDEST SWAP3 POP SWAP1 POP DUP2 DUP5 DIV DUP2 GT ISZERO PUSH2 0x54A8 JUMPI PUSH2 0x54A7 PUSH2 0x4980 JUMP JUMPDEST JUMPDEST DUP2 DUP2 MUL SWAP1 POP JUMPDEST SWAP4 SWAP3 POP POP POP JUMP JUMPDEST PUSH0 PUSH2 0x54BF DUP3 PUSH2 0x3CDF JUMP JUMPDEST SWAP2 POP PUSH2 0x54CA DUP4 PUSH2 0x43DA JUMP JUMPDEST SWAP3 POP PUSH2 0x54F7 PUSH32 0xFFFFFFFFFFFFFFFFFFFFFFFFFFFFFFFFFFFFFFFFFFFFFFFFFFFFFFFFFFFFFFFF DUP5 DUP5 PUSH2 0x53E4 JUMP JUMPDEST SWAP1 POP SWAP3 SWAP2 POP POP JUMP JUMPDEST PUSH32 0x43616D706169676E20646F6573206E6F74206578697374000000000000000000 PUSH0 DUP3 ADD MSTORE POP JUMP JUMPDEST PUSH0 PUSH2 0x5533 PUSH1 0x17 DUP4 PUSH2 0x41A8 JUMP JUMPDEST SWAP2 POP PUSH2 0x553E DUP3 PUSH2 0x54FF JUMP JUMPDEST PUSH1 0x20 DUP3 ADD SWAP1 POP SWAP2 SWAP1 POP JUMP JUMPDEST PUSH0 PUSH1 0x20 DUP3 ADD SWAP1 POP DUP2 DUP2 SUB PUSH0 DUP4 ADD MSTORE PUSH2 0x5560 DUP2 PUSH2 0x5527 JUMP JUMPDEST SWAP1 POP SWAP2 SWAP1 POP JUMP JUMPDEST PUSH32 0x496E76616C6964206665652077616C6C65740000000000000000000000000000 PUSH0 DUP3 ADD MSTORE POP JUMP JUMPDEST PUSH0 PUSH2 0x559B PUSH1 0x12 DUP4 PUSH2 0x41A8 JUMP JUMPDEST SWAP2 POP PUSH2 0x55A6 DUP3 PUSH2 0x5567 JUMP JUMPDEST PUSH1 0x20 DUP3 ADD SWAP1 POP SWAP2 SWAP1 POP JUMP JUMPDEST PUSH0 PUSH1 0x20 DUP3 ADD SWAP1 POP DUP2 DUP2 SUB PUSH0 DUP4 ADD MSTORE PUSH2 0x55C8 DUP2 PUSH2 0x558F JUMP JUMPDEST SWAP1 POP SWAP2 SWAP1 POP JUMP JUMPDEST PUSH32 0x496E76616C696420707269636520666565642061646472657373000000000000 PUSH0 DUP3 ADD MSTORE POP JUMP JUMPDEST PUSH0 PUSH2 0x5603 PUSH1 0x1A DUP4 PUSH2 0x41A8 JUMP JUMPDEST SWAP2 POP PUSH2 0x560E DUP3 PUSH2 0x55CF JUMP JUMPDEST PUSH1 0x20 DUP3 ADD SWAP1 POP SWAP2 SWAP1 POP JUMP JUMPDEST PUSH0 PUSH1 0x20 DUP3 ADD SWAP1 POP DUP2 DUP2 SUB PUSH0 DUP4 ADD MSTORE PUSH2 0x5630 DUP2 PUSH2 0x55F7 JUMP JUMPDEST SWAP1 POP SWAP2 SWAP1 POP JUMP JUMPDEST PUSH32 0x5072696365206665656420616C72656164792073657420666F72207468697320 PUSH0 DUP3 ADD MSTORE PUSH32 0x746F6B656E000000000000000000000000000000000000000000000000000000 PUSH1 0x20 DUP3 ADD MSTORE POP JUMP JUMPDEST PUSH0 PUSH2 0x5691 PUSH1 0x25 DUP4 PUSH2 0x41A8 JUMP JUMPDEST SWAP2 POP PUSH2 0x569C DUP3 PUSH2 0x5637 JUMP JUMPDEST PUSH1 0x40 DUP3 ADD SWAP1 POP SWAP2 SWAP1 POP JUMP JUMPDEST PUSH0 PUSH1 0x20 DUP3 ADD SWAP1 POP DUP2 DUP2 SUB PUSH0 DUP4 ADD MSTORE PUSH2 0x56BE DUP2 PUSH2 0x5685 JUMP JUMPDEST SWAP1 POP SWAP2 SWAP1 POP JUMP JUMPDEST PUSH32 0x4E617469766520636F696E2070726963652066656564206E6F74207365740000 PUSH0 DUP3 ADD MSTORE POP JUMP JUMPDEST PUSH0 PUSH2 0x56F9 PUSH1 0x1E DUP4 PUSH2 0x41A8 JUMP JUMPDEST SWAP2 POP PUSH2 0x5704 DUP3 PUSH2 0x56C5 JUMP JUMPDEST PUSH1 0x20 DUP3 ADD SWAP1 POP SWAP2 SWAP1 POP JUMP JUMPDEST PUSH0 PUSH1 0x20 DUP3 ADD SWAP1 POP DUP2 DUP2 SUB PUSH0 DUP4 ADD MSTORE PUSH2 0x5726 DUP2 PUSH2 0x56ED JUMP JUMPDEST SWAP1 POP SWAP2 SWAP1 POP JUMP JUMPDEST PUSH32 0x4F6E6C792063726561746F722063616E20656469740000000000000000000000 PUSH0 DUP3 ADD MSTORE POP JUMP JUMPDEST PUSH0 PUSH2 0x5761 PUSH1 0x15 DUP4 PUSH2 0x41A8 JUMP JUMPDEST SWAP2 POP PUSH2 0x576C DUP3 PUSH2 0x572D JUMP JUMPDEST PUSH1 0x20 DUP3 ADD SWAP1 POP SWAP2 SWAP1 POP JUMP JUMPDEST PUSH0 PUSH1 0x20 DUP3 ADD SWAP1 POP DUP2 DUP2 SUB PUSH0 DUP4 ADD MSTORE PUSH2 0x578E DUP2 PUSH2 0x5755 JUMP JUMPDEST SWAP1 POP SWAP2 SWAP1 POP JUMP JUMPDEST PUSH32 0x43616E6E6F74206564697420656E6465642063616D706169676E000000000000 PUSH0 DUP3 ADD MSTORE POP JUMP JUMPDEST PUSH0 PUSH2 0x57C9 PUSH1 0x1A DUP4 PUSH2 0x41A8 JUMP JUMPDEST SWAP2 POP PUSH2 0x57D4 DUP3 PUSH2 0x5795 JUMP JUMPDEST PUSH1 0x20 DUP3 ADD SWAP1 POP SWAP2 SWAP1 POP JUMP JUMPDEST PUSH0 PUSH1 0x20 DUP3 ADD SWAP1 POP DUP2 DUP2 SUB PUSH0 DUP4 ADD MSTORE PUSH2 0x57F6 DUP2 PUSH2 0x57BD JUMP JUMPDEST SWAP1 POP SWAP2 SWAP1 POP JUMP JUMPDEST PUSH0 DUP3 SWAP1 POP SWAP3 SWAP2 POP POP JUMP JUMPDEST PUSH2 0x5811 DUP4 DUP4 PUSH2 0x57FD JUMP JUMPDEST PUSH8 0xFFFFFFFFFFFFFFFF DUP2 GT ISZERO PUSH2 0x582A JUMPI PUSH2 0x5829 PUSH2 0x4A13 JUMP JUMPDEST JUMPDEST PUSH2 0x5834 DUP3 SLOAD PUSH2 0x4A6D JUMP JUMPDEST PUSH2 0x583F DUP3 DUP3 DUP6 PUSH2 0x4FA4 JUMP JUMPDEST PUSH0 PUSH1 0x1F DUP4 GT PUSH1 0x1 DUP2 EQ PUSH2 0x586C JUMPI PUSH0 DUP5 ISZERO PUSH2 0x585A JUMPI DUP3 DUP8 ADD CALLDATALOAD SWAP1 POP JUMPDEST PUSH2 0x5864 DUP6 DUP3 PUSH2 0x5012 JUMP JUMPDEST DUP7 SSTORE POP PUSH2 0x58CB JUMP JUMPDEST PUSH1 0x1F NOT DUP5 AND PUSH2 0x587A DUP7 PUSH2 0x4E96 JUMP JUMPDEST PUSH0 JUMPDEST DUP3 DUP2 LT ISZERO PUSH2 0x58A1 JUMPI DUP5 DUP10 ADD CALLDATALOAD DUP3 SSTORE PUSH1 0x1 DUP3 ADD SWAP2 POP PUSH1 0x20 DUP6 ADD SWAP5 POP PUSH1 0x20 DUP2 ADD SWAP1 POP PUSH2 0x587C JUMP JUMPDEST DUP7 DUP4 LT ISZERO PUSH2 0x58BE JUMPI DUP5 DUP10 ADD CALLDATALOAD PUSH2 0x58BA PUSH1 0x1F DUP10 AND DUP3 PUSH2 0x4FF6 JUMP JUMPDEST DUP4 SSTORE POP JUMPDEST PUSH1 0x1 PUSH1 0x2 DUP9 MUL ADD DUP9 SSTORE POP POP POP JUMPDEST POP POP POP POP POP POP POP JUMP JUMPDEST PUSH32 0x4661696C656420746F2073656E64206E617469766520636F696E000000000000 PUSH0 DUP3 ADD MSTORE POP JUMP JUMPDEST PUSH0 PUSH2 0x5908 PUSH1 0x1A DUP4 PUSH2 0x41A8 JUMP JUMPDEST SWAP2 POP PUSH2 0x5913 DUP3 PUSH2 0x58D4 JUMP JUMPDEST PUSH1 0x20 DUP3 ADD SWAP1 POP SWAP2 SWAP1 POP JUMP JUMPDEST PUSH0 PUSH1 0x20 DUP3 ADD SWAP1 POP DUP2 DUP2 SUB PUSH0 DUP4 ADD MSTORE PUSH2 0x5935 DUP2 PUSH2 0x58FC JUMP JUMPDEST SWAP1 POP SWAP2 SWAP1 POP JUMP JUMPDEST PUSH32 0x546F6B656E206E6F7420737570706F7274656420666F72207769746864726177 PUSH0 DUP3 ADD MSTORE PUSH32 0x616C000000000000000000000000000000000000000000000000000000000000 PUSH1 0x20 DUP3 ADD MSTORE POP JUMP JUMPDEST PUSH0 PUSH2 0x5996 PUSH1 0x22 DUP4 PUSH2 0x41A8 JUMP JUMPDEST SWAP2 POP PUSH2 0x59A1 DUP3 PUSH2 0x593C JUMP JUMPDEST PUSH1 0x40 DUP3 ADD SWAP1 POP SWAP2 SWAP1 POP JUMP JUMPDEST PUSH0 PUSH1 0x20 DUP3 ADD SWAP1 POP DUP2 DUP2 SUB PUSH0 DUP4 ADD MSTORE PUSH2 0x59C3 DUP2 PUSH2 0x598A JUMP JUMPDEST SWAP1 POP SWAP2 SWAP1 POP JUMP JUMPDEST PUSH32 0x5769746864726177616C20726571756573747320617265207061757365640000 PUSH0 DUP3 ADD MSTORE POP JUMP JUMPDEST PUSH0 PUSH2 0x59FE PUSH1 0x1E DUP4 PUSH2 0x41A8 JUMP JUMPDEST SWAP2 POP PUSH2 0x5A09 DUP3 PUSH2 0x59CA JUMP JUMPDEST PUSH1 0x20 DUP3 ADD SWAP1 POP SWAP2 SWAP1 POP JUMP JUMPDEST PUSH0 PUSH1 0x20 DUP3 ADD SWAP1 POP DUP2 DUP2 SUB PUSH0 DUP4 ADD MSTORE PUSH2 0x5A2B DUP2 PUSH2 0x59F2 JUMP JUMPDEST SWAP1 POP SWAP2 SWAP1 POP JUMP JUMPDEST PUSH32 0x416D6F756E74206578636565647320776974686472617761626C652062616C61 PUSH0 DUP3 ADD MSTORE PUSH32 0x6E63650000000000000000000000000000000000000000000000000000000000 PUSH1 0x20 DUP3 ADD MSTORE POP JUMP JUMPDEST PUSH0 PUSH2 0x5A8C PUSH1 0x23 DUP4 PUSH2 0x41A8 JUMP JUMPDEST SWAP2 POP PUSH2 0x5A97 DUP3 PUSH2 0x5A32 JUMP JUMPDEST PUSH1 0x40 DUP3 ADD SWAP1 POP SWAP2 SWAP1 POP JUMP JUMPDEST PUSH0 PUSH1 0x20 DUP3 ADD SWAP1 POP DUP2 DUP2 SUB PUSH0 DUP4 ADD MSTORE PUSH2 0x5AB9 DUP2 PUSH2 0x5A80 JUMP JUMPDEST SWAP1 POP SWAP2 SWAP1 POP JUMP JUMPDEST PUSH0 PUSH1 0x80 DUP3 ADD SWAP1 POP PUSH2 0x5AD3 PUSH0 DUP4 ADD DUP8 PUSH2 0x3FBE JUMP JUMPDEST PUSH2 0x5AE0 PUSH1 0x20 DUP4 ADD DUP7 PUSH2 0x3FBE JUMP JUMPDEST PUSH2 0x5AED PUSH1 0x40 DUP4 ADD DUP6 PUSH2 0x41F0 JUMP JUMPDEST PUSH2 0x5AFA PUSH1 0x60 DUP4 ADD DUP5 PUSH2 0x3FBE JUMP JUMPDEST SWAP6 SWAP5 POP POP POP POP POP JUMP JUMPDEST PUSH32 0x4F6E6C792063726561746F722063616E20656E642063616D706169676E000000 PUSH0 DUP3 ADD MSTORE POP JUMP JUMPDEST PUSH0 PUSH2 0x5B37 PUSH1 0x1D DUP4 PUSH2 0x41A8 JUMP JUMPDEST SWAP2 POP PUSH2 0x5B42 DUP3 PUSH2 0x5B03 JUMP JUMPDEST PUSH1 0x20 DUP3 ADD SWAP1 POP SWAP2 SWAP1 POP JUMP JUMPDEST PUSH0 PUSH1 0x20 DUP3 ADD SWAP1 POP DUP2 DUP2 SUB PUSH0 DUP4 ADD MSTORE PUSH2 0x5B64 DUP2 PUSH2 0x5B2B JUMP JUMPDEST SWAP1 POP SWAP2 SWAP1 POP JUMP JUMPDEST PUSH32 0x43616D706169676E20616C726561647920656E64656400000000000000000000 PUSH0 DUP3 ADD MSTORE POP JUMP JUMPDEST PUSH0 PUSH2 0x5B9F PUSH1 0x16 DUP4 PUSH2 0x41A8 JUMP JUMPDEST SWAP2 POP PUSH2 0x5BAA DUP3 PUSH2 0x5B6B JUMP JUMPDEST PUSH1 0x20 DUP3 ADD SWAP1 POP SWAP2 SWAP1 POP JUMP JUMPDEST PUSH0 PUSH1 0x20 DUP3 ADD SWAP1 POP DUP2 DUP2 SUB PUSH0 DUP4 ADD MSTORE PUSH2 0x5BCC DUP2 PUSH2 0x5B93 JUMP JUMPDEST SWAP1 POP SWAP2 SWAP1 POP JUMP JUMPDEST PUSH32 0x416C72656164792070726F636573736564000000000000000000000000000000 PUSH0 DUP3 ADD MSTORE POP JUMP JUMPDEST PUSH0 PUSH2 0x5C07 PUSH1 0x11 DUP4 PUSH2 0x41A8 JUMP JUMPDEST SWAP2 POP PUSH2 0x5C12 DUP3 PUSH2 0x5BD3 JUMP JUMPDEST PUSH1 0x20 DUP3 ADD SWAP1 POP SWAP2 SWAP1 POP JUMP JUMPDEST PUSH0 PUSH1 0x20 DUP3 ADD SWAP1 POP DUP2 DUP2 SUB PUSH0 DUP4 ADD MSTORE PUSH2 0x5C34 DUP2 PUSH2 0x5BFB JUMP JUMPDEST SWAP1 POP SWAP2 SWAP1 POP JUMP JUMPDEST PUSH32 0x496E76616C6964207661756C742077616C6C6574000000000000000000000000 PUSH0 DUP3 ADD MSTORE POP JUMP JUMPDEST PUSH0 PUSH2 0x5C6F PUSH1 0x14 DUP4 PUSH2 0x41A8 JUMP JUMPDEST SWAP2 POP PUSH2 0x5C7A DUP3 PUSH2 0x5C3B JUMP JUMPDEST PUSH1 0x20 DUP3 ADD SWAP1 POP SWAP2 SWAP1 POP JUMP JUMPDEST PUSH0 PUSH1 0x20 DUP3 ADD SWAP1 POP DUP2 DUP2 SUB PUSH0 DUP4 ADD MSTORE PUSH2 0x5C9C DUP2 PUSH2 0x5C63 JUMP JUMPDEST SWAP1 POP SWAP2 SWAP1 POP JUMP JUMPDEST PUSH0 PUSH1 0x20 DUP3 ADD SWAP1 POP PUSH2 0x5CB6 PUSH0 DUP4 ADD DUP5 PUSH2 0x4B11 JUMP JUMPDEST SWAP3 SWAP2 POP POP JUMP JUMPDEST PUSH32 0x556E747275737465642073656E64657200000000000000000000000000000000 PUSH0 DUP3 ADD MSTORE POP JUMP JUMPDEST PUSH0 PUSH2 0x5CF0 PUSH1 0x10 DUP4 PUSH2 0x41A8 JUMP JUMPDEST SWAP2 POP PUSH2 0x5CFB DUP3 PUSH2 0x5CBC JUMP JUMPDEST PUSH1 0x20 DUP3 ADD SWAP1 POP SWAP2 SWAP1 POP JUMP JUMPDEST PUSH0 PUSH1 0x20 DUP3 ADD SWAP1 POP DUP2 DUP2 SUB PUSH0 DUP4 ADD MSTORE PUSH2 0x5D1D DUP2 PUSH2 0x5CE4 JUMP JUMPDEST SWAP1 POP SWAP2 SWAP1 POP JUMP JUMPDEST PUSH32 0x496E76616C69642063616D706169676E00000000000000000000000000000000 PUSH0 DUP3 ADD MSTORE POP JUMP JUMPDEST PUSH0 PUSH2 0x5D58 PUSH1 0x10 DUP4 PUSH2 0x41A8 JUMP JUMPDEST SWAP2 POP PUSH2 0x5D63 DUP3 PUSH2 0x5D24 JUMP JUMPDEST PUSH1 0x20 DUP3 ADD SWAP1 POP SWAP2 SWAP1 POP JUMP JUMPDEST PUSH0 PUSH1 0x20 DUP3 ADD SWAP1 POP DUP2 DUP2 SUB PUSH0 DUP4 ADD MSTORE PUSH2 0x5D85 DUP2 PUSH2 0x5D4C JUMP JUMPDEST SWAP1 POP SWAP2 SWAP1 POP JUMP JUMPDEST PUSH32 0x5265656E7472616E637947756172643A207265656E7472616E742063616C6C00 PUSH0 DUP3 ADD MSTORE POP JUMP JUMPDEST PUSH0 PUSH2 0x5DC0 PUSH1 0x1F DUP4 PUSH2 0x41A8 JUMP JUMPDEST SWAP2 POP PUSH2 0x5DCB DUP3 PUSH2 0x5D8C JUMP JUMPDEST PUSH1 0x20 DUP3 ADD SWAP1 POP SWAP2 SWAP1 POP JUMP JUMPDEST PUSH0 PUSH1 0x20 DUP3 ADD SWAP1 POP DUP2 DUP2 SUB PUSH0 DUP4 ADD MSTORE PUSH2 0x5DED DUP2 PUSH2 0x5DB4 JUMP JUMPDEST SWAP1 POP SWAP2 SWAP1 POP JUMP JUMPDEST PUSH32 0x5061757361626C653A2070617573656400000000000000000000000000000000 PUSH0 DUP3 ADD MSTORE POP JUMP JUMPDEST PUSH0 PUSH2 0x5E28 PUSH1 0x10 DUP4 PUSH2 0x41A8 JUMP JUMPDEST SWAP2 POP PUSH2 0x5E33 DUP3 PUSH2 0x5DF4 JUMP JUMPDEST PUSH1 0x20 DUP3 ADD SWAP1 POP SWAP2 SWAP1 POP JUMP JUMPDEST PUSH0 PUSH1 0x20 DUP3 ADD SWAP1 POP DUP2 DUP2 SUB PUSH0 DUP4 ADD MSTORE PUSH2 0x5E55 DUP2 PUSH2 0x5E1C JUMP JUMPDEST SWAP1 POP SWAP2 SWAP1 POP JUMP JUMPDEST PUSH0 PUSH1 0x60 DUP3 ADD SWAP1 POP PUSH2 0x5E6F PUSH0 DUP4 ADD DUP7 PUSH2 0x41F0 JUMP JUMPDEST PUSH2 0x5E7C PUSH1 0x20 DUP4 ADD DUP6 PUSH2 0x41F0 JUMP JUMPDEST PUSH2 0x5E89 PUSH1 0x40 DUP4 ADD DUP5 PUSH2 0x3FBE JUMP JUMPDEST SWAP5 SWAP4 POP POP POP POP JUMP JUMPDEST PUSH0 PUSH1 0x40 DUP3 ADD SWAP1 POP PUSH2 0x5EA4 PUSH0 DUP4 ADD DUP6 PUSH2 0x41F0 JUMP JUMPDEST PUSH2 0x5EB1 PUSH1 0x20 DUP4 ADD DUP5 PUSH2 0x3FBE JUMP JUMPDEST SWAP4 SWAP3 POP POP POP JUMP JUMPDEST PUSH32 0x5061757361626C653A206E6F7420706175736564000000000000000000000000 PUSH0 DUP3 ADD MSTORE POP JUMP JUMPDEST PUSH0 PUSH2 0x5EEC PUSH1 0x14 DUP4 PUSH2 0x41A8 JUMP JUMPDEST SWAP2 POP PUSH2 0x5EF7 DUP3 PUSH2 0x5EB8 JUMP JUMPDEST PUSH1 0x20 DUP3 ADD SWAP1 POP SWAP2 SWAP1 POP JUMP JUMPDEST PUSH0 PUSH1 0x20 DUP3 ADD SWAP1 POP DUP2 DUP2 SUB PUSH0 DUP4 ADD MSTORE PUSH2 0x5F19 DUP2 PUSH2 0x5EE0 JUMP JUMPDEST SWAP1 POP SWAP2 SWAP1 POP JUMP INVALID LOG2 PUSH5 0x6970667358 0x22 SLT KECCAK256 ADD 0xD0 0xA7 0xAB MSIZE 0xBA SLT 0xCF SWAP16 0xEA MSIZE JUMP SWAP9 0xD2 DUP14 0xEA 0xDA 0xD5 MCOPY JUMPI SWAP8 0xB1 PUSH24 0x9C7C2341CBF308242664736F6C634300081C003300000000 "
		},
		"gasEstimates": {
			"creation": {
				"codeDepositCost": "4881200",
				"executionCost": "infinite",
				"totalCost": "infinite"
			},
			"external": {
				"BASIS_POINTS_DIVISOR()": "394",
				"USD_DECIMALS()": "443",
				"addressToBytes32(address)": "720",
				"allowInitializePath((uint32,bytes32,uint64))": "3128",
				"bytes32ToAddress(bytes32)": "802",
				"campaignCount()": "2558",
				"campaigns(uint256)": "infinite",
				"convertNativeToUSD(uint256)": "infinite",
				"convertTokenToUSD(address,uint256)": "infinite",
				"createCampaign(string,uint256,string,string,uint256)": "infinite",
				"creatorEndedBalance(address)": "2892",
				"donate(uint256,address,uint256)": "infinite",
				"editCampaign(uint256,string,uint256,string,string,uint256)": "infinite",
				"emergencyRescue(address,uint256)": "infinite",
				"endCampaign(uint256)": "infinite",
				"endpoint()": "infinite",
				"featuredCampaignId()": "2560",
				"feeBasisPoints()": "2558",
				"feeWallet()": "2596",
				"getCampaigns(uint256,uint256)": "infinite",
				"isComposeMsgSender((uint32,bytes32,uint64),bytes,address)": "1162",
				"lzReceive((uint32,bytes32,uint64),bytes32,bytes,address,bytes)": "infinite",
				"nextNonce(uint32,bytes32)": "842",
				"oAppVersion()": "infinite",
				"owner()": "2581",
				"pause()": "infinite",
				"pauseWithdrawals()": "infinite",
				"paused()": "2607",
				"peers(uint32)": "2805",
				"processWithdrawalRequest(uint256)": "infinite",
				"renounceOwnership()": "infinite",
				"requestWithdrawal(uint256,address,uint256)": "infinite",
				"setDelegate(address)": "infinite",
				"setFeaturedCampaign(uint256)": "infinite",
				"setPeer(uint32,address)": "infinite",
				"setPeer(uint32,bytes32)": "infinite",
				"setPriceFeed(address,address)": "infinite",
				"setUsername(string)": "infinite",
				"tokenToPriceFeed(address)": "infinite",
				"transferOwnership(address)": "infinite",
				"unpause()": "infinite",
				"unpauseWithdrawals()": "infinite",
				"updateFeeBasisPoints(uint256)": "infinite",
				"updateFeeWallet(address)": "infinite",
				"updateVaultWallet(address)": "infinite",
				"userTotalBalance(address)": "2936",
				"userWithdrawnBalance(address)": "2915",
				"usernames(address)": "infinite",
				"vaultWallet()": "2575",
				"withdrawalRequestCount()": "2516",
				"withdrawalRequests(uint256)": "infinite",
				"withdrawalsPaused()": "2533"
			},
			"internal": {
				"_lzReceive(struct Origin calldata,bytes32,bytes calldata,address,bytes calldata)": "infinite"
			}
		},
		"methodIdentifiers": {
			"BASIS_POINTS_DIVISOR()": "126082cf",
			"USD_DECIMALS()": "2f6ee695",
			"addressToBytes32(address)": "82c947b7",
			"allowInitializePath((uint32,bytes32,uint64))": "ff7bd03d",
			"bytes32ToAddress(bytes32)": "5ced058e",
			"campaignCount()": "7274e30d",
			"campaigns(uint256)": "141961bc",
			"convertNativeToUSD(uint256)": "80f568ad",
			"convertTokenToUSD(address,uint256)": "5e96da62",
			"createCampaign(string,uint256,string,string,uint256)": "3f1b5461",
			"creatorEndedBalance(address)": "2752d6b0",
			"donate(uint256,address,uint256)": "25fb2680",
			"editCampaign(uint256,string,uint256,string,string,uint256)": "87e0081f",
			"emergencyRescue(address,uint256)": "b72952ee",
			"endCampaign(uint256)": "dd0408ae",
			"endpoint()": "5e280f11",
			"featuredCampaignId()": "165dd5d4",
			"feeBasisPoints()": "b8606eef",
			"feeWallet()": "f25f4b56",
			"getCampaigns(uint256,uint256)": "09051566",
			"isComposeMsgSender((uint32,bytes32,uint64),bytes,address)": "82413eac",
			"lzReceive((uint32,bytes32,uint64),bytes32,bytes,address,bytes)": "13137d65",
			"nextNonce(uint32,bytes32)": "7d25a05e",
			"oAppVersion()": "17442b70",
			"owner()": "8da5cb5b",
			"pause()": "8456cb59",
			"pauseWithdrawals()": "56bb54a7",
			"paused()": "5c975abb",
			"peers(uint32)": "bb0b6a53",
			"processWithdrawalRequest(uint256)": "e06d97ba",
			"renounceOwnership()": "715018a6",
			"requestWithdrawal(uint256,address,uint256)": "cb30b054",
			"setDelegate(address)": "ca5eb5e1",
			"setFeaturedCampaign(uint256)": "6060f33b",
			"setPeer(uint32,address)": "177ffe9a",
			"setPeer(uint32,bytes32)": "3400288b",
			"setPriceFeed(address,address)": "76e11286",
			"setUsername(string)": "ed59313a",
			"tokenToPriceFeed(address)": "8078f22c",
			"transferOwnership(address)": "f2fde38b",
			"unpause()": "3f4ba83a",
			"unpauseWithdrawals()": "e4c4be58",
			"updateFeeBasisPoints(uint256)": "57802c7d",
			"updateFeeWallet(address)": "66718524",
			"updateVaultWallet(address)": "efd71eb0",
			"userTotalBalance(address)": "821a3e67",
			"userWithdrawnBalance(address)": "1b6c1cc2",
			"usernames(address)": "ee91877c",
			"vaultWallet()": "61f1c5ba",
			"withdrawalRequestCount()": "19e44e32",
			"withdrawalRequests(uint256)": "937b2581",
			"withdrawalsPaused()": "e9f2838e"
		}
	},
	"abi": [
		{
			"inputs": [
				{
					"internalType": "address",
					"name": "_endpoint",
					"type": "address"
				},
				{
					"internalType": "address",
					"name": "_feeWallet",
					"type": "address"
				},
				{
					"internalType": "address",
					"name": "_vaultWallet",
					"type": "address"
				},
				{
					"internalType": "uint256",
					"name": "_feeBasisPoints",
					"type": "uint256"
				}
			],
			"stateMutability": "nonpayable",
			"type": "constructor"
		},
		{
			"inputs": [],
			"name": "InvalidDelegate",
			"type": "error"
		},
		{
			"inputs": [],
			"name": "InvalidEndpointCall",
			"type": "error"
		},
		{
			"inputs": [],
			"name": "LzTokenUnavailable",
			"type": "error"
		},
		{
			"inputs": [
				{
					"internalType": "uint32",
					"name": "eid",
					"type": "uint32"
				}
			],
			"name": "NoPeer",
			"type": "error"
		},
		{
			"inputs": [
				{
					"internalType": "uint256",
					"name": "msgValue",
					"type": "uint256"
				}
			],
			"name": "NotEnoughNative",
			"type": "error"
		},
		{
			"inputs": [
				{
					"internalType": "address",
					"name": "addr",
					"type": "address"
				}
			],
			"name": "OnlyEndpoint",
			"type": "error"
		},
		{
			"inputs": [
				{
					"internalType": "uint32",
					"name": "eid",
					"type": "uint32"
				},
				{
					"internalType": "bytes32",
					"name": "sender",
					"type": "bytes32"
				}
			],
			"name": "OnlyPeer",
			"type": "error"
		},
		{
			"inputs": [
				{
					"internalType": "address",
					"name": "owner",
					"type": "address"
				}
			],
			"name": "OwnableInvalidOwner",
			"type": "error"
		},
		{
			"inputs": [
				{
					"internalType": "address",
					"name": "account",
					"type": "address"
				}
			],
			"name": "OwnableUnauthorizedAccount",
			"type": "error"
		},
		{
			"inputs": [
				{
					"internalType": "address",
					"name": "token",
					"type": "address"
				}
			],
			"name": "SafeERC20FailedOperation",
			"type": "error"
		},
		{
			"anonymous": false,
			"inputs": [
				{
					"indexed": true,
					"internalType": "uint256",
					"name": "campaignId",
					"type": "uint256"
				},
				{
					"indexed": true,
					"internalType": "address",
					"name": "creator",
					"type": "address"
				}
			],
			"name": "CampaignCreated",
			"type": "event"
		},
		{
			"anonymous": false,
			"inputs": [
				{
					"indexed": true,
					"internalType": "uint256",
					"name": "campaignId",
					"type": "uint256"
				}
			],
			"name": "CampaignEdited",
			"type": "event"
		},
		{
			"anonymous": false,
			"inputs": [
				{
					"indexed": true,
					"internalType": "uint256",
					"name": "campaignId",
					"type": "uint256"
				},
				{
					"indexed": false,
					"internalType": "uint256",
					"name": "finalStableValue",
					"type": "uint256"
				}
			],
			"name": "CampaignEnded",
			"type": "event"
		},
		{
			"anonymous": false,
			"inputs": [
				{
					"indexed": true,
					"internalType": "uint256",
					"name": "campaignId",
					"type": "uint256"
				},
				{
					"indexed": true,
					"internalType": "address",
					"name": "donor",
					"type": "address"
				},
				{
					"indexed": false,
					"internalType": "uint256",
					"name": "netUSDValue",
					"type": "uint256"
				}
			],
			"name": "DonationMade",
			"type": "event"
		},
		{
			"anonymous": false,
			"inputs": [
				{
					"indexed": true,
					"internalType": "uint256",
					"name": "campaignId",
					"type": "uint256"
				}
			],
			"name": "FeaturedCampaignSet",
			"type": "event"
		},
		{
			"anonymous": false,
			"inputs": [
				{
					"indexed": false,
					"internalType": "uint256",
					"name": "newFeeBasisPoints",
					"type": "uint256"
				}
			],
			"name": "FeeBasisPointsUpdated",
			"type": "event"
		},
		{
			"anonymous": false,
			"inputs": [
				{
					"indexed": true,
					"internalType": "address",
					"name": "newFeeWallet",
					"type": "address"
				}
			],
			"name": "FeeWalletUpdated",
			"type": "event"
		},
		{
			"anonymous": false,
			"inputs": [
				{
					"indexed": true,
					"internalType": "address",
					"name": "previousOwner",
					"type": "address"
				},
				{
					"indexed": true,
					"internalType": "address",
					"name": "newOwner",
					"type": "address"
				}
			],
			"name": "OwnershipTransferred",
			"type": "event"
		},
		{
			"anonymous": false,
			"inputs": [
				{
					"indexed": false,
					"internalType": "address",
					"name": "account",
					"type": "address"
				}
			],
			"name": "Paused",
			"type": "event"
		},
		{
			"anonymous": false,
			"inputs": [
				{
					"indexed": false,
					"internalType": "uint32",
					"name": "eid",
					"type": "uint32"
				},
				{
					"indexed": false,
					"internalType": "bytes32",
					"name": "peer",
					"type": "bytes32"
				}
			],
			"name": "PeerSet",
			"type": "event"
		},
		{
			"anonymous": false,
			"inputs": [
				{
					"indexed": true,
					"internalType": "address",
					"name": "token",
					"type": "address"
				},
				{
					"indexed": false,
					"internalType": "address",
					"name": "priceFeed",
					"type": "address"
				}
			],
			"name": "PriceFeedSet",
			"type": "event"
		},
		{
			"anonymous": false,
			"inputs": [
				{
					"indexed": false,
					"internalType": "address",
					"name": "account",
					"type": "address"
				}
			],
			"name": "Unpaused",
			"type": "event"
		},
		{
			"anonymous": false,
			"inputs": [
				{
					"indexed": true,
					"internalType": "address",
					"name": "newVaultWallet",
					"type": "address"
				}
			],
			"name": "VaultWalletUpdated",
			"type": "event"
		},
		{
			"anonymous": false,
			"inputs": [
				{
					"indexed": false,
					"internalType": "uint256",
					"name": "requestId",
					"type": "uint256"
				},
				{
					"indexed": true,
					"internalType": "address",
					"name": "requester",
					"type": "address"
				},
				{
					"indexed": false,
					"internalType": "uint256",
					"name": "amount",
					"type": "uint256"
				},
				{
					"indexed": false,
					"internalType": "address",
					"name": "token",
					"type": "address"
				},
				{
					"indexed": false,
					"internalType": "uint256",
					"name": "targetChainId",
					"type": "uint256"
				}
			],
			"name": "WithdrawalProcessed",
			"type": "event"
		},
		{
			"anonymous": false,
			"inputs": [
				{
					"indexed": false,
					"internalType": "uint256",
					"name": "requestId",
					"type": "uint256"
				},
				{
					"indexed": true,
					"internalType": "address",
					"name": "requester",
					"type": "address"
				},
				{
					"indexed": false,
					"internalType": "uint256",
					"name": "amount",
					"type": "uint256"
				},
				{
					"indexed": false,
					"internalType": "address",
					"name": "token",
					"type": "address"
				},
				{
					"indexed": false,
					"internalType": "uint256",
					"name": "targetChainId",
					"type": "uint256"
				}
			],
			"name": "WithdrawalRequested",
			"type": "event"
		},
		{
			"inputs": [],
			"name": "BASIS_POINTS_DIVISOR",
			"outputs": [
				{
					"internalType": "uint256",
					"name": "",
					"type": "uint256"
				}
			],
			"stateMutability": "view",
			"type": "function"
		},
		{
			"inputs": [],
			"name": "USD_DECIMALS",
			"outputs": [
				{
					"internalType": "uint8",
					"name": "",
					"type": "uint8"
				}
			],
			"stateMutability": "view",
			"type": "function"
		},
		{
			"inputs": [
				{
					"internalType": "address",
					"name": "_addr",
					"type": "address"
				}
			],
			"name": "addressToBytes32",
			"outputs": [
				{
					"internalType": "bytes32",
					"name": "",
					"type": "bytes32"
				}
			],
			"stateMutability": "pure",
			"type": "function"
		},
		{
			"inputs": [
				{
					"components": [
						{
							"internalType": "uint32",
							"name": "srcEid",
							"type": "uint32"
						},
						{
							"internalType": "bytes32",
							"name": "sender",
							"type": "bytes32"
						},
						{
							"internalType": "uint64",
							"name": "nonce",
							"type": "uint64"
						}
					],
					"internalType": "struct Origin",
					"name": "origin",
					"type": "tuple"
				}
			],
			"name": "allowInitializePath",
			"outputs": [
				{
					"internalType": "bool",
					"name": "",
					"type": "bool"
				}
			],
			"stateMutability": "view",
			"type": "function"
		},
		{
			"inputs": [
				{
					"internalType": "bytes32",
					"name": "_b",
					"type": "bytes32"
				}
			],
			"name": "bytes32ToAddress",
			"outputs": [
				{
					"internalType": "address",
					"name": "",
					"type": "address"
				}
			],
			"stateMutability": "pure",
			"type": "function"
		},
		{
			"inputs": [],
			"name": "campaignCount",
			"outputs": [
				{
					"internalType": "uint256",
					"name": "",
					"type": "uint256"
				}
			],
			"stateMutability": "view",
			"type": "function"
		},
		{
			"inputs": [
				{
					"internalType": "uint256",
					"name": "",
					"type": "uint256"
				}
			],
			"name": "campaigns",
			"outputs": [
				{
					"internalType": "string",
					"name": "name",
					"type": "string"
				},
				{
					"internalType": "uint256",
					"name": "target",
					"type": "uint256"
				},
				{
					"internalType": "string",
					"name": "description",
					"type": "string"
				},
				{
					"internalType": "string",
					"name": "socialLink",
					"type": "string"
				},
				{
					"internalType": "uint256",
					"name": "imageId",
					"type": "uint256"
				},
				{
					"internalType": "address",
					"name": "creator",
					"type": "address"
				},
				{
					"internalType": "bool",
					"name": "ended",
					"type": "bool"
				},
				{
					"internalType": "uint256",
					"name": "totalStable",
					"type": "uint256"
				}
			],
			"stateMutability": "view",
			"type": "function"
		},
		{
			"inputs": [
				{
					"internalType": "uint256",
					"name": "nativeAmount",
					"type": "uint256"
				}
			],
			"name": "convertNativeToUSD",
			"outputs": [
				{
					"internalType": "uint256",
					"name": "usdValue",
					"type": "uint256"
				}
			],
			"stateMutability": "view",
			"type": "function"
		},
		{
			"inputs": [
				{
					"internalType": "address",
					"name": "token",
					"type": "address"
				},
				{
					"internalType": "uint256",
					"name": "tokenAmount",
					"type": "uint256"
				}
			],
			"name": "convertTokenToUSD",
			"outputs": [
				{
					"internalType": "uint256",
					"name": "usdValue",
					"type": "uint256"
				}
			],
			"stateMutability": "view",
			"type": "function"
		},
		{
			"inputs": [
				{
					"internalType": "string",
					"name": "name",
					"type": "string"
				},
				{
					"internalType": "uint256",
					"name": "target",
					"type": "uint256"
				},
				{
					"internalType": "string",
					"name": "description",
					"type": "string"
				},
				{
					"internalType": "string",
					"name": "socialLink",
					"type": "string"
				},
				{
					"internalType": "uint256",
					"name": "imageId",
					"type": "uint256"
				}
			],
			"name": "createCampaign",
			"outputs": [],
			"stateMutability": "nonpayable",
			"type": "function"
		},
		{
			"inputs": [
				{
					"internalType": "address",
					"name": "",
					"type": "address"
				}
			],
			"name": "creatorEndedBalance",
			"outputs": [
				{
					"internalType": "uint256",
					"name": "",
					"type": "uint256"
				}
			],
			"stateMutability": "view",
			"type": "function"
		},
		{
			"inputs": [
				{
					"internalType": "uint256",
					"name": "campaignId",
					"type": "uint256"
				},
				{
					"internalType": "address",
					"name": "token",
					"type": "address"
				},
				{
					"internalType": "uint256",
					"name": "amount",
					"type": "uint256"
				}
			],
			"name": "donate",
			"outputs": [],
			"stateMutability": "payable",
			"type": "function"
		},
		{
			"inputs": [
				{
					"internalType": "uint256",
					"name": "campaignId",
					"type": "uint256"
				},
				{
					"internalType": "string",
					"name": "name",
					"type": "string"
				},
				{
					"internalType": "uint256",
					"name": "target",
					"type": "uint256"
				},
				{
					"internalType": "string",
					"name": "description",
					"type": "string"
				},
				{
					"internalType": "string",
					"name": "socialLink",
					"type": "string"
				},
				{
					"internalType": "uint256",
					"name": "imageId",
					"type": "uint256"
				}
			],
			"name": "editCampaign",
			"outputs": [],
			"stateMutability": "nonpayable",
			"type": "function"
		},
		{
			"inputs": [
				{
					"internalType": "address",
					"name": "token",
					"type": "address"
				},
				{
					"internalType": "uint256",
					"name": "amount",
					"type": "uint256"
				}
			],
			"name": "emergencyRescue",
			"outputs": [],
			"stateMutability": "nonpayable",
			"type": "function"
		},
		{
			"inputs": [
				{
					"internalType": "uint256",
					"name": "campaignId",
					"type": "uint256"
				}
			],
			"name": "endCampaign",
			"outputs": [],
			"stateMutability": "nonpayable",
			"type": "function"
		},
		{
			"inputs": [],
			"name": "endpoint",
			"outputs": [
				{
					"internalType": "contract ILayerZeroEndpointV2",
					"name": "",
					"type": "address"
				}
			],
			"stateMutability": "view",
			"type": "function"
		},
		{
			"inputs": [],
			"name": "featuredCampaignId",
			"outputs": [
				{
					"internalType": "uint256",
					"name": "",
					"type": "uint256"
				}
			],
			"stateMutability": "view",
			"type": "function"
		},
		{
			"inputs": [],
			"name": "feeBasisPoints",
			"outputs": [
				{
					"internalType": "uint256",
					"name": "",
					"type": "uint256"
				}
			],
			"stateMutability": "view",
			"type": "function"
		},
		{
			"inputs": [],
			"name": "feeWallet",
			"outputs": [
				{
					"internalType": "address",
					"name": "",
					"type": "address"
				}
			],
			"stateMutability": "view",
			"type": "function"
		},
		{
			"inputs": [
				{
					"internalType": "uint256",
					"name": "offset",
					"type": "uint256"
				},
				{
					"internalType": "uint256",
					"name": "limit",
					"type": "uint256"
				}
			],
			"name": "getCampaigns",
			"outputs": [
				{
					"components": [
						{
							"internalType": "string",
							"name": "name",
							"type": "string"
						},
						{
							"internalType": "uint256",
							"name": "target",
							"type": "uint256"
						},
						{
							"internalType": "string",
							"name": "description",
							"type": "string"
						},
						{
							"internalType": "string",
							"name": "socialLink",
							"type": "string"
						},
						{
							"internalType": "uint256",
							"name": "imageId",
							"type": "uint256"
						},
						{
							"internalType": "address",
							"name": "creator",
							"type": "address"
						},
						{
							"internalType": "bool",
							"name": "ended",
							"type": "bool"
						},
						{
							"internalType": "uint256",
							"name": "totalStable",
							"type": "uint256"
						}
					],
					"internalType": "struct FunditMain.Campaign[]",
					"name": "",
					"type": "tuple[]"
				}
			],
			"stateMutability": "view",
			"type": "function"
		},
		{
			"inputs": [
				{
					"components": [
						{
							"internalType": "uint32",
							"name": "srcEid",
							"type": "uint32"
						},
						{
							"internalType": "bytes32",
							"name": "sender",
							"type": "bytes32"
						},
						{
							"internalType": "uint64",
							"name": "nonce",
							"type": "uint64"
						}
					],
					"internalType": "struct Origin",
					"name": "",
					"type": "tuple"
				},
				{
					"internalType": "bytes",
					"name": "",
					"type": "bytes"
				},
				{
					"internalType": "address",
					"name": "_sender",
					"type": "address"
				}
			],
			"name": "isComposeMsgSender",
			"outputs": [
				{
					"internalType": "bool",
					"name": "",
					"type": "bool"
				}
			],
			"stateMutability": "view",
			"type": "function"
		},
		{
			"inputs": [
				{
					"components": [
						{
							"internalType": "uint32",
							"name": "srcEid",
							"type": "uint32"
						},
						{
							"internalType": "bytes32",
							"name": "sender",
							"type": "bytes32"
						},
						{
							"internalType": "uint64",
							"name": "nonce",
							"type": "uint64"
						}
					],
					"internalType": "struct Origin",
					"name": "_origin",
					"type": "tuple"
				},
				{
					"internalType": "bytes32",
					"name": "_guid",
					"type": "bytes32"
				},
				{
					"internalType": "bytes",
					"name": "_message",
					"type": "bytes"
				},
				{
					"internalType": "address",
					"name": "_executor",
					"type": "address"
				},
				{
					"internalType": "bytes",
					"name": "_extraData",
					"type": "bytes"
				}
			],
			"name": "lzReceive",
			"outputs": [],
			"stateMutability": "payable",
			"type": "function"
		},
		{
			"inputs": [
				{
					"internalType": "uint32",
					"name": "",
					"type": "uint32"
				},
				{
					"internalType": "bytes32",
					"name": "",
					"type": "bytes32"
				}
			],
			"name": "nextNonce",
			"outputs": [
				{
					"internalType": "uint64",
					"name": "nonce",
					"type": "uint64"
				}
			],
			"stateMutability": "view",
			"type": "function"
		},
		{
			"inputs": [],
			"name": "oAppVersion",
			"outputs": [
				{
					"internalType": "uint64",
					"name": "senderVersion",
					"type": "uint64"
				},
				{
					"internalType": "uint64",
					"name": "receiverVersion",
					"type": "uint64"
				}
			],
			"stateMutability": "pure",
			"type": "function"
		},
		{
			"inputs": [],
			"name": "owner",
			"outputs": [
				{
					"internalType": "address",
					"name": "",
					"type": "address"
				}
			],
			"stateMutability": "view",
			"type": "function"
		},
		{
			"inputs": [],
			"name": "pause",
			"outputs": [],
			"stateMutability": "nonpayable",
			"type": "function"
		},
		{
			"inputs": [],
			"name": "pauseWithdrawals",
			"outputs": [],
			"stateMutability": "nonpayable",
			"type": "function"
		},
		{
			"inputs": [],
			"name": "paused",
			"outputs": [
				{
					"internalType": "bool",
					"name": "",
					"type": "bool"
				}
			],
			"stateMutability": "view",
			"type": "function"
		},
		{
			"inputs": [
				{
					"internalType": "uint32",
					"name": "eid",
					"type": "uint32"
				}
			],
			"name": "peers",
			"outputs": [
				{
					"internalType": "bytes32",
					"name": "peer",
					"type": "bytes32"
				}
			],
			"stateMutability": "view",
			"type": "function"
		},
		{
			"inputs": [
				{
					"internalType": "uint256",
					"name": "requestId",
					"type": "uint256"
				}
			],
			"name": "processWithdrawalRequest",
			"outputs": [],
			"stateMutability": "nonpayable",
			"type": "function"
		},
		{
			"inputs": [],
			"name": "renounceOwnership",
			"outputs": [],
			"stateMutability": "nonpayable",
			"type": "function"
		},
		{
			"inputs": [
				{
					"internalType": "uint256",
					"name": "amount",
					"type": "uint256"
				},
				{
					"internalType": "address",
					"name": "token",
					"type": "address"
				},
				{
					"internalType": "uint256",
					"name": "targetChainId",
					"type": "uint256"
				}
			],
			"name": "requestWithdrawal",
			"outputs": [],
			"stateMutability": "nonpayable",
			"type": "function"
		},
		{
			"inputs": [
				{
					"internalType": "address",
					"name": "_delegate",
					"type": "address"
				}
			],
			"name": "setDelegate",
			"outputs": [],
			"stateMutability": "nonpayable",
			"type": "function"
		},
		{
			"inputs": [
				{
					"internalType": "uint256",
					"name": "campaignId",
					"type": "uint256"
				}
			],
			"name": "setFeaturedCampaign",
			"outputs": [],
			"stateMutability": "nonpayable",
			"type": "function"
		},
		{
			"inputs": [
				{
					"internalType": "uint32",
					"name": "_eid",
					"type": "uint32"
				},
				{
					"internalType": "address",
					"name": "_peerAddress",
					"type": "address"
				}
			],
			"name": "setPeer",
			"outputs": [],
			"stateMutability": "nonpayable",
			"type": "function"
		},
		{
			"inputs": [
				{
					"internalType": "uint32",
					"name": "_eid",
					"type": "uint32"
				},
				{
					"internalType": "bytes32",
					"name": "_peer",
					"type": "bytes32"
				}
			],
			"name": "setPeer",
			"outputs": [],
			"stateMutability": "nonpayable",
			"type": "function"
		},
		{
			"inputs": [
				{
					"internalType": "address",
					"name": "token",
					"type": "address"
				},
				{
					"internalType": "address",
					"name": "priceFeed",
					"type": "address"
				}
			],
			"name": "setPriceFeed",
			"outputs": [],
			"stateMutability": "nonpayable",
			"type": "function"
		},
		{
			"inputs": [
				{
					"internalType": "string",
					"name": "username",
					"type": "string"
				}
			],
			"name": "setUsername",
			"outputs": [],
			"stateMutability": "nonpayable",
			"type": "function"
		},
		{
			"inputs": [
				{
					"internalType": "address",
					"name": "",
					"type": "address"
				}
			],
			"name": "tokenToPriceFeed",
			"outputs": [
				{
					"internalType": "address",
					"name": "",
					"type": "address"
				}
			],
			"stateMutability": "view",
			"type": "function"
		},
		{
			"inputs": [
				{
					"internalType": "address",
					"name": "newOwner",
					"type": "address"
				}
			],
			"name": "transferOwnership",
			"outputs": [],
			"stateMutability": "nonpayable",
			"type": "function"
		},
		{
			"inputs": [],
			"name": "unpause",
			"outputs": [],
			"stateMutability": "nonpayable",
			"type": "function"
		},
		{
			"inputs": [],
			"name": "unpauseWithdrawals",
			"outputs": [],
			"stateMutability": "nonpayable",
			"type": "function"
		},
		{
			"inputs": [
				{
					"internalType": "uint256",
					"name": "newFeeBasisPoints",
					"type": "uint256"
				}
			],
			"name": "updateFeeBasisPoints",
			"outputs": [],
			"stateMutability": "nonpayable",
			"type": "function"
		},
		{
			"inputs": [
				{
					"internalType": "address",
					"name": "newFeeWallet",
					"type": "address"
				}
			],
			"name": "updateFeeWallet",
			"outputs": [],
			"stateMutability": "nonpayable",
			"type": "function"
		},
		{
			"inputs": [
				{
					"internalType": "address",
					"name": "newVaultWallet",
					"type": "address"
				}
			],
			"name": "updateVaultWallet",
			"outputs": [],
			"stateMutability": "nonpayable",
			"type": "function"
		},
		{
			"inputs": [
				{
					"internalType": "address",
					"name": "",
					"type": "address"
				}
			],
			"name": "userTotalBalance",
			"outputs": [
				{
					"internalType": "uint256",
					"name": "",
					"type": "uint256"
				}
			],
			"stateMutability": "view",
			"type": "function"
		},
		{
			"inputs": [
				{
					"internalType": "address",
					"name": "",
					"type": "address"
				}
			],
			"name": "userWithdrawnBalance",
			"outputs": [
				{
					"internalType": "uint256",
					"name": "",
					"type": "uint256"
				}
			],
			"stateMutability": "view",
			"type": "function"
		},
		{
			"inputs": [
				{
					"internalType": "address",
					"name": "",
					"type": "address"
				}
			],
			"name": "usernames",
			"outputs": [
				{
					"internalType": "string",
					"name": "",
					"type": "string"
				}
			],
			"stateMutability": "view",
			"type": "function"
		},
		{
			"inputs": [],
			"name": "vaultWallet",
			"outputs": [
				{
					"internalType": "address",
					"name": "",
					"type": "address"
				}
			],
			"stateMutability": "view",
			"type": "function"
		},
		{
			"inputs": [],
			"name": "withdrawalRequestCount",
			"outputs": [
				{
					"internalType": "uint256",
					"name": "",
					"type": "uint256"
				}
			],
			"stateMutability": "view",
			"type": "function"
		},
		{
			"inputs": [
				{
					"internalType": "uint256",
					"name": "",
					"type": "uint256"
				}
			],
			"name": "withdrawalRequests",
			"outputs": [
				{
					"internalType": "uint256",
					"name": "requestId",
					"type": "uint256"
				},
				{
					"internalType": "address",
					"name": "requester",
					"type": "address"
				},
				{
					"internalType": "uint256",
					"name": "amount",
					"type": "uint256"
				},
				{
					"internalType": "address",
					"name": "token",
					"type": "address"
				},
				{
					"internalType": "uint256",
					"name": "targetChainId",
					"type": "uint256"
				},
				{
					"internalType": "bool",
					"name": "processed",
					"type": "bool"
				}
			],
			"stateMutability": "view",
			"type": "function"
		},
		{
			"inputs": [],
			"name": "withdrawalsPaused",
			"outputs": [
				{
					"internalType": "bool",
					"name": "",
					"type": "bool"
				}
			],
			"stateMutability": "view",
			"type": "function"
		},
		{
			"stateMutability": "payable",
			"type": "receive"
		}
	]
}